:04000000BAEF15F04E
:0800080067EF00F000000000AA
:100010000000000000000000046ED8CF05F0E0CF23
:1000200006F00001E9CF0CF0EACF07F0E1CF08F0CD
:10003000E2CF09F0D9CF0AF0DACF0BF0F3CF12F00C
:10004000F4CF13F0FACF14F0F5CF15F0F6CF16F089
:10005000F7CF17F000C00EF001C00FF002C010F093
:1000600003C011F00E0129AB39EF00F033BB48EFAC
:1000700001F02DA73FEF00F037B7CBEF00F00EC037
:1000800000F00FC001F010C002F011C003F00CC06E
:10009000E9FF07C0EAFF078E08C0E1FF09C0E2FFE1
:1000A0000AC0D9FF0BC0DAFF12C0F3FF13C0F4FF80
:1000B00014C0FAFF15C0F5FF16C0F6FF17C0F7FF12
:1000C000045006C0E0FF05C0D8FF100000011A6E02
:1000D000D8CF1BF0E0CF1CF00001E9CF22F0EACF2F
:1000E0001DF0E1CF1EF0E2CF1FF0D9CF20F0DACF24
:1000F00021F0F3CF28F0F4CF29F0FACF2AF0F5CF92
:100100002BF0F6CF2CF0F7CF2DF000C024F001C07B
:1001100025F002C026F003C027F00E012CAB94EFAF
:1001200000F036BB19EF01F024C000F025C001F04B
:1001300026C002F027C003F022C0E9FF1DC0EAFF7D
:100140001D8E1EC0E1FF1FC0E2FF20C0D9FF21C0ED
:10015000DAFF28C0F3FF29C0F4FF2AC0FAFF2BC042
:10016000F5FF2CC0F6FF2DC0F7FF1A501CC0E0FFB2
:100170001BC0D8FF10000E0137A7BCEF00F0E7CE80
:100180002FF0E3CE01F02FA2C8EF00F0E799E78946
:100190000001DBEF00F00001036A01015751430F3A
:1001A000E96E010E0320EA6EEACFA8FAE9CFA7FABA
:1001B0000001BBEF00F0A8CAEAFFA7CAE9FF01C02F
:1001C000EFFF0101572B57511308D8B0E9EF00F0AA
:1001D000576B0E01E351379700013FEF00F00A0122
:1001E000AC51016AAB5DD8B0FAEF00F0ABCA00F0D9
:1001F00007EF01F0006A080EAD6FAB370036AC5167
:10020000005CD8B0006E0136AD2FFDEF00F00001AC
:1002100012000E0136AB0AEF01F09CCF2FF098CF01
:1002200001F02FA216EF01F09C989C8800013CEF92
:1002300001F0000101014051FF08D8A421EF01F0B5
:10024000406B010E41250A01AA6FAB6FC80EAC6F5F
:100250000001EFEC00F000C041F1036A01014151DF
:10026000780FE96E000E0320EA6EEACFACFAE9CF10
:10027000ABFA000109EF01F0ACCAEAFFABCAE9FF33
:1002800001C0EFFF98500E01369B000194EF00F083
:1002900000010A0137CAA6FA3651362BD8B4372BDB
:1002A000A56FA6510008D8B061EF01F0FF0AD8A4ED
:1002B0005FEF01F0A551F408D8B061EF01F0376BA2
:1002C000366B82825E6B8AB25E2B82845F6B8AB4ED
:1002D0005F2B8286606B8AB6602B878C626B8FBCCB
:1002E000622B878E636B8FBE632B5E515F155D6FD4
:1002F0005D51615DD8B483EF01F03B6B3A6B010E49
:100300003C6F5DCA61FA62516311646F6453D8A493
:10031000B9EF01F05B2BD8B45C2B0501FF510A014A
:100320005B5DD8A4B7EF01F0060100510A015C5DE6
:10033000D8A4B7EF01F00501D7510508D8A4A8EF5C
:1003400001F00601E22BBE0EE36FB3EF01F00501F1
:10035000D7510308D8A4B4EF01F00601E22BBE0E7A
:10036000E36FB3EF01F00501B6EF01F00A01BBEF57
:1003700001F05C6B5B6B602DD8EF01F0582BD8B4AB
:10038000592B59510208D8B0D6EF01F0FF0AD8A472
:10039000CFEF01F05851E708D8B0D6EF01F0602D4B
:1003A000D6EF01F00A0E516F596B586BDCEF01F07C
:1003B000596B586B0B0E516F282D24EF02F02E2D28
:1003C00024EF02F0262BD8B4272B2753D8A4EEEF26
:1003D00001F02651C708D8B007EF02F0286B0501DD
:1003E000D7510508D8A4FAEF01F00601E22BBE0EA2
:1003F000E36F0501D7510308D8A404EF02F006010A
:10040000E22BBE0EE36F05011EEF02F00A01263556
:10041000026E2735036E02360336FC0E02160250BA
:10042000060FE96E070E0320EA6E29CAEFFF2ACAFB
:10043000ECFF2BCAECFF2CCAECFF05010A012C6B68
:100440002B6B2A6B296B2E6B03018C2D3AEF02F07C
:100450008D2BD8B48E2B8E53D8A434EF02F08D514F
:100460001D08D8B03AEF02F08E6B8D6B0101FE6B68
:1004700003018C6B0A013C2D63EF02F03A2BD8B4D8
:100480003B2B0501FA510A013B5DD8A063EF02F056
:10049000D8A452EF02F00501F9510A013A5DD8A043
:1004A00063EF02F03B6B3A6B5D53D8A45BEF02F055
:1004B0003E6B62EF02F05D2D62EF02F0010E3E6FC7
:1004C00062EF02F03C6B3D2D91EF02F0382BD8B477
:1004D000392B4251395DD8A091EF02F0D8A476EFC4
:1004E00002F04151385DD8A091EF02F0396B386BC2
:1004F0003D6B0501D7510508D8A486EF02F006012F
:10050000E22BBE0EE36F8FEF02F00501D751030817
:10051000D8A490EF02F00601E22BBE0EE36F0501B6
:100520000A01D5A896EF02F0FD0ED46E8F0ED36EA1
:100530000E01339B339B00013FEF00F00A019C51F9
:100540009E03F3CF01F0F4CF00F09F03F350002699
:100550009D519E03F3500020026E000112000A011B
:10056000766B776BC30E7425016E000E7521036EDA
:10057000C40E7425E96E000E7521EA6EEF68FF0E59
:1005800003C0EAFF01C0E9FFEF6E766B76510E08FB
:10059000D8A0F6EF02F0776B77510808D8A0F3EFF8
:1005A00002F09D6B76CA9CFA9F6B0D0E9E6F000148
:1005B0009EEC02F002C079FA01C078FA020E0A013C
:1005C0007827000E792377517825016E000E792166
:1005D000036E01507425E96E75510320EA6EEF6ACF
:1005E000772BCCEF02F0762BC6EF02F00001120061
:1005F0000A01746B0601D769320ED86FDD6BDC6BB4
:10060000DB6BDA6BD96B0A01746B74513108D8A0BB
:100610001AEF03F07451040DF350036A0F0FE96EE3
:10062000060E0320EA6EEF6AEC6AEC6AEC6A742B41
:1006300005EF03F00601E16BE06BDF6BDE6B0001A1
:1006400090EF05F00A017F6B7E6B816B806BF2CFC0
:1006500082FAF29E7DCA75FF7CCA74FF779C779EF2
:1006600077807650779C778E82BFF28E816B806F19
:1006700080CA7FFA7E6B7C2BD8B47D2BF2CF82FAB6
:10068000F29E7DCA75FF7CCA74FF779C779E778047
:100690007650779C778E82BFF28E816B806F80510F
:1006A0007E1381517F137ECA01F07FCA02F00001E0
:1006B00012000A01756B746B7D6B760E7C6F000106
:1006C00022EC03F002C075FA01C074FA0A0174CA80
:1006D00001F075CA02F0000192EF05F00A01756B96
:1006E000746B7D6B780E7C6F000122EC03F002C00E
:1006F00075FA01C074FA0A0174CA01F075CA02F0F1
:10070000000198EF05F00A01756B746B7D6B7A0E32
:100710007C6F000122EC03F002C075FA01C074FA8C
:100720000A0174CA01F075CA02F000019EEF05F0DB
:100730000A01756B746B7D6B7C0E7C6F000122EC83
:1007400003F002C075FA01C074FA0A0174CA01F01C
:1007500075CA02F00001A4EF05F00A01756B746B15
:100760007D6B640E7C6F000122EC03F002C075FA11
:1007700001C074FA0A0174CA01F075CA02F00001DE
:10078000DAEF05F08E0E006E82CA01F081CA02F027
:10079000036A0152D8A4D9EF03F002C001F0026A43
:1007A000080E005E0152D8A4D9EF03F0006AE3EF0F
:1007B00003F0D89001BEE2EF03F0023601360006E6
:1007C000D9EF03F0019E12000A018551D8B4D9EF88
:1007D00004F0916F8951D8B4D9EF04F0915FD8A09B
:1007E000F9EF03F07F0E9127D8B0D9EF04F001EFB5
:1007F00004F0810E915FD8A0D9EF04F0D8B4D9EFFE
:1008000004F091CA00F0016A026A036A906B86CA1A
:100810008FFA8F8F87CA8EFA88CA8DFA190E916F58
:100820008C518D5FD8B029EF04F0010E8E5FD8B0E7
:1008300029EF04F08F5FD8B029EF04F0905FD8B0B3
:1008400029EF04F0902B8F2B8E2B8C518D2767EF87
:1008500004F08B518E5FD8B04BEF04F0010E8F5F28
:10086000D8B04BEF04F0905FD8B04BEF04F0902B72
:100870008F2B8B518E278C518D27D8A067EF04F0DA
:100880008E2BD8A467EF04F08F2BD8A467EF04F069
:10089000902B67EF04F08A5180098F5FD8B066EF24
:1008A00004F0010E905FD8B066EF04F0902B8A51EF
:1008B00080098F278B518E27D8A03BEF04F08F2B18
:1008C000D8A43BEF04F0902B3BEF04F00380912F72
:1008D0006CEF04F078EF04F0D8908D378E378F37B7
:1008E0009037D890033602360136923710EF04F075
:1008F00092A182EF04F0D890013202320332923397
:1009000086EF04F00006D8B4D9EF04F092BFB9EF37
:1009100004F0D8908D378E378F3790378C518D5F9C
:10092000D8B0A0EF04F0010E8E5FD8B0A0EF04F0B5
:100930008F5FD8B0A0EF04F0905FD8A0CCEF04F0A8
:100940008B518E5FD8B0AEEF04F0010E8F5FD8B040
:10095000AEEF04F0905FD8A0CCEF04F08A5180098C
:100960008F5FD8B0B9EF04F0010E905FD8A0CCEF44
:1009700004F0032AD8A4CCEF04F0022AD8A4CCEFC8
:1009800004F0012AD8A4CCEF04F0002AD8B4D9EF9F
:1009900004F001320232033286CA91FA8A51911B65
:1009A00091AFD6EF04F0018EDDEF04F0019EDDEF94
:1009B00004F0006A016A026A036A000112000A0177
:1009C000756B746B776B766B7B6B7A6B796B786B13
:1009D000776B6E0E766F77CA7DFA76CA7CFA000165
:1009E00022EC03F002C075FA01C074FA0A017B6BB5
:1009F0007A6B75CA79FA74CA78FA79CA7BFA78CAB6
:100A00007AFA786B796B020E7627000E772377CA15
:100A10007DFA76CA7CFA000122EC03F002C075FA76
:100A200001C074FA006A016A0A017ACA7AFA7BCABA
:100A30007BFA00507411786F01507511796F78CA84
:100A400000F079CA01F07ACA02F07BCA03F0000113
:100A500008EF06F00A01756B746B776B766B7B6B36
:100A60007A6B796B786B776B720E766F77CA7DFADB
:100A700076CA7CFA000122EC03F002C075FA01C0CC
:100A800074FA0A017B6B7A6B75CA79FA74CA78FAC0
:100A900079CA7BFA78CA7AFA786B796B020E762774
:100AA000000E772377CA7DFA76CA7CFA000122EC21
:100AB00003F002C075FA01C074FA006A016A0A0103
:100AC0007ACA7AFA7BCA7BFA00507411786F0150A7
:100AD0007511796F78CA00F079CA01F07ACA02F00C
:100AE0007BCA03F0000112EF06F0000E0F01586FF1
:100AF0000E01926F9A6FA76FAF6FB46FBC6F020E4B
:100B00000A01756FC40E746F0001AFEC02F0010EA4
:100B10000A01756F74690001AFEC02F0F8EF02F0A2
:100B200059EF03F002C0FAF501C0F9F56EEF03F0DA
:100B300002C0FCF501C0FBF583EF03F002C0FEF537
:100B400001C0FDF598EF03F002C000F601C0FFF50B
:100B5000869E7E8E849C7C8C86987E8886967E96E9
:100B60000A01736B736B73516308D8A0C5EF05F06E
:100B7000040000D000D0849C7C8C040000D000D005
:100B8000849C7C9C732BB3EF05F006010D6B0E6B00
:100B9000046B036B030E026FE80E016F086B076BAB
:100BA000066B320E056F0C6B0B6B0A6B096F000145
:100BB000ADEF03F002C001F701C000F701C782FAF0
:100BC00000C781FAC2EC03F003C077FA02C076FADC
:100BD00001C075FA00C074FA03C088FA02C087FA2F
:100BE00001C086FA00C085FA0A018C6B8B6B480E37
:100BF0008A6F850E896F0001E4EC03F003C005F7EE
:100C000002C004F701C003F700C002F7DFEF04F0F1
:100C100003C008F602C007F601C006F600C005F6DC
:100C20002AEF05F003C00CF602C00BF601C00AF66D
:100C300000C009F6F6EF17F098500E012C8B00015A
:100C40002EEF06F00E01E3512D87000130EF06F084
:100C50000E01339B298B00011CEF06F022EF06F0FA
:100C6000F8EF17F00A0EEA6E730EE96EEF50D8B483
:100C70004BEF06F0060E016EBF0E006E0400002E54
:100C8000FDD7012EF9D77A0E006E002EFED700D0C8
:100C90000400EF2EEFD7FEEF17F0900ED56E430E47
:100CA000D66ED5A856EF06F0FD0ED46E8F0ED36E1D
:100CB0000E01339B298B000100EF18F0016666EFEF
:100CC00006F0026667EF06F06FEF06F0022A00C03A
:100CD000EEFF012E67EF06F0022E67EF06F07AEFC7
:100CE00006F0EA6A780EE96EC80E006E026A016AC2
:100CF0005EEF06F0010140694169000102EF18F062
:100D00000A01756BC30E7325E96E000E7421EA6E3D
:100D1000EF50FF08D8A490EF06F0756B92EF06F045
:100D2000010E756F75CA01F000011200C30E0A01B1
:100D30007825E96E000E7921EA6EEF50FF08D8A4FD
:100D4000A4EF06F0E2EF06F0C30E7825E96E000E80
:100D50007921EA6EEFCF7AFAC40E7825E96E000E9B
:100D60007921EA6EEF507A5DD8A4C7EF06F0C30E82
:100D70007825E96E000E7921EA6EEF68C40E7825B9
:100D8000E96E000E7921EA6EEF68E2EF06F0C30E1D
:100D90007825E96E000E7921EA6EEF500E08D8A48E
:100DA000DBEF06F0C30E7825E96E000E7921EA6EBE
:100DB000EF6AE2EF06F0C30E7825E96E000E7921A6
:100DC000EA6EEF2A000112000A01A16BA16BA1518A
:100DD0000808D8A005EF07F0020EA1259F25016E97
:100DE000000EA021036E020EA1259D25E96E000EC6
:100DF0009E21EA6EEFCFA4FA03C0EAFF01C0E9FF2B
:100E0000A4CAEFFFA12BE7EF06F000011200C30E0A
:100E10000A017425E96E000E7521EA6EEF50FF0895
:100E2000D8A415EF07F03CEF07F0C30E7425E96E68
:100E3000000E7521EA6E9D6BEFCF9CFA9F6B0D0E35
:100E40009E6F00019EEC02F002C003F001500A0107
:100E50007425016E7551032201C078FA03C079FA36
:100E600003C09EFA01C09DFA77CAA0FA76CA9FFA1B
:100E70000001E4EC06F00A010001D2EF07F00A01DC
:100E80007B6B7A6B7D697C69A00E7F6F010E7E6F34
:100E9000806B816B826B7951805DD8A452EF07F033
:100EA00094EF07F0802B816B8153D8A474EF07F087
:100EB000802D69EF07F0010E805D7725E96E000E49
:100EC0007821EA6EEF507C197A6F7DCA7BFA72EF57
:100ED00007F0010E805D7725E96E000E7821EA6E3D
:100EE000EF507A1B78EF07F07E517A1B7F517B1B06
:100EF0000A01812B81510808D8B081EF07F092EFE9
:100F000007F07A51010B826FD8907B337A33822DB0
:100F10008EEF07F054EF07F090EF07F078EF07F04F
:100F200054EF07F04BEF07F07ACA01F07BCA02F0EA
:100F3000000112000E0136A99BEF07F0996E000127
:100F400012000A01736B0301AC510908D8B0B6EF67
:100F500007F0AC6B010E0A01796F7869000196EC1D
:100F600006F00101FE6B3EEF08F00301AC2B0A0115
:100F7000736B73510808D8A0C9EF07F0036A735167
:100F80006B0FE96E010E0320EA6EEF6A732BB9EF67
:100F900007F0010E756F7469776F690E766F000147
:100FA00007EF07F00301AC2DDDEF07F09C3DDCEF10
:100FB00007F09C6BDDEF07F09C2B9CC369F19CC391
:100FC0009DF3210E9E6F6BC19FF36CC1A0F36DC1A9
:100FD000A1F36EC1A2F36FC1A3F370C1A4F371C1F9
:100FE000A5F372C1A6F373C1A7F3030E0A01786FCC
:100FF0009D0E776F0B0E796F00013FEC07F002C07A
:10100000ABF301C0AAF3ABC375FAAAC3A8F30301FB
:10101000ABC3A9F30301A50E00019AEC07F0A50EDE
:101020009AEC07F0A50E9AEC07F00A01736B735166
:101030000C08D8A02DEF08F0036A73519D0FE96EDC
:10104000030E0320EA6EEFCF74FA745100019AEC9C
:1010500007F00A01732B17EF08F0B50E00019AECA8
:1010600007F0B50E9AEC07F00400070E006E002E94
:10107000FED700D0010E03018C6F0101000126EFA5
:1010800018F00A0E0A01736F01014051FF08D8A43D
:1010900051EF08F00A01736B73CA01F067EF08F0B3
:1010A00001014051415DD8B060EF08F0C80ED88012
:1010B00040554125010F0A01736F65EF08F00101EA
:1010C0004051415D010F0A01736F73CA01F00001C5
:1010D0002AEF18F00A01775103019C5DD8A482EF32
:1010E00008F0010E0A01796F7869000196EC06F0AC
:1010F0000301AC6B8C6B8E6B8D6B0101FE6B87EF0C
:1011000008F003018C6B8E6B8D6B0101FE6B00018F
:10111000B6EF0AF00A0199519A11D8A492EF08F09B
:1011200074EF09F0C30E9725E96E000E9821EA6E60
:10113000EF52D8A4A7EF08F0C40E9725E96E000E71
:101140009821EA6EEF500E08D8B4BBEF08F0C40E39
:101150009725E96E000E9821EA6EEFCF9BFAC30E39
:101160009725E96E000E9821EA6E010EEF5C9B5DFB
:10117000D8A4BFEF08F074EF09F074EF09F0C30EC4
:101180009725E96E000E9821EA6EEF50FF08D8A46B
:1011900001EF09F0C30E9725E96E000E9821EA6E63
:1011A000EF6AC40E9725E96E000E9821EA6EEF6A89
:1011B000C40E9725E96E000E9821EA6E9D6BEFCF65
:1011C0009CFA9F6B0D0E9E6F00019EEC02F002C018
:1011D00003F001500A019725016E9851032201C0C6
:1011E0009BFA03C09CFA9ACA9EFA99CA9DFA03C058
:1011F000A0FA01C09FFA0001E4EC06F073EF09F0D9
:101200000A01C40E9725E96E000E9821EA6EEF5090
:101210000E08D8A446EF09F0C30E9725E96E000E1C
:101220009821EA6EEF52D8B446EF09F0C40E972524
:10123000E96E000E9821EA6EEF6AC40E9725E96EFA
:10124000000E9821EA6E9D6BEFCF9CFA9F6B0D0EFE
:101250009E6F00019EEC02F002C003F001500A01F3
:101260009725016E9851032201C09BFA03C09CFA96
:101270009ACA9EFA99CA9DFA03C0A0FA01C09FFAC1
:101280000001E4EC06F073EF09F00A01C40E9725A3
:10129000E96E000E9821EA6EEF2AC40E9725E96EDA
:1012A000000E9821EA6E9D6BEFCF9CFA9F6B0D0E9E
:1012B0009E6F00019EEC02F002C003F001500A0193
:1012C0009725016E9851032201C09BFA03C09CFA36
:1012D0009ACA9EFA99CA9DFA03C0A0FA01C09FFA61
:1012E0000001E4EC06F00A010001120040C173FAAB
:1012F0000A01746B40C175FA766B40C113F441C1A9
:1013000014F40401166B156B01014253D8B4C1EFFC
:1013100009F0010E40250A01786F196AF2BE198E94
:10132000F29EAB6FC80EAC6F0001EFEC00F019BE7F
:10133000F28E00C075FA036A01014051780FE96E20
:10134000000E0320EA6EEF50A508D8A4BCEF09F008
:10135000036A0A017551780FE96E000E0320EA6EE8
:10136000EF50A508D8B403D00101BCEF09F001018A
:10137000C1EF09F0BFEF09F075CA40F1420785EFF0
:1013800009F04253D8A4C7EF09F03AEF0BF04251ED
:101390000D08D8B019EF0AF00E0E40250A01786F3B
:1013A000196AF2BE198EF29EAB6FC80EAC6F0001C7
:1013B000EFEC00F019BEF28E00C076FA036A01016C
:1013C0004051780FE96E000E0320EA6EEF50A50839
:1013D000D8A415EF0AF0036A0A017651780FE96E76
:1013E000000E0320EA6EEF50B508D8A4FEEF09F016
:1013F000010119EF0AF013EF0AF00A01010E0101D1
:1014000040250A01786F196AF2BE198EF29EAB6F01
:10141000C80EAC6F0001EFEC00F019BEF28E00C0F8
:1014200040F10101420717EF0AF03AEF0BF0C7EF66
:1014300009F0010E40250A01786F196AF2BE198E73
:10144000F29EAB6FC80EAC6F0001EFEC00F019BE5E
:10145000F28E00C040F1010142070A01746B745121
:101460000C08D8A066EF0AF0036A74518F0F016E62
:10147000030E032203C078FA036A01014051780F7A
:10148000E96E000E0320EA6EEFCF79FA0A0178CAFE
:10149000EAFF01C0E9FF79CAEFFF010E0101402513
:1014A0000A01786F196AF2BE198EF29EAB6FC80EF0
:1014B000AC6F0001EFEC00F019BEF28E00C040F1FD
:1014C000010142070A01742B2FEF0AF00101425378
:1014D000D8B48FEF0AF0036A4051780FE96E000E1E
:1014E0000320EA6EEF50A508D8A479EF0AF08FEF39
:1014F0000AF0010E40250A01786F196AF2BE198EB2
:10150000F29EAB6FC80EAC6F0001EFEC00F019BE9D
:10151000F28E00C040F10101420767EF0AF0010EB0
:1015200041250A01786F196AF2BE198EF29EAB6FDF
:10153000C80EAC6F0001EFEC00F019BEF28E00C0D7
:1015400075FA0A0175510101405DD8A4ABEF0AF0AC
:10155000416941C140F1030190512C08D8A4BAEF70
:101560000AF08FC377FA00016AEF08F001013AEF41
:101570000BF0030190512108D8A439EF0BF0030EB2
:101580000A01786F8F0E776F0B0E796F00013FECB9
:1015900007F002C0ABF301C0AAF3ABC377FA0A01AC
:1015A000786B03019B510A01775DD8A436EF0BF0ED
:1015B0007853D8A436EF0BF0ABC378FAAAC377FA06
:1015C000786B03019A510A01775DD8A436EF0BF0CE
:1015D0007853D8A436EF0BF091C35EF192C35FF15C
:1015E00093C360F194C361F195C362F196C363F153
:1015F00097C364F198C365F199C366F1020E986FC1
:10160000C40E976F010E9A6F5C0E996F00018AEC01
:1016100008F02C0E0301906FA50E00019AEC07F064
:10162000A50E9AEC07F0A50E9AEC07F00A01746B70
:1016300074510C08D8A02EEF0BF0036A74518F0F71
:10164000E96E030E0320EA6EEFCF77FA77510001BF
:101650009AEC07F00A01742B18EF0BF0B50E00019D
:101660009AEC07F0B50E9AEC07F00A0138EF0BF090
:1016700003010101000135EF18F0C30E0A018125B5
:10168000E96E000E8221EA6EEF50FF08D8A44BEFFE
:101690000BF0B0EF0BF0C30E8125E96E000E822136
:1016A000EA6E9D6BEFCF9CFA9F6B0D0E9E6F000153
:1016B0009EEC02F002C003F001500A018125016E88
:1016C0008251032201C085FA03C086FA03C09EFA44
:1016D00001C09DFA84CAA0FA83CA9FFA0001E4EC13
:1016E00006F0C30E0A018125E96E000E8221EA6E22
:1016F000EFCF85FAC40E8125E96E000E8221EA6ED5
:10170000EF50855DD8A495EF0BF0C30E8125E96EEF
:10171000000E8221EA6EEF68C40E8125E96E000E8C
:101720008221EA6EEF68B0EF0BF0C30E8125E96EFF
:10173000000E8221EA6EEF500E08D8A4A9EF0BF03C
:10174000C30E8125E96E000E8221EA6EEF6AB0EFCA
:101750000BF0C30E8125E96E000E8221EA6EEF2A9E
:101760000001ACEF0CF00A018D6B8CCA8DFAF250BF
:10177000006EF29E8ACA75FF89CA74FF8DCA76FF11
:10178000779C779E77840F01550E786EAA0E786E3F
:10179000778277B2C9EF0BF07794779C778E005001
:1017A000F2120A01892BD8B48A2B8D6B8BCA8DFA61
:1017B000F250006EF29E8ACA75FF89CA74FF8DCA04
:1017C00076FF779C779E77840F01550E786EAA0E70
:1017D000786E778277B2EAEF0BF07794779C778E0A
:1017E0000050F212000112000A01846B836B82CA5E
:1017F00084FA81CA83FA8A6B640E896F84CA8CFA70
:1018000083CA8BFA0001B3EC0BF041EF0DF00A0133
:10181000866B856B886B876B83CA85FA84CA86FA68
:10182000036A886B6E0E876F88CA8AFA87CA89FA3C
:1018300086CA8CFA85CA8BFA0001B3EC0BF084CA15
:1018400003F083CA02F082CA86FA81CA85FA020EC0
:101850000A018727000E882388CA8AFA87CA89FA6C
:1018600086CA8CFA85CA8BFA0001B3EC0BF0DCEF68
:101870000DF00A01866B856B886B876B83CA85FACE
:1018800084CA86FA036A886B720E876F88CA8AFADE
:1018900087CA89FA86CA8CFA85CA8BFA0001B3EC2A
:1018A0000BF084CA03F083CA02F082CA86FA81CAA6
:1018B00085FA020E0A018727000E882388CA8AFA51
:1018C00087CA89FA86CA8CFA85CA8BFA0001B3ECFA
:1018D0000BF0E6EF0DF00A018A6B760E896F82CA73
:1018E0008CFA81CA8BFA0001B3EC0BF01DEF0EF0FD
:1018F0000A018A6B780E896F82CA8CFA81CA8BFAC8
:101900000001B3EC0BF02EEF0EF00A018A6B7A0E99
:10191000896F82CA8CFA81CA8BFA0001B3EC0BF092
:101920003FEF0EF00A018A6B7C0E896F82CA8CFA37
:1019300081CA8BFA0001B3EC0BF072EF0EF00A01D2
:10194000736B020E826FC40E816F0A0E846F740E69
:10195000836F00013DEF0BF00A017651640A00012C
:10196000D8B4E9EF0CF0010AD8B4EEEF0CF00A0A93
:10197000D8B4F9EF0CF0ED0AD8B4FEEF0CF0140A6D
:10198000D8B409EF0DF01B0AD8B40EEF0DF0E10A40
:10199000D8B413EF0DF00A0AD8B46CEF0DF0100AAA
:1019A000D8B477EF0DF01D0AD8B47CEF0DF01A0A09
:1019B000D8B47FEF0DF0F20AD8B4E9EF0DF01B0AAE
:1019C000D8B4ECEF0DF0030AD8B444EF0EF076EF84
:1019D0000EF0010E0501D76F79EF0EF0050E05012F
:1019E000D76F830E0601E26FBE0EE36F050179EF3C
:1019F0000EF0020E0501D76F79EF0EF0030E050110
:101A0000D76F830E0601E26FBE0EE36F050179EF1B
:101A10000EF0060E0501D76F79EF0EF0040E0501EA
:101A2000D76F79EF0EF0010E0A01736F735108083A
:101A3000D8A036EF0DF0010E735D036A680F016EDA
:101A4000000E032203C082FA036A7351760FE96E17
:101A50000A0E0320EA6EEFCF83FA82CAEAFF01C0C2
:101A6000E9FF83CAEFFF732B16EF0DF069C001F792
:101A700068C000F701C782FA00C781FA0001F4EFDD
:101A80000BF001C782FA00C781FAC2EC03F003C071
:101A900084FA02C083FA01C082FA00C081FA03C04E
:101AA00088FA02C087FA01C086FA00C085FA0A01E6
:101AB0008C6B8B6B480E8A6F850E896F0001E4EC8E
:101AC00003F003C005F702C004F701C003F700C02C
:101AD00002F7050179EF0EF0050E0501D76F830EB1
:101AE0000601E26FBE0EE36F050179EF0EF0080EFE
:101AF0000501D76F79EF0EF0050179EF0EF0010EB9
:101B00000A01736F73510808D8A0A2EF0DF0010EFF
:101B1000735D036A4C0F016E000E032203C082FA4C
:101B2000036A7351760FE96E0A0E0320EA6EEFCF57
:101B300083FA82CAEAFF01C0E9FF83CAEFFF732B71
:101B400082EF0DF04FC008F64EC007F64DC006F606
:101B50004CC005F653C00CF652C00BF651C00AF645
:101B600050C009F6970E01016B6F010E0A01736FE9
:101B700073510808D8A0C9EF0DF0010E735D036A18
:101B80004C0FE96E000E0320EA6EEF6A732BB8EF7C
:101B90000DF0010E986F97699A6F690E996F0001A9
:101BA0008AEC08F008C684FA07C683FA06C682FAE9
:101BB00005C681FA07EF0CF00CC684FA0BC683FA4F
:101BC0000AC682FA09C681FA39EF0CF0050179EFED
:101BD0000EF0050179EF0EF0010E0A01736F7351DB
:101BE0000808D8A00FEF0EF0010E735D036A700FA6
:101BF000016E000E032203C082FA036A7351760F4E
:101C0000E96E0A0E0320EA6EEFCF83FA82CAEAFF7A
:101C100001C0E9FF83CAEFFF732BEFEF0DF0000166
:101C2000702D1FEF0EF072C0FAF571C0F9F5FAC50C
:101C300082FAF9C581FA6BEF0CF041EF0EF07051AA
:101C40000208D8A430EF0EF072C0FCF571C0FBF5AD
:101C5000FCC582FAFBC581FA78EF0CF041EF0EF07B
:101C600070510308D8A441EF0EF072C0FEF571C0A8
:101C7000FDF5FEC582FAFDC581FA85EF0CF041EF56
:101C80000EF0050179EF0EF0010E0A01736F73512A
:101C90000808D8A067EF0EF0010E735D036A740F99
:101CA000016E000E032203C082FA036A7351760F9D
:101CB000E96E0A0E0320EA6EEFCF83FA82CAEAFFCA
:101CC00001C0E9FF83CAEFFF732B47EF0EF075C029
:101CD00000F674C0FFF500C682FAFFC581FA000164
:101CE00092EF0CF0050179EF0EF00001050179EF9C
:101CF0000EF0000144EF18F00A01766B756B746BFF
:101D0000736B776B0400520E006E002EFED700D06E
:101D1000776B77511708D8A0A6EF0EF0849C7C8CC7
:101D2000040000D000D0848A8CBA9AEF0EF0D890CC
:101D30009BEF0EF0D880733774377537849C7C9C8A
:101D4000040000D000D0772B89EF0EF0F00E73174F
:101D5000040000D000D0849C7C8C040000D000D013
:101D6000849C7C9C73CA00F074CA01F075CA02F0AE
:101D700076CA03F000014AEF18F00A01806B990E51
:101D8000756F010E806F80510808D8A0D3EF0EF058
:101D9000036A8051750FE96E0A0E0320EA6EEF6A3E
:101DA000802BC3EF0EF0010E986F97690A0E9A6FA1
:101DB000730E996F00018AEC08F073EF18F00A01B6
:101DC000806B9A0E756F010E806F80510808D8A045
:101DD000F5EF0EF0036A8051750FE96E0A0E0320CD
:101DE000EA6EEF6A802BE5EF0EF0010E986F9769AF
:101DF0000A0E9A6F730E996F00018AEC08F083EF58
:101E000018F0D8B208EF0FF00A0EEA6E9F0EE96ED6
:101E1000006A016A026A036A0A019F6BA06BA16BE8
:101E2000A26B9E519D119C119B11D8B44DEF0FF0E8
:101E3000200EA36FD8909737983799379A379F37E6
:101E4000A037A137A2379E51A25DD8A434EF0FF07E
:101E50009D51A15DD8A434EF0FF09C51A05DD8A492
:101E600034EF0FF09B519F5DD8A046EF0FF09B51D0
:101E70009F5F9C51D8A09C3DA05F9D51D8A09D3DE7
:101E8000A15F9E51D8A09E3DA25FD880003601364A
:101E900002360336A32F1AEF0FF09FCAEFFFA0CA36
:101EA000ECFFA1CAECFFA2CAECFF00011200B60EC3
:101EB000006E036A026A016A0A0183518411851166
:101EC0008611D8A467EF0FF0006A76EF0FF0D89074
:101ED00001BE75EF0FF083378437853786370336B9
:101EE00002360136002E67EF0FF0019E000145EF2C
:101EF00010F00A018751D8B402EF10F0006E8B5138
:101F0000D8B402EF10F00026D8A08EEF0FF0810EAB
:101F10000026D8B002EF10F096EF0FF07F0E005EB3
:101F2000D8A002EF10F0D8B402EF10F088CA8FFAF0
:101F30008C518F1B888F8C8F8A518E03F4CF91FA2E
:101F400089518D03F4CF03F0F3CF90FA8E03F35051
:101F50009127F4509023000E03228A518D03F350F1
:101F60009127F4509023000E026A03220222885126
:101F70008E03F3509027F4500322000E0222885162
:101F80008D03F3500326F4500222000E016A012251
:101F90008A518C03F3509027F4500322000E022242
:101FA000012289518C03F3500326F4500222000EC3
:101FB000012288518C03F3500226F4500122002A9A
:101FC00001BEE8EF0FF09037033602360136000607
:101FD000000E90AFFCEF0FF0032A02220122015005
:101FE000D8A4FCEF0FF00250D8A4FCEF0FF0035080
:101FF000D8A4FCEF0FF0002A8FBF018E8FAF019E97
:1020000006EF10F0006A016A026A036A00015FEFDE
:1020100010F00A018351B608836F036A84CA87FAF5
:10202000848FD89084338533863303320232013271
:102030000032832F11EF10F087AF2AEF10F0001E4F
:10204000011E021E031E002AD8B4012AD8B4022A97
:10205000D8B4032A000171EF10F00A017A6B796B92
:10206000786B776B7E6B7D6B7C6B7B6B826B816B34
:10207000806B7F6B76CA86FA75CA85FA74CA84FA51
:1020800073CA83FA000157EF0FF003C086FA02C04B
:1020900085FA01C084FA00C083FA03C08AFA02C03C
:1020A00089FA01C088FA00C087FA05C78EFA04C70A
:1020B0008DFA03C78CFA02C78BFA79EF0FF003C0D1
:1020C00082FA02C081FA01C080FA00C07FFA82CA97
:1020D00086FA81CA85FA80CA84FA7FCA83FA09EF30
:1020E00010F003C07EFA02C07DFA01C07CFA00C085
:1020F0007BFAD8927ECA9AFA7DCA99FA7CCA98FA73
:102100007BCA97FA0A019E6B9D6B030E9C6FE80ECB
:102110009B6F000101EC0FF003C07EFA02C07DFA54
:1021200001C07CFA00C07BFA7ECA7AFA7DCA79FACD
:102130007CCA78FA7BCA77FA77CA00F078CA01F0CD
:1021400079CA02F07ACA03F012000A01846B476A66
:10215000466A456A446A76CA4BF075CA4AF074CA40
:1021600049F073CA48F0860E796F010E846F84516E
:102170000808D8A0D7EF10F0036A8451790F016ED8
:102180000A0E032203C086FA010E845D036A440F1F
:10219000E96E000E0320EA6EEFCF87FA86CAEAFFE7
:1021A00001C0E9FF87CAEFFF842BB7EF10F0010EE3
:1021B000986F97690A0E9A6F770E996F00018AECF3
:1021C00008F007EF14F00A01846BDFC55BF0DEC591
:1021D0005AF0DDC559F0DCC558F076CA5FF075CA13
:1021E0005EF074CA5DF073CA5CF0680E796F010E20
:1021F000846F84510808D8A019EF11F0036A845144
:10220000790F016E0A0E032203C086FA010E845D67
:10221000036A580FE96E000E0320EA6EEFCF87FACB
:1022200086CAEAFF01C0E9FF87CAEFFF842BF9EFF6
:1022300010F0010E986F97690A0E9A6F770E996FDA
:1022400000018AEC08F0E2EF14F00A018D6B8E6B4E
:10225000926B916B906B8F6B0601D72BD851D75D2A
:10226000D8A036EF11F0010ED96FD76BB00EDE2576
:10227000006E040EDF21016E000EE021026E000EE2
:10228000E121036E0A018C5DD8A062EF11F0D8A4A1
:102290005FEF11F002508B5DD8A062EF11F0D8A46F
:1022A0005FEF11F001508A5DD8A062EF11F0D8A461
:1022B0005FEF11F00050895DD8A062EF11F00601C8
:1022C000D76B0A010601D751040DF350036A0F0FB3
:1022D000E96E060E0320EA6E89CAEFFF8ACAECFF98
:1022E0008BCAECFF8CCAECFFD92D7EEF11F0320EB9
:1022F0000A018E6F0601D96B83EF11F0010ED7250D
:102300000A018E6F06010A018D6B8E518D5DD8B06A
:10231000A6EF11F08D51040DF350036A0F0FE96E13
:10232000060E0320EA6EEFCF00F0ECCF01F0ECCF09
:1023300002F0ECCF03F000508F27015090230250A1
:102340009123035092238D2B85EF11F08ECA00F05C
:10235000016A026A036A03C096FA02C095FA01C0D4
:1023600094FA00C093FAD89292CA9AFA91CA99FA4A
:1023700090CA98FA8FCA97FA03C09EFA02C09DFAD3
:1023800001C09CFA00C09BFA000101EC0FF003C0F1
:10239000DDF602C0DCF601C0DBF600C0DAF6DDC611
:1023A000E1F6DCC6E0F6DBC6DFF6DAC6DEF6D6EF2F
:1023B00012F00A01966B0001676B666B656B646BCC
:1023C000DDC663F0DCC662F0DBC661F0DAC660F041
:1023D000870E0A018B6F010E966F96510808D8A0E0
:1023E0000DEF12F0036A96518B0F016E0A0E032255
:1023F00003C098FA010E965D036A600FE96E000E45
:102400000320EA6EEFCF99FA98CAEAFF01C0E9FF0C
:1024100099CAEFFF962BEDEF11F0010E986F9769B7
:102420000A0E9A6F890E996F00018AEC08F0D8EFB6
:1024300012F00A01846B886B876B866B856B76CA9A
:1024400088FA75CA87FA74CA86FA73CA85FA0501CA
:10245000E02BD8B4E12B060108510A01765DD8A023
:102460005BEF12F0D8A452EF12F0060107510A01F7
:10247000755DD8A05BEF12F0D8A452EF12F0060100
:1024800006510A01745DD8A05BEF12F0D8A452EF98
:1024900012F073510601055DD8A003D00A015BEF6D
:1024A00012F00A010501D66B010ED56F7C9484945D
:1024B0008DEF12F00A01765106010C5DD8A089EF6C
:1024C00012F0D8A481EF12F00A01755106010B5DDC
:1024D000D8A089EF12F0D8A481EF12F00A0174514C
:1024E00006010A5DD8A089EF12F0D8A481EF12F09E
:1024F00009510A01735DD8A003D0060189EF12F0DB
:1025000006010501D66BD56B7C9684968DEF12F093
:1025100006010501D66B020ED56F76CA3FF075CA6B
:102520003EF074CA3DF073CA3CF0D6C543F0D5C541
:1025300042F0E1C541F0E0C540F0840E0A01796F38
:10254000010E846F84510808D8A0C2EF12F0036A0C
:102550008451790F016E0A0E032203C08AFA010E1C
:10256000845D036A3C0FE96E000E0320EA6EEFCF34
:102570008BFA8ACAEAFF01C0E9FF8BCAEFFF842BFE
:10258000A2EF12F0010E986F97690A0E9A6F770EFC
:10259000996F00018AEC08F088CA8CFA87CA8BFA16
:1025A00086CA8AFA85CA89FA25EF11F0D9EF11F0A7
:1025B00049EF15F00601E251830A0001D8B407EF94
:1025C00013F0070AD8B421EF13F0010AD8B43CEF96
:1025D00013F0030AD8B4D3EF13F0010AD8B410EF04
:1025E00014F00F0AD8B42BEF14F0010AD8B4C2EFDC
:1025F00014F0030AD8B454EF15F0010AD8B473EFFD
:1026000015F0070AD8B498EF15F0B4EF15F00601ED
:10261000E3518208D8A40FEF13F0B7EF15F00A01C9
:102620003E53D8A41EEF13F0010E3D6FFCC542FAD5
:10263000FBC541FA820E0601E36F0A010601B7EFFE
:1026400015F00601E3518208D8A42BEF13F0B7EF81
:1026500015F03AEF13F0E2518408D8A43AEF13F0E2
:102660000A0127692669010E286F820E0601E36FB1
:102670003AEF13F0B7EF15F00601E3518208D8A442
:1026800046EF13F0B7EF15F0D1EF13F0E2518508E4
:10269000D8A4D1EF13F0F56BF46BF36BF26BFF6B17
:1026A000FE6BFF53D8A48FEF13F0FE51C708D8A0DC
:1026B0008FEF13F0FE35026EFF35036E02360336E0
:1026C000FC0E02160250060FE96E070E0320EA6E9A
:1026D000EFCF00F0ECCF01F0ECCF02F0ECCF03F045
:1026E0000050F2270150F3230250F4230350F52346
:1026F000FE35026EFF35036E02360336FC0E0216FF
:102700000250060FE96E070E0320EA6EEF6AEC6ACC
:10271000EC6AEC6AFE2BD8B4FF2B51EF13F0F253A6
:10272000D8A4A9EF13F0F353D8A4A9EF13F0F453EE
:10273000D8A4A9EF13F0F553D8A4A9EF13F0F9C664
:10274000F1F6F8C6F0F6F7C6EFF6F6C6EEF6CCEF01
:1027500013F0D892F5C69AFAF4C699FAF3C698FA25
:10276000F2C697FA0A019E6B9D6B9C6BC80E9B6F1D
:10277000000101EC0FF003C0F1F602C0F0F601C059
:10278000EFF600C0EEF6F1C6F9F6F0C6F8F6EFC6C1
:10279000F7F6EEC6F6F60601E22BBE0EE36FD1EFBA
:1027A00013F0B7EF15F00601E3518208D8A4DDEF6E
:1027B00013F0B7EF15F00EEF14F0E2518608D8A42D
:1027C0000EEF14F0F1C6DFF5F0C6DEF5EFC6DDF56D
:1027D000EEC6DCF5DFC576FADEC575FADDC574FA3E
:1027E000DCC573FA00012DEC10F003C0DBF502C06C
:1027F000DAF501C0D9F500C0D8F5DBC576FADAC53F
:1028000075FAD9C574FAD8C573FAA5EF10F080949B
:102810008894820E0601E36F0EEF14F0B7EF15F007
:102820000601E3518208D8A41AEF14F0B7EF15F0AF
:1028300029EF14F0E2518708D8A429EF14F00A0117
:1028400027692669010E286F820E0601E36F29EFC2
:1028500014F0B7EF15F00601E3518208D8A435EF64
:1028600014F0B7EF15F0C0EF14F0E2518808D8A4C7
:10287000C0EF14F0F56BF46BF36BF26BFF6BFE6B58
:10288000FF53D8A47EEF14F0FE51C708D8A07EEF06
:1028900014F0FE35026EFF35036E02360336FC0E71
:1028A00002160250060FE96E070E0320EA6EEFCF04
:1028B00000F0ECCF01F0ECCF02F0ECCF03F00050D1
:1028C000F2270150F3230250F4230350F523FE3581
:1028D000026EFF35036E02360336FC0E02160250FE
:1028E000060FE96E070E0320EA6EEF6AEC6AEC6AE7
:1028F000EC6AFE2BD8B4FF2B40EF14F0F253D8A4AF
:1029000098EF14F0F353D8A498EF14F0F453D8A42C
:1029100098EF14F0F553D8A498EF14F0FDC6F1F633
:10292000FCC6F0F6FBC6EFF6FAC6EEF6BBEF14F007
:10293000D892F5C69AFAF4C699FAF3C698FAF2C68E
:1029400097FA0A019E6B9D6B9C6BC80E9B6F0001F2
:1029500001EC0FF003C0F1F602C0F0F601C0EFF693
:1029600000C0EEF6F1C6FDF6F0C6FCF6EFC6FBF6CB
:10297000EEC6FAF60601E22BBE0EE36FC0EF14F0CE
:10298000B7EF15F00601E3518208D8A4CCEF14F09C
:10299000B7EF15F052EF15F0E2518908D8A452EFC5
:1029A00015F00501D7510508D8A4E5EF14F0F1C6DC
:1029B00076FAF0C675FAEFC674FAEEC673FA00013D
:1029C000E3EF10F04BEF15F00501D7510308D8A441
:1029D0004CEF15F0DF510601F15DD8A03AEF15F08C
:1029E000D8A410EF15F00501DE510601F05DD8A066
:1029F0003AEF15F0D8A410EF15F00501DD510601EE
:102A0000EF5DD8A03AEF15F0D8A410EF15F0EE5115
:102A10000501DC5DD8A003D006013AEF15F00601F0
:102A20000501DC510601EE5DE46F0501DD51060193
:102A3000EF59E56F0501DE510601F059E66F05011A
:102A4000DF510601F159E76FE7C676FAE6C675FA77
:102A5000E5C674FAE4C673FA00012DEC10F003C069
:102A6000EBF602C0EAF601C0E9F600C0E8F63FEF77
:102A700015F00601EB6BEA6BE96BE86B0001EBC646
:102A800076FAEAC675FAE9C674FAE8C673FA19EF77
:102A900012F04BEF15F005010601E22BBE0EE36FBD
:102AA00052EF15F0B7EF15F00601E3518208D8A4F4
:102AB0005EEF15F0B7EF15F071EF15F0E2518A08EF
:102AC000D8A471EF15F080848894010E0A013D6F3F
:102AD000FCC542FAFBC541FA820E0601E36F71EFB5
:102AE00015F0B7EF15F00601E3518208D8A47DEF89
:102AF00015F0B7EF15F096EF15F0E2518B08D8A45A
:102B000096EF15F0809688960A015C6B5B6B010E60
:102B10003D6FFEC542FAFDC541FA820E0601E36F24
:102B20007C8684967C84849496EF15F0B7EF15F03C
:102B30000601E3518208D8A4A2EF15F0B7EF15F013
:102B4000B1EF15F0E2518C08D8A4B1EF15F08086F2
:102B50008896830EE26F010E0A013E6FB0EF15F00A
:102B60000601B7EF15F000010601B7EF15F00001FF
:102B7000B1EF18F0778E779CF86A0E011F9B228BBD
:102B80002397F28A078E550E0D01EF6FAA0EEF6F95
:102B9000EF91170E0E010F6F110E156F120E626F6F
:102BA0000C0E686F550E0D01EF6FAA0EEF6FEF81DF
:102BB0002F6A0E01E987080EE56F020EE66FA60E7A
:102BC000E86F900EE76F9E96400E9A6EA60E9D6E71
:102BD000900E9C6E396A3A6A3B6A0101426B576BF0
:102BE000586B596BA50E5A6F5B6BFD6BFE6B010E3C
:102BF0000301896F8A6B8B6B8C6B8E6B8D6B9C6BFF
:102C0000AB6BAA6BAC6B0401136B146B156B166B7F
:102C1000246F356B346B336B326B376B366B396BC0
:102C2000386B3B6B3A6B3D6B3C6B3E6B3F6B416B68
:102C3000406B0501D26F240ED36FD46BD66BD56B6E
:102C4000D76BDB6BDA6BD96BD86BDF6BDE6BDD6B55
:102C5000DC6BE16BE06BE36BE26BE76BE66BE56B08
:102C6000E46BE86BEC6BEB6BEA6BE96BF06BEF6BB7
:102C7000EE6BED6BF26BF16BF46BF36BF66BF56B6C
:102C8000F86BF76BFA6BF96BFC6BFB6BFE6BFD6B18
:102C90000601006B0501FF6B0601E26BBE0EE36FE0
:102CA000E76BE66BE56BE46BEB6BEA6BE96BE86B90
:102CB000EC6B010EED6FF16BF06BEF6BEE6BF56B88
:102CC000F46BF36BF26BF96BF86BF76BF66BFD6BF8
:102CD000FC6BFB6BFA6BFF6BFE6B0701016B006B10
:102CE000056B046B036B026B0A01276B266B286B69
:102CF0002C6B2B6B2A6B296B050E2D6F2E6B2F6B9C
:102D0000316B306B356B346B336B326B376B366BCF
:102D1000396B386B3B6B3A6B3C6B3D6B010E3E6F16
:102D2000406FF40E3F6FFCC542FAFBC541FA446B9D
:102D3000436B010E456F0B0E466F486B476B4A6B3A
:102D4000496B010E4B6F4C6F4E6B4D6B4F6F0B0E03
:102D5000506F516F090E526F0D0E536F090E546F65
:102D6000556F576B566B596B586B5A6B5C6B5B6B43
:102D7000010E5D6F5E6F5F6F606F616F626F636F9B
:102D8000646F656B0E01926B9A6BA76BAF6BB46B44
:102D9000BC6BD26BD36BD16BD06B0101436B446BBB
:102DA000456B466B476B486B496B4A6B4B6B4C6B87
:102DB0004D6B4E6B4F6B506B516B526B536B546B37
:102DC000556B566B766B776B786B796B7A6B7B6B2D
:102DD0007C6B7D6B7E6B7F6B806B816B826B836B9F
:102DE000846B856B866B876B886B896B8A6B8B6B4F
:102DF0008C6B8D6B8E6B8F6B906B916B926B936BFF
:102E0000946B956B966B976B986B996B9A6B9B6BAE
:102E10009C6B9D6B9E6B9F6BA06BA16BA26BA36B5E
:102E2000A46BA56BA66BA76BA86BA96BAA6BAB6B0E
:102E3000AC6BAD6BAE6BAF6BB06BB16BB26BB36BBE
:102E4000B46BB56BB66BB76BB86BB96BBA6BBB6B6E
:102E5000BC6BBD6BBE6BBF6BC06BC16BC26BC36B1E
:102E6000C46BC56BC66BC76BC86BC96BCA6BCB6BCE
:102E7000CC6BCD6BCE6BCF6BD06BD16BD26BD36B7E
:102E8000D46BD56BD66BD76BD86BD96BDA6BDB6B2E
:102E9000DC6BDD6BDE6BDF6BE06BE16BE26BE36BDE
:102EA000E46BE56BE66BE76BE86BE96BEA6BEB6B8E
:102EB000EC6BED6BEE6BEF6BF06BF16BF26BF36B3E
:102EC000F46BF56BF66BF76BF86BF96BFA6BFB6BEE
:102ED000FC6B03019D6B9E6B9F6BA06BA16BA26B48
:102EE000A36BA46BA56BA66BA76BA86BA96BAD6B53
:102EF000AE6BAF6BB06BB16BB26BB36BB46BB56BEE
:102F0000B66BB76BB86BB96BBA6BBB6BBC6BBD6B9D
:102F1000BE6BBF6BC06BC16BC26BC36BC46BC56B4D
:102F2000C66BC76BC86BC96BCA6BCB6BCC6BCD6BFD
:102F3000CE6BCF6BD06BD16BD26BD36BD46BD56BAD
:102F4000D66BD76BD86BD96BDA6BDB6BDC6BDD6B5D
:102F5000DE6BDF6BE06BE16BE26BE36BE46BE56B0D
:102F6000E66BE76BE86BE96BEA6BEB6BEC6BED6BBD
:102F7000EE6BEF6BF06BF16BF26BF36BF46BF56B6D
:102F8000F66BF76BF86BF96BFA6BFB6BFC6BFD6B1D
:102F9000FE6BFF6B0401006B016B026B036B046B38
:102FA000056B066B076B086B096B0A6B0B6B0C6B85
:102FB0000D6B0E6B0F6B106B116B126B176B186B2D
:102FC000196B1A6B1B6B1C6B1D6B1E6B1F6B206BC5
:102FD000216B226B236B06010D6B0E6B070E0E012E
:102FE0003E6F190E3D6F000175EF05F028EF06F0FA
:102FF0000A0E0A01736F000132EF06F04DEF06F082
:1030000071EF06F0C00EF212070E0501D76F040132
:10301000269926872A8D0E013D5104000101FE5399
:10302000D8A427EF18F0010E0A01746F736900012C
:1030300080EC06F00152D8A403D0010127EF18F06C
:10304000010E0101FE6F0001A1EF07F00101000177
:1030500041EF08F001C042F1010142511108D8B01E
:1030600036EF18F0000176EF09F00101020E0A01B7
:10307000746FC40E736F000180EC06F00152D8B477
:1030800044EF18F09FEF0CF0848A8CBA66EF18F0CA
:103090007CEF0EF003C02CFA02C02BFA01C02AFA12
:1030A00000C029FA0A012953D8A463EF18F02A5363
:1030B000D8A463EF18F02B53D8A463EF18F02C5367
:1030C000D8B465EF18F0010E2E6F00010A015151BE
:1030D0000A08D8A478EF18F05A53D8A478EF18F05B
:1030E0000001BDEF0EF0010E0A015A6F87EF18F0D4
:1030F00051510B08D8A487EF18F05A2D87EF18F01C
:103100000001DFEF0EF00A015A6B87EF18F006019D
:10311000E2518C08D8B08FEF18F0830EE26F010EE9
:103120000501D75DF80FD8B0B8EF18F0080F00010F
:10313000BEEF18F0010E0501D76FB8EF18F00501CA
:10314000B8EF18F00501B8EF18F00501B8EF18F066
:103150000A0151510B08D8A4B4EF18F00001DAEFBE
:1031600012F0B3EF18F00A010501B8EF18F00501ED
:103170000E013D5104000EEF18F00300E824F76A39
:10318000F736970FF66E310EF7220A00F550FA6EF9
:103190000800F550F96E3E31443150316E315031F6
:0631A0006E3134314A31AA
:0200000400F00A
:0400000001020304F2
:020000040030CA
:0C000000FFDF3FFFFFFFFFDFFFFFFFFF00
:00000001FF
;PIC18F66K40
;CRC=8A02  CREATED="09-Mar-21 10:47"
