:0400000063EF21F099
:080008006DEF00F000000000A4
:100010000000000000000000046ED8CF05F0E0CF23
:1000200006F00001E9CF0CF0EACF07F0E1CF08F0CD
:10003000E2CF09F0D9CF0AF0DACF0BF0F3CF12F00C
:10004000F4CF13F0FACF14F0F5CF15F0F6CF16F089
:10005000F7CF17F000C00EF001C00FF002C010F093
:1000600003C011F00E012DAB39EF00F037BBB9EF33
:1000700001F02DA33FEF00F037B34DEF02F029ABB5
:1000800045EF00F033BB10EF01F00EC000F00FC0E1
:1000900001F010C002F011C003F00CC0E9FF07C06E
:1000A000EAFF078E08C0E1FF09C0E2FF0AC0D9FFDE
:1000B0000BC0DAFF12C0F3FF13C0F4FF14C0FAFF45
:1000C00015C0F5FF16C0F6FF17C0F7FF045006C0B5
:1000D000E0FF05C0D8FF100000011A6ED8CF1BF05A
:1000E000E0CF1CF00001E9CF22F0EACF1DF0E1CF14
:1000F0001EF0E2CF1FF0D9CF20F0DACF21F0F3CFFE
:1001000028F0F4CF29F0FACF2AF0F5CF2BF0F6CF74
:100110002CF0F7CF2DF000C024F001C025F002C074
:1001200026F003C027F00E012CAB9AEF00F036BB8F
:10013000E5EF00F024C000F025C001F026C002F079
:1001400027C003F022C0E9FF1DC0EAFF1D8E1EC0BC
:10015000E1FF1FC0E2FF20C0D9FF21C0DAFF28C0A5
:10016000F3FF29C0F4FF2AC0FAFF2BC0F5FF2CC013
:10017000F6FF2DC0F7FF1A501CC0E0FF1BC0D8FFD0
:1001800010000C013051016A2F5D03E22FCC00F00A
:100190000CD0006A080E316F2F3700363051005CEA
:1001A000D8B0006E0136312FF7D7000112000E01D2
:1001B00036ABFED79CCF2FF098CF01F02FA202D004
:1001C0009C989C88000104EF01F000010101DB51C3
:1001D000FF0801E1DB6B010EDC250C012E6F2F6F98
:1001E000C80E306F0001CDDF00C0DCF1036A0101F1
:1001F000DC51130FE96E010E0320EA6EEACF30FCEA
:10020000E9CF2FFC0001D3D730CCEAFF2FCCE9FF98
:1002100001C0EFFF98500E01369B00019AEF00F0ED
:1002200000010501042BD8B4052B055102082BE26F
:10023000FF0A03E10451E70826E2010E0001C72787
:10024000D8B0C82BD8B4C92BD8B4CA2B0501056BBC
:10025000046B062B09511A0803E10A2BD8B40B2BA7
:100260000C2B0C513B080BE20C6BCAC098F0C9C0B8
:1002700097F0C8C096F0C7C095F0140E0D6F0E2F02
:1002800002D0210E0F6F3E50280802E13F2A06D00F
:1002900000018A510D0801E18E2B050100018E51EC
:1002A000020805E28E6B0C0E8A6F290E3E6E8C538F
:1002B00008E13F508B5D05E2150E8D6F290E3E6EF5
:1002C0003F6A0401272D0ED0282BD8B4292B29539F
:1002D00003E128511D0806E2296B286B0201996B86
:1002E0000401276B050106513B0801E2066B000182
:1002F000925319E00501072BD8B4082B0001915146
:100300000501085D11E305E1000190510501075D5C
:100310000BE3010E00018F6F926B0501086B076BF9
:100320000001916B906B05010B5305E10401EA514B
:1003300005010A5D04E3190E096F0B6B0A6BD5A862
:1003400002D0FD0ED46E8F0ED36E0E01339B339B05
:10035000000145EF00F00E0137ABFED7E0CE2FF0E5
:10036000DCCE01F02FA202D0E099E0890001C8EFB5
:1003700001F00001036A070133511F0FE96E070EF8
:100380000320EA6EEACF2AFCE9CF29FC0001E3D77B
:100390002ACCEAFF29CCE9FF01C0EFFF0701332B8C
:1003A0003351130801E2336B0E01DC51379B00011E
:1003B00045EF00F02F6170692F6970707476322FED
:1003C0003F613D257526623D254C7526633D254CD4
:1003D0007526643D257526653D254C7526663D25AB
:1003E0007526673D254C7526683D254C7526693D6B
:1003F000254C75266A3D254C75266B3D254C75268A
:100400006C3D254C75266D3D254C75266E3D254C65
:1004100075266F3D257500000E0137A3FED7EECE81
:100420002FF0EACE01F02FA202D0EE99EE89000162
:1004300012000C0128512A03F3CF01F0F4CF00F091
:100440002B03F350002629512A03F3500020026E9B
:1004500000011200016A026A006A036A0C012A5153
:1004600002E1295118E0100E2B6FD890273728375A
:10047000003603362A51035C02E12951005C07E390
:100480002951005ED8A003062A51035ED8800136A8
:1004900002362B2FEAD70001120000013E50290836
:1004A00020E18A510C081DE10B01EF2B0001B4DFA4
:1004B00001C087FB0B01872D0ED0280E3E6E036A0C
:1004C000EC51880FE96E0B0E0320EA6E87CBEFFF2D
:1004D000EC2BEE6B04D00D0E00018A6F0B0162D085
:1004E00000018A510C085FE197DF01C087FB0B0117
:1004F000EE5313E1010EEE6F8751030803E08751BD
:10050000060806E100018C6B030E8B6F07D00B0110
:100510008751100802E10A0EED6F00010B01ED5149
:100520000A0832E1EC5107082FE1010EEC5D036A85
:10053000880FE96E0B0E0320EA6EEF50090F0C01D5
:10054000276F040E296F100E286F2B6B27CC2AFC07
:1005500000016FDF02C08CF001C08BF08CC028FC62
:100560008BC027FC030E0C012A6FE80E296F0001D7
:1005700071DF02C08CF001C08BF0020E8B27000EE1
:100580008C230B0E0B01ED6F036AEC51880FE96EA3
:100590000B0E0320EA6E87CBEFFFEC2BEC513108FA
:1005A00001E2EC6B00010B01EC51080802E1080EBE
:1005B000EC6F0E01EA513793000145EF00F0900E09
:1005C000D56E430ED66ED5A802D0FD0ED46E8F0E1A
:1005D000D36E0E01339B298B0001BBEF22F00E017D
:1005E000EA512D830001BDEF22F098500E012C8BB3
:1005F0000001BFEF22F00E01DC512D8B0001C1EF95
:1006000022F00B0180698169F76BF7516308D8A06C
:100610007ED0196AF2BE198EF29E0C01296BF7CBBF
:1006200028FC2B6B0B0E2A6F000103DF19BEF28E24
:1006300001C0F8FB060E0B010124016E000E022022
:10064000036E0150340FE96E070E0320EA6EEF6A65
:10065000EC6AEC6AEC6A196AF2BE198EF29E0C0121
:10066000296BF7CB28FC2B6B0B0E2A6F0001E1DE08
:1006700019BEF28E01C0F8FB040E0B010124016EBD
:10068000000E0220036E0150340FE96E070E0320A6
:10069000EA6EEC6AED52EF6A196AF2BE198EF29EAA
:1006A0000C01296BF7CB28FC2B6B0B0E2A6F00017A
:1006B000C0DE19BEF28E340E0B010124E96E070E66
:1006C0000220EA6EEF6AEC6AEC6AEC6A196AF2BE22
:1006D000198EF29E0C01296BF7CB28FC2B6B0B0EAD
:1006E0002A6F0001A6DE19BEF28E01C0F8FB0A0EC9
:1006F0000B010124016E000E0220036E0150340F25
:10070000E96E070E0320EA6EEF6AF72B7ED7000131
:10071000AAEF04F00B01FB6BF2CFFCFBF29EFACBCD
:1007200075FFF9CB74FF779C779E77807650779C26
:10073000778EFCBFF28EFB6FFBCB01F00001120045
:100740000B01F86BFA6B0A0EF96F0001E3DF01C0D1
:10075000F8FB0B01F8CB01F00001B3EF03F00B0144
:10076000F76B0001EDD701C0F7FBF7CB99F0ABEFCA
:1007700004F00B01F76BFA6B0C0EF96F0001CADF86
:1007800001C0F7FB0B01F7CB01F00001ACEF04F067
:100790000C01016B006B036B026BF2CF04FCF29E49
:1007A000FFCB75FFFECB74FF779C779E77807650EA
:1007B000779C778E04BFF28E036B026F02CC01FC34
:1007C000006B0B01FE2BD8B4FF2BF2CF04FCF29E82
:1007D000FFCB75FFFECB74FF779C779E77807650BA
:1007E000779C778E0C0104BFF28E036B026F02516F
:1007F00000130351011300CC01F001CC02F0000101
:1008000012000B01FA6BF96BF86BF76BFC6BFB6B6F
:10081000FD6B110EFD6FFF6BFDCBFEFB0001B8DF22
:1008200002C0FCFB01C0FBFB0B01FA6BF96BFCCBBC
:10083000F8FBFBCBF7FBF8CBFAFBF7CBF9FBF76B3D
:10084000F86B020EFD27FF6BFDCBFEFB0001A0DF66
:1008500002C0FCFB01C0FBFB0B01FE6BFF6BF9CB85
:10086000F9FBFACBFAFB0B01FE51FB11F76FFF51BD
:10087000FC11F86F0B010B011E0EF727000EF82379
:10088000F923FA23F7CB00F0F8CB01F0F9CB02F013
:10089000FACB03F00001AFEF04F00B01F76BFA6B3A
:1008A000160EF96F000136DF01C0F7FB0B01F7CB25
:1008B00001F00001B8EF04F00B01F96BFA6BC30E05
:1008C000F725016E000EF821036EC40EF725E96EC0
:1008D000000EF821EA6EEF68FF0E03C0EAFF01C0C8
:1008E000E9FFEF6EF96BF9510E082DE3FA6BFA513F
:1008F000080827E3196AF2BE198EF29E0C01296BD3
:10090000F9CB28FC2B6B0D0E2A6F000192DD19BE6E
:10091000F28E02C0FCFB01C0FBFB020E0B01FB27A9
:10092000000EFC23FA51FB25016E000EFC21036E24
:100930000150F725E96EF8510320EA6EEF6AFA2BB1
:10094000D6D7F92BD0D7000112007F908790C00E28
:10095000F21257D604D70DD701C0EAF452D703C01C
:10096000CAF002C0C9F001C0C8F000C0C7F095D7F6
:1009700001C0F9F4030E0B01F86F5F0EF76F000171
:100980009BDF020E0B01F86F9A0EF76F000194DFE8
:100990000401C96BC86BCB6BCA6BCF6BCE6BCD6BD5
:1009A000CC6BD16BD06BD56BD46BD36BD26BD96B5B
:1009B000D86BD76BD66BE16BE06B0101F96BFA6B0F
:1009C000FB6BFC6BFD6B0001C3EF22F0016603D0F3
:1009D000026602D007D0022A00C0EEFF012EFCD72B
:1009E000022EFAD71200010EEA6E130EE96EC80E3F
:1009F000006E026A016AEADF0101DB69DC6900015D
:100A0000C5EF22F00A0E0B01F76F0101DB51FF0861
:100A100006E10B01F76BF7CB01F014D00101DB51BC
:100A2000DC5D09E2C80ED880DB55DC25010F0B0127
:100A3000F76F06D00101DB51DC5D010F0B01F76F91
:100A4000F7CB01F00001CBEF22F0C30E0B01FC2528
:100A5000E96E000EFD21EA6EEF50FF0801E138D08B
:100A6000C30EFC25E96E000EFD21EA6EEFCFFEFB02
:100A7000C40EFC25E96E000EFD21EA6EEF50FE5D0E
:100A80000FE1C30EFC25E96E000EFD21EA6EEF6852
:100A9000C40EFC25E96E000EFD21EA6EEF6818D049
:100AA000C30EFC25E96E000EFD21EA6EEF500E0824
:100AB00008E1C30EFC25E96E000EFD21EA6EEF6A27
:100AC00007D0C30EFC25E96E000EFD21EA6EEF2A69
:100AD000000112000B01FB510401375D10E1020E11
:100AE0000B01FD6F9A0EFC6F0001AFDF0401476B35
:100AF000276B296B286B0201996B06D00401276BC9
:100B0000296B286B0201996B000109EF08F00C01B9
:100B1000196B186B1B691A69A00E1D6F010E1C6FF3
:100B20001E6B1F6B206B17511E5D01E134D01E2B15
:100B30001F6B1F5319E11E2D0DD0010E1E5D1525D3
:100B4000E96E000E1621EA6EEF501A19186F1BCCD1
:100B500019FC09D0010E1E5D1525E96E000E162147
:100B6000EA6EEF50181B04D01C51181B1D51191BA5
:100B70000C011F2B1F51080801E20CD01851010B6A
:100B8000206FD89019331833202D02D0D2D701D03E
:100B9000EFD7CFD7C8D718CC01F019CC02F000019D
:100BA00012000C010F6B0F6B0F51080818E3020EB7
:100BB0000F250D25016E000E0E21036E020E0F256E
:100BC0000B25E96E000E0C21EA6EEFCF12FC03C07C
:100BD000EAFF01C0E9FF12CCEFFF0F2BE5D70001C0
:100BE00012000C010451051101E1E1D0C30E0225F0
:100BF000E96E000E0321EA6EEF5209E1C40E0225F0
:100C0000E96E000E0321EA6EEF500E0812E0C40EEA
:100C10000225E96E000E0321EA6EEFCF06FCC30E3B
:100C20000225E96E000E0321EA6E010EEF5C065DFF
:100C300002E1BDD0BCD0C30E0225E96E000E032137
:100C4000EA6EEF50FF083BE1C30E0225E96E000E8D
:100C50000321EA6EEF6AC40E0225E96E000E03213D
:100C6000EA6EEF6AC40E0225E96E000E0321EA6EF9
:100C7000196AF2BE198EF29E296BEFCF28FC2B6BFE
:100C80000D0E2A6F000119EC02F019BEF28E02C09F
:100C900003F001500C010225016E0351032201C033
:100CA00006FC03C007FC05CC0CFC04CC0BFC03C009
:100CB0000EFC01C00DFC000174DF78D00C01C40EE5
:100CC0000225E96E000E0321EA6EEF500E083CE1AA
:100CD000C30E0225E96E000E0321EA6EEF5234E0E6
:100CE000C40E0225E96E000E0321EA6EEF6AC40EFF
:100CF0000225E96E000E0321EA6E196AF2BE198E12
:100D0000F29E296BEFCF28FC2B6B0D0E2A6F000192
:100D100019EC02F019BEF28E02C003F001500C0172
:100D20000225016E0351032201C006FC03C007FC2B
:100D300005CC0CFC04CC0BFC03C00EFC01C00DFC6C
:100D400000012FDF33D00C01C40E0225E96E000E26
:100D50000321EA6EEF2AC40E0225E96E000E03217C
:100D6000EA6E196AF2BE198EF29E296BEFCF28FC4B
:100D70002B6B0D0E2A6F000119EC02F019BEF28EDA
:100D800002C003F001500C010225016E0351032241
:100D900001C006FC03C007FC05CC0CFC04CC0BFC1A
:100DA00003C00EFC01C00DFC0001FBDE0C010001C4
:100DB00012000E0136A9FED7996E00011200DBC1A8
:100DC000F7FB0B01F86BDBC1F9FBFA6BDBC1AEF48F
:100DD000DCC1AFF40401B16BB06B0101DD5334E051
:100DE000010EDB250B01FC6F196AF2BE198EF29E13
:100DF000E8CF2FFCC80E0C01306F0001C1EC00F0F1
:100E000019BEF28E00C0F9FB036A0101DB51130F1A
:100E1000E96E010E0320EA6EEF50A50811E1036AA6
:100E20000B01F951130FE96E010E0320EA6EEF502A
:100E3000A508D8B402D0010103D0010105D003D028
:100E4000F9CBDBF1DD07CAD7DD5301E14FD1DD512D
:100E50000D0848E20E0EDB250B01FC6F196AF2BE8D
:100E6000198EF29EE8CF2FFCC80E0C01306F0001E6
:100E7000C1EC00F019BEF28E00C0FAFB036A01015A
:100E8000DB51130FE96E010E0320EA6EEF50A50847
:100E900027E1036A0B01FA51130FE96E010E0320DB
:100EA000EA6EEF50B50804E101011CD018D00B0127
:100EB000010E0101DB250B01FC6F196AF2BE198ED0
:100EC000F29EE8CF2FFCC80E0C01306F0001C1EC80
:100ED00000F019BEF28E00C0DBF10101DD0701D088
:100EE00005D1B5D7010EDB250B01FC6F196AF2BEE7
:100EF000198EF29EE8CF2FFCC80E0C01306F000156
:100F0000C1EC00F019BEF28E00C0DBF10101DD077B
:100F10000B01F86BF8510C0833E3036AF8512A0F00
:100F2000016E040E032203C0FCFB036A0101DB51C6
:100F3000130FE96E010E0320EA6EEFCFFDFB0B01EC
:100F4000FCCBEAFF01C0E9FFFDCBEFFF010E010181
:100F5000DB250B01FC6F196AF2BE198EF29EE8CFF9
:100F60002FFCC80E0C01306F0001C1EC00F019BE5F
:100F7000F28E00C0DBF10101DD070B01F82BCAD7AF
:100F80000101DD5322E0036ADB51130FE96E010E0C
:100F90000320EA6EEF50A50801E117D0010EDB2512
:100FA0000B01FC6F196AF2BE198EF29EE8CF2FFC7E
:100FB000C80E0C01306F0001C1EC00F019BEF28EBA
:100FC00000C0DBF10101DD07DCD7010EDC250B01E0
:100FD000FC6F196AF2BE198EF29EE8CF2FFCC80E84
:100FE0000C01306F0001C1EC00F019BEF28E00C0A0
:100FF000F9FB0B01F9510101DB5D03E1DC69DCC1A7
:10100000DBF104012B512C0807E12AC4FBFB000192
:1010100061D501016BD004012B51210866E1040E5A
:101020000C01166F2A0E156F0B0E176F00016FDD86
:1010300002C046F401C045F446C4FBFB0B01FC6B47
:10104000040136510B01FB5D4FE1FC534DE146C4F9
:10105000FCFB45C4FBFBFC6B040135510B01FB5D44
:1010600043E1FC5341E12CC4F9F12DC4FAF12EC443
:10107000FBF12FC4FCF130C4FDF131C4FEF132C4E8
:10108000FFF133C400F234C401F2030E0C01036F0C
:101090005F0E026F010E056FF70E046F0001A1DDF8
:1010A0002C0E04012B6FA50E000183DEA50E81DE40
:1010B000A50E7FDE0B01F86BF8510C080FE3036AF5
:1010C000F8512A0FE96E040E0320EA6EEFCFFBFB06
:1010D000FB5100016EDE0B01F82BEED7B50E0001BF
:1010E00068DEB50E66DE0B01040101010001D4EFDC
:1010F00022F00B01F96BC30EF725E96E000EF82103
:10110000EA6EEF50FF0802E1F96B02D0010EF96FB1
:10111000F9CB01F000011200C30E0C010525E96EA8
:10112000000E0621EA6EEF50FF0801E164D0C30E05
:101130000525E96E000E0621EA6E196AF2BE198EC7
:10114000F29E296BEFCF28FC2B6B0D0E2A6F00014E
:1011500019EC02F019BEF28E02C003F001500C012E
:101160000525016E0651032201C009FC03C00AFCDB
:1011700003C00CFC01C00BFC08CC0EFC07CC0DFC22
:1011800000010FDDC30E0C010525E96E000E0621DE
:10119000EA6EEFCF09FCC40E0525E96E000E0621AC
:1011A000EA6EEF50095D0FE1C30E0525E96E000EF2
:1011B0000621EA6EEF68C40E0525E96E000E0621D1
:1011C000EA6EEF6818D0C30E0525E96E000E062101
:1011D000EA6EEF500E0808E1C30E0525E96E000E19
:1011E0000621EA6EEF6A07D0C30E0525E96E000EF0
:1011F0000621EA6EEF2A0001ACEF09F00B018051E5
:10120000FF0801E1806B010E81250C01066F196A50
:10121000F2BE198EF29E2F6F640E306F0001C1EC8A
:1012200000F019BEF28E00C081FB196AF2BE198E61
:10123000F29E0C01296B81CB28FC2B6B0B0E2A6FC5
:10124000000119EC02F019BEF28E01C005FC040E7B
:101250000C010124016E000E0220036E0150340FB8
:10126000E96E070E0320EA6E17C7ECFFED5216C7B2
:10127000EFFF196AF2BE198EF29E296B81CB28FC12
:101280002B6B0B0E2A6F000119EC02F019BEF28EC7
:1012900001C005FC060E0C010124016E000E0220A7
:1012A000036E0150340FE96E070E0320EA6E12C779
:1012B000EFFF13C7ECFF14C7ECFF15C7ECFF196A6B
:1012C000F2BE198EF29E296B81CB28FC2B6B0B0E84
:1012D0002A6F000119EC02F019BEF28E01C005FC64
:1012E0000A0E0C010124016E000E0220036E015053
:1012F000340FE96E070E0320EA6E18C7EFFF196A74
:10130000F2BE198EF29E296B81CB28FC2B6B0B0E43
:101310002A6F000119EC02F019BEF28E340E0C0196
:101320000124E96E070E0220EA6E1AC7EFFF1BC701
:10133000ECFF1CC7ECFF1DC7ECFF0001BEEF0AF07D
:101340000C01046B030E066F5F0E056F0B0E086F2A
:10135000F70E076F0001E0D60B01F951680A000192
:101360001FE00E0A4EE00F0A4EE0EF0A4EE0F60ACA
:10137000D8B474D0010AD8B473D0F20AD8B472D0F9
:10138000040AD8B471D0030AD8B497D0130AD8B4D9
:10139000FCD00E0AD8B4FED0030AD8B400D104D1D0
:1013A000010E0C01046F045108081AE3010E045DDC
:1013B000036AF30F016E000E032203C006FC036AEA
:1013C0000451F90FE96E0B0E0320EA6EEFCF07FC14
:1013D00006CCEAFF01C0E9FF07CCEFFF042BE3D7FF
:1013E000F6C0C3F4F5C0C2F4F4C0C1F4F3C0C0F455
:1013F000FAC0C7F4F9C0C6F4F8C0C5F4F7C0C4F425
:10140000D4D00C01D2D00C01D0D0010E0C01046F4D
:10141000045108081AE3010E045D036ADF0F016E30
:10142000000E032203C006FC036A0451F90FE96EA3
:101430000B0E0320EA6EEFCF07FC06CCEAFF01C0DB
:10144000E9FF07CCEFFF042BE3D70401D96BD86B7E
:10145000E4C0D7F4E3C0D6F40C01A7D00C01A5D0AA
:101460000C01A3D00C01A1D0010E0C01046F04519A
:1014700008081AE3010E045D036AFB0F016E000EFB
:10148000032203C006FC036A0451F90FE96E0B0E38
:101490000320EA6EEFCF07FC06CCEAFF01C0E9FFAC
:1014A00007CCEFFF042BE3D7FEC0D5F4FDC0D4F486
:1014B000FCC0D3F4FBC0D2F478D0010E0C01046F51
:1014C000045108081AE3010E045D036AD70F016E88
:1014D000000E032203C006FC036A0451F90FE96EF3
:1014E0000B0E0320EA6EEFCF07FC06CCEAFF01C02B
:1014F000E9FF07CCEFFF042BE3D7DAC015F7D9C01B
:1015000014F7D8C013F7D7C012F715C7CFF414C714
:10151000CEF413C7CDF412C7CCF4DCC0C9F4DBC0E1
:10152000C8F4C9C485FBC8C484FBDEC0D1F4DDC0E7
:10153000D0F40B01845302E1855325E08451825D90
:1015400003E18551835D1FE0C9C417F7C8C416F7CE
:10155000CFC415F7CEC414F7CDC413F7CCC412F71B
:10156000D1C419F7D0C418F7CAC01DF7C9C01CF7F9
:10157000C8C01BF7C7C01AF7000140D685CB83FB54
:1015800084CB82FB0B010C0110D0010E0401E76F2C
:101590000C010BD0010E0401F86F0C0106D0040100
:1015A000F86B0C0102D000010C010001E1EF22F008
:1015B000C30E0B01F825E96E000EF921EA6EEF501B
:1015C000FF0801E12ED0C30EF825E96E000EF921C7
:1015D000EA6E196AF2BE198EF29E0C01296BEFCFEA
:1015E00028FC2B6B0D0E2A6F000119EC02F019BEBE
:1015F000F28E02C003F001500B01F825016EF95183
:10160000032201C0FCFB03C0FDFB03C00CFC01C0B6
:101610000BFCFBCB0EFCFACB0DFC0001D1EC05F072
:101620000B01000141EF0BF00B01F76B0401475177
:1016300009080DE2476B020E0B01FD6F9A0EFC6F5D
:10164000000125EC05F00201996B81D00401472BC4
:101650000B01F76BF75108080AE3036AF751060F0D
:10166000E96E020E0320EA6EEF6AF72BF3D7020E43
:10167000F96F9A0EF86F020EFB6F040EFA6F0001FD
:1016800097D70401472D05D0373D02D0376B01D0E5
:10169000372B37C404F237C438F4210E396F06C231
:1016A0003AF407C23BF408C23CF409C23DF40AC252
:1016B0003EF40BC23FF40CC240F40DC241F40EC222
:1016C00042F4040E0C01166F380E156F0B0E176FD7
:1016D000000187EC05F002C046F401C045F446C4A1
:1016E000F9FB45C443F4040146C444F40401A50EC7
:1016F0000001D9EC06F0A50ED9EC06F0A50ED9EC48
:1017000006F00B01F76BF7510C0810E3036AF75171
:10171000380FE96E040E0320EA6EEFCFF8FBF851A4
:101720000001D9EC06F00B01F72BEDD7B50E000147
:10173000D9EC06F0B50ED9EC06F00400070E006EE9
:10174000002EFED700D0010E0401276F0201000118
:10175000F6EF22F00B0EEA6E880EE96E006A026A5E
:10176000320E016EE6EC04F00B01EC6B000112008E
:101770000C0EEA6E150EE96EEF5011E0060E016ECA
:10178000BF0E006E0400002EFDD7012EF9D77A0E91
:10179000006E002EFED700D00400EF2EEFD712000F
:1017A0000E0137A1FED7EB6F000112000C010E6B8A
:1017B0000D6B106B0F6B116B126B146B136B036A59
:1017C0001251BA0FE96E0B0E0320EA6E010EEF6E96
:1017D000122B04510908D8A4AAD00551030A00010C
:1017E00001E0A3D0036A0C011251BA0FE96E0B0E8F
:1017F0000320EA6E030EEF6E122B0851020827E158
:10180000036A1251BA0FE96E0B0E0320EA6E08CC80
:10181000EFFF122B0ACC14FC09CC13FC036A125103
:10182000BA0FE96E0B0E0320EA6E14CC00F000C074
:10183000EFFF122B036A1251BA0FE96E0B0E032051
:10184000EA6E13CC00F000C0EFFF122B46D0085117
:10185000040843E1036A1251BA0FE96E0B0E03202C
:10186000EA6E08CCEFFF122B0ACC14FC09CC13FC57
:10187000036A1251BA0FE96E0B0E0320EA6E14CC04
:1018800000F000C0EFFF122B036A1251BA0FE96E8D
:101890000B0E0320EA6E13CC00F000C0EFFF122BFA
:1018A0000BCC13FC0CCC14FC036A036A1251BA0F64
:1018B000E96E0B0E0320EA6E14CC00F000C0EFFFBF
:1018C000122B036A1251BA0FE96E0B0E0320EA6E57
:1018D00013CC00F000C0EFFF122B0B0E166FBA0EE8
:1018E000156F12CC17FC000187EC05F002C010FC4C
:1018F00001C00FFC036A0C011251BA0FE96E0B0E06
:101900000320EA6E0FCC00F000C0EFFF122B036A39
:101910001251BA0FE96E0B0E0320EA6E10CC00F0E4
:1019200000C0EFFF122B02D000010C0184D0055142
:10193000060A000103E0160A14E07BD00B0EEA6EE3
:10194000BA0EE96E0B0EE26E880EE16E0B01EC51E1
:10195000016E04E0E6CFEEFF012EFCD7ECCB12FCCB
:1019600069D0036A0C011251BA0FE96E0B0E032005
:10197000EA6E05CCEFFF122B036A1251BA0FE96E23
:101980000B0E0320EA6E07CC00F000C0EFFF122B15
:10199000036A1251BA0FE96E0B0E0320EA6E06CCF1
:1019A00000F000C0EFFF122BD89008310E6B0D6FC6
:1019B000036A1251BA0FE96E0B0E0320EA6E0ECCC9
:1019C00000F000C0EFFF122B036A1251BA0FE96E4C
:1019D0000B0E0320EA6E0DCC00F000C0EFFF122BBF
:1019E0000B0E166FBA0E156F060E176F000187ECFF
:1019F00005F002C010FC01C00FFC036A0C0112517B
:101A0000BA0FE96E0B0E0320EA6E0FCC00F000C097
:101A1000EFFF122B036A1251BA0FE96E0B0E03206F
:101A2000EA6E10CC00F000C0EFFF122B0B0102D0C9
:101A300000010B010C017F808790020E156F0001E1
:101A400097DE0C01116B1251115D0FE2036A115107
:101A5000BA0FE96E0B0E0320EA6EEFCF15FC15519D
:101A600000019EDE0C01112BEED7030E156F000155
:101A70007FDE7F90879012000C01076B086B0A6B6A
:101A8000096B036A0851BA0FE96E0B0E0320EA6E68
:101A9000010EEF6E082B036A0851BA0FE96E0B0EA8
:101AA0000320EA6E030EEF6E082B036A0851BA0F8B
:101AB000E96E0B0E0320EA6E06CCEFFF082B036ADB
:101AC0000851BA0FE96E0B0E0320EA6EC9C400F08C
:101AD00000C0EFFF082B036A0851BA0FE96E0B0E26
:101AE0000320EA6EC9C40EFCC8C400F000C0EFFFBA
:101AF000082B036A0851BA0FE96E0B0E0320EA6E39
:101B0000EF6A082B036A0851BA0FE96E0B0E032027
:101B1000EA6EEF6A082BCDC4F5FBCCC4F4FB006A77
:101B2000016A01C0F3FB00C0F2FBF4CBF0FBF5CB84
:101B3000F1FB036A036A0851BA0FE96E0B0E03202A
:101B4000EA6EF1CB00F000C0EFFF082B036A0851EA
:101B5000BA0FE96E0B0E0320EA6EF1CB0EFCF0CB50
:101B600000F000C0EFFF082BCEC4F0FBCFC4F1FBA8
:101B7000036A036A0851BA0FE96E0B0E0320EA6E7E
:101B8000F1CB00F000C0EFFF082B036A0851BA0F39
:101B9000E96E0B0E0320EA6EF1CB0EFCF0CB00F0E9
:101BA00000C0EFFF082B036A0851BA0FE96E0B0E55
:101BB0000320EA6ED1C400F000C0EFFF082B036AD7
:101BC0000851BA0FE96E0B0E0320EA6ED1C40EFC69
:101BD000D0C400F000C0EFFF082B036A0851BA0F11
:101BE000E96E0B0E0320EA6EEF6A082B036A0851B8
:101BF000BA0FE96E0B0E0320EA6EEF6A082BD3C40E
:101C0000F5FBD2C4F4FB006A016A01C0F3FB00C01B
:101C1000F2FBF4CBF0FBF5CBF1FB036A036A08514E
:101C2000BA0FE96E0B0E0320EA6EF1CB00F000C094
:101C3000EFFF082B036A0851BA0FE96E0B0E032061
:101C4000EA6EF1CB0EFCF0CB00F000C0EFFF082BEA
:101C5000D4C4F0FBD5C4F1FB036A036A0851BA0F80
:101C6000E96E0B0E0320EA6EF1CB00F000C0EFFF2F
:101C7000082B036A0851BA0FE96E0B0E0320EA6EB7
:101C8000F1CB0EFCF0CB00F000C0EFFF082BD7C467
:101C9000F5FBD6C4F4FB006A016A01C0F3FB00C087
:101CA000F2FBF4CBF0FBF5CBF1FB036A036A0851BE
:101CB000BA0FE96E0B0E0320EA6EF1CB00F000C004
:101CC000EFFF082B036A0851BA0FE96E0B0E0320D1
:101CD000EA6EF1CB0EFCF0CB00F000C0EFFF082B5A
:101CE000D8C4F0FBD9C4F1FB036A036A0851BA0FE8
:101CF000E96E0B0E0320EA6EF1CB00F000C0EFFF9F
:101D0000082B036A0851BA0FE96E0B0E0320EA6E26
:101D1000F1CB0EFCF0CB00F000C0EFFF082B0B0E58
:101D2000166FBA0E156F08CC17FC000187EC05F092
:101D300002C00AFC01C009FC036A0C010851BA0F79
:101D4000E96E0B0E0320EA6E09CC00F000C0EFFF35
:101D5000082B036A0851BA0FE96E0B0E0320EA6ED6
:101D60000ACC00F000C0EFFF082B7F808790020EA6
:101D7000156F0001FDDC0C01076B0851075D0FE2D8
:101D8000036A0751BA0FE96E0B0E0320EA6EEFCF1C
:101D90000BFC0B51000104DD0C01072BEED7030EE9
:101DA000156F0001E5DC7F90879006EF16F0F2508A
:101DB000006EF29E04CC75FF03CC74FF05CC76FF59
:101DC000779C779E77840F01550E786EAA0E786EF9
:101DD000778277B2FED77794779C778E0050F21295
:101DE000000112000C01046B0A0E036F02CC05FC0B
:101DF0000001DDDFA7EF1BF00C01046B0C0E036F7D
:101E000002CC05FC0001D3DFA7EF1BF00C01046B33
:101E1000160E036F02CC05FC0001C9DFA7EF1BF013
:101E20000C01196B1A6B010E1B6FDA6AD96A0C0E62
:101E30001E6F110E1D6F0C0EEA6E150EE96E1ECC94
:101E4000E2FF1DCCE1FF1BCC1CFCD890E550EE025C
:101E5000F3501923F4501A231C2FF7D719CCDEFFA7
:101E60001ACC19FC1A6BD8B01A2B1D2BD8B41E2B08
:101E70001B2B1B510508DFE1000112006C0E0C0149
:101E80000D250F6F070E0E21106F196AF2BE198E05
:101E9000F29E286F0FCC27FC010E2A6F900E296F3F
:101EA00000012AEC02F019BEF28E00C00FFC0C01FA
:101EB00003C010FC0F5302E110532BE06C0E0D25F4
:101EC0000F6F070E0E21106F030E0F17106B0F53BD
:101ED00024E1105322E16C0E0D250F6F070E0E2129
:101EE000106F196AF2BE198EF29E286F0FCC27FC74
:101EF0002A6B640E296F00012AEC02F019BEF28EE3
:101F000000C00FFC0C0103C010FC0F5302E1105382
:101F100004E0010E016E03D002D0000E016E00013C
:101F200012000C01126B1051000A000117E0020AA6
:101F300015E0060A13E0020A11E0010A0FE00E0A9A
:101F40000DE0020A0BE00A0A0DE0020A14E0060A9C
:101F500012E00D0A10E0020A0EE012D01F0E0C0172
:101F6000126F0FD00C01115303E01D0E126F02D03F
:101F70001C0E126F06D01E0E0C01126F02D0000153
:101F80000C0112CC01F000011200D8B204D00C0EEA
:101F9000EA6E210EE96E0C011C512019800B266F90
:101FA0001CAF0BD0191F1A1F1B1F1C1F192BD8B4D5
:101FB0001A2BD8B41B2BD8B41C2B20AF0BD01D1F51
:101FC0001E1F1F1F201F1D2BD8B41E2BD8B41F2B64
:101FD000D8B4202B006A016A026A036A216B226B63
:101FE000236B246B20511F111E111D112CE0200E9C
:101FF000256FD89019371A371B371C3721372237EE
:10200000233724372051245D08E11F51235D05E16A
:102010001E51225D02E11D51215D0FE31D51215F23
:102020001E51D8A01E3D225F1F51D8A01F3D235F27
:102030002051D8A0203D245FD880003601360236DA
:102040000336252FD6D726AF0BD0001E011E021E49
:10205000031E002AD8B4012AD8B4022AD8B4032A0D
:1020600021CCEFFF22CCECFF23CCECFF24CCECFF07
:10207000000112000C01076B066B056B046B0891E5
:102080000A6B096B025303E10353D8B466D202CC46
:10209000E9FF03CCEAFFEF500427000E05230623D7
:1020A0000723010E0225E96E000E0321EA6EEF50B0
:1020B0000E6B0D6B0C6B0B6FEACF10FCE9CF0FFCB6
:1020C0000ECC14FC0DCC13FC0CCC12FC116F186B55
:1020D000176B166B3C0E156F0001A2DE10CCEAFFE9
:1020E0000FCCE9FF00500C010427015005230250DA
:1020F000062303500723020E0225E96E000E03217A
:10210000EA6EEF500E6B0D6B0C6B0B6FEACF10FC91
:10211000E9CF0FFC0ECC14FC0DCC13FC0CCC12FC44
:10212000116F186B176B0E0E166F100E156F0001E6
:1021300077DE10CCEAFF0FCCE9FF00500C0104273A
:10214000015005230250062303500723050E0225E4
:10215000E96E000E0321EA6EECCF0EFCED52EFCFDC
:102160000DFC00018BDE0C01089101B00881040E0A
:102170000225E96E000E0321EA6E196AF2BE198E7D
:10218000F29EEFCF2FFC0C0E306F0001C1EC00F07F
:1021900019BEF28E00C0EFFF0C010A6B010E096F31
:1021A000040E0225E96E000E0321EA6EEF500A5379
:1021B00036E1095D01E033E2010E095D0B6F000EAF
:1021C0000A590C6F000E08B1010E0D6F0BCC10FCFC
:1021D000116F0001A6DEEACF0DFCE9CF0CFC0C016B
:1021E000146B136B126B01C011FC186B010E176F8F
:1021F000510E166F800E156F000112DE0DCCEAFF36
:102200000CCCE9FF00500C010427015005230250BB
:10221000062303500723092BD8B40A2BC1D7030E7A
:102220000225016E000E0321036E01C00BFC0C6F32
:10223000EA6E01C0E9FFEFCF0DFC040E0225E96E46
:10224000000E0321EA6EEFCF10FC000E08B1010E64
:102250000F6F116F000165DE196AF2BE198EF29ED2
:102260000DCC2FFC01C030FCC1EC00F019BEF28E89
:102270000C010CCCEAFF0BCCE9FF00C0EFFF030E12
:102280000225E96E000E0321EA6EEACF0DFCE9CFCC
:102290000CFC146B136B126BEFCF11FC186B010E5F
:1022A000176F510E166F800E156F0001B9DD0DCC42
:1022B000EAFF0CCCE9FF00500C0104270150052374
:1022C000025006230350072308A154D0080E02250C
:1022D000016E000E0321036E01C00BFC0C6FEACFF0
:1022E0000EFCE9CF0DFCD89207CC1CFC06CC1BFCE5
:1022F00005CC1AFC04CC19FC206B010E1F6F510E8B
:102300001E6F800E1D6F000140DE0ECCEAFF0DCC6B
:10231000E9FF03C012FC02C011FC01C010FC00C0A8
:102320000FFCD8820C0EEA6E150EE96E03C01CFC81
:1023300002C01BFC01C01AFC00C019FC0C01206B80
:102340001F6B010E1E6F6E0E1D6F00011EDE15CC81
:1023500000F016CC01F017CC02F018CC03F00CCC36
:10236000EAFF0BCCE9FF01C0ECFFED5200C0EFFF2C
:1023700053D00C01080E0225016E000E0321036EDE
:1023800001C00BFC0C6FEACF0EFCE9CF0DFCD8921C
:1023900007CC1CFC06CC1BFC05CC1AFC04CC19FC9D
:1023A000206B010E1F6F510E1E6F800E1D6F0001FE
:1023B000ECDD0ECCEAFF0DCCE9FF03C012FC02C03D
:1023C00011FC01C010FC00C00FFCD8820C0EEA6E9C
:1023D000150EE96E03C01CFC02C01BFC01C01AFCF8
:1023E00000C019FC0C01206B1F6B010E1E6F6D0EDF
:1023F0001D6F0001CADD15CC00F016CC01F017CC22
:1024000002F018CC03F00CCCEAFF0BCCE9FF01C0C2
:10241000ECFFED5200C0EFFF070E0C010A6FB20E89
:10242000096F050E0225E96E000E0321EA6EECCF5E
:102430000CFCED52EFCF0BFCB20E0B5F070E0C5BEA
:10244000050E0225E96E000E0321EA6EECCF03F0C3
:10245000ED52EFCF01F00A51035C23E303E1015099
:10246000095D1FE20ACC0EFC09CC0DFC000106DD63
:102470000C01089101B0088108A107D0850E05273D
:10248000E20E0623010E072308D0800E0427330E28
:102490000523E10E0623010E0723092BD8B40A2BCE
:1024A000CFD7580E045F4D0E055B000E065B075B31
:1024B000070E0225016E000E0321036E01C00BFC06
:1024C0000C6FEACF0EFCE9CF0DFCD89207CC1CFCB8
:1024D00006CC1BFC05CC1AFC04CC19FC206B010EAD
:1024E0001F6F510E1E6F800E1D6F00014EDD0ECC52
:1024F000EAFF0DCCE9FF03C012FC02C011FC01C0D1
:1025000010FC00C00FFC040E0C010F27000E10235E
:1025100011231223D8820C0EEA6E150EE96E12CC2E
:102520001CFC11CC1BFC10CC1AFC0FCC19FC206B32
:102530001F6B1E6B070E1D6F000127DD15CC00F011
:1025400016CC01F017CC02F018CC03F00CCCEAFF4B
:102550000BCCE9FF00C0EFFF0C0104CC00F005CC70
:1025600001F006CC02F007CC03F0000116EF1CF0DE
:102570000C0108910893025303E10353D8B4F0D13E
:1025800003CC03F002CCE9FF03C0EAFFEFCF04FC69
:10259000ECCF05FCECCF06FCECCF07FCD89207CCC7
:1025A0001CFC06CC1BFC05CC1AFC04CC19FC206BD3
:1025B000010E1F6F510E1E6F800E1D6F0001E5DCB6
:1025C00003C00CFC02C00BFC01C00AFC00C009FCEB
:1025D000040E0C010927000E0A230B230C23D882BA
:1025E0000C0EEA6E0D0EE96E0CCC1CFC0BCC1BFC29
:1025F0000ACC1AFC09CC19FC206B1F6B1E6B070E52
:102600001D6F0001C2DC0DCC3BF00ECC01F00FCCF5
:1026100002F010CC03F03A6A460E396E0C0108B194
:1026200073D007BF0BD00751010823E307E1065120
:10263000E2081FE303E1055184081BE308A319D056
:10264000D89207CC1CFC06CC1BFC05CC1AFC04CC95
:1026500019FC206B010E1F6F510E1E6F800E1D6F37
:10266000000193DC01C03DF000C03CF00C014CD0F7
:1026700029D007BF0FD00751010824E30BE1065111
:10268000E10820E307E1055133081CE303E10451AD
:102690007F0818E3D89207CC1CFC06CC1BFC05CCA9
:1026A0001AFC04CC19FC206B010E1F6F510E1E6F1B
:1026B000800E1D6F000169DC01C03DF000C03CF0E0
:1026C0000C0122D008A309D0000E045F850E055B23
:1026D000E20E065B010E075B08D0800E045F330E2E
:1026E000055BE10E065B010E075B392AD8B43A2A76
:1026F0003AC00EFC39C00DFC00013EEC0FF00C019D
:10270000089301B008838BD7386A08B196D0000EC1
:1027100008B3010E096F38C010FC116F000101DC15
:10272000EACF0BFCE9CF0AFC0C01146B136B126BA4
:1027300001C011FC186B010E176F510E166F800E41
:10274000156F000110EC0FF00BCCEAFF0ACCE9FF8B
:102750000C0107BF0FD00751035C0EE30BE10651DC
:10276000025C0AE307E10551015C06E303E1005066
:10277000045D02E262D060D0000E08B3010E096F62
:1027800038C010FC116F000191EC0FF0EACF0BFC88
:10279000E9CF0AFC0C01146B136B126B01C011FC26
:1027A000186B010E176F510E166F800E156F00011A
:1027B00010EC0FF00BCCEAFF0ACCE9FF0C0107BFCD
:1027C0003BD00350075D38E30BE10250065D34E374
:1027D00007E10150055D30E303E10050045D2CE3A7
:1027E000000E08B3010E096F38C010FC116F000114
:1027F00091EC0FF0EACF0BFCE9CF0AFC0C01146B53
:10280000136B126B01C011FC186B010E176F510E88
:10281000166F800E156F000110EC0FF00BCCEAFF65
:102820000ACCE9FF00500C01045F0150055B025027
:10283000065B0350075B382A68D7D89207CC1CFC8C
:1028400006CC1BFC05CC1AFC04CC19FC206B010E39
:102850001F6F510E1E6F800E1D6F0001C5EC0FF033
:1028600000C037F00C01146B136B126B37C011FCF6
:10287000186B010E176F510E166F800E156F000149
:1028800010EC0FF000500C01045F0150055B02508A
:10289000065B0350075BD89207CC1CFC06CC1BFCE4
:1028A00005CC1AFC04CC19FC206B1F6B0E0E1E6F9E
:1028B000100E1D6F0001C5EC0FF000C036F00C01CA
:1028C0000C6B0B6B0A6B36C009FC0CCC14FC0BCCEC
:1028D00013FC0ACC12FC36C011FC186B176B0E0EE1
:1028E000166F100E156F000110EC0FF000500C0168
:1028F000045F0150055B0250065B0350075BD892F2
:1029000007CC1CFC06CC1BFC05CC1AFC04CC19FC27
:10291000206B1F6B1E6B3C0E1D6F0001C5EC0FF092
:1029200000C035F00C010A6B35C009FC196AF2BE13
:10293000198EF29E0ACC29FC35C028FC2B6B3C0E6C
:102940002A6F000119EC02F019BEF28E01500C0141
:10295000045F0250055B000E065B075B04CC34F09D
:10296000340E016E000E026E000125EF1CF09B6B11
:10297000FCC49AF09D6BFDC49CF0FEC49EF0A06B5D
:10298000FFC49FF000C5A1F0AB6BAA6BAD6BAC6B45
:10299000AF6BAE6B81EF1DF00B01F86BF76BF96B52
:1029A000FB6BFA6BFD6BFC6BFE6BFF6B0C01006B42
:1029B000060E016F020E0B01EC5D0C01026F0B0E97
:1029C000166F880E156F02CC17FC000187EC05F01E
:1029D00002C0F8FB01C0F7FBF8CB02FC0C01036B53
:1029E000010E0B01EC5D036A880FE96E0B0E0320EC
:1029F000EA6EEF500C01025D1BE1035319E1F8CBC5
:102A000003FCF7CB02FC036B020E0B01EC5D036AC7
:102A1000880FE96E0B0E0320EA6EEF500C01025D89
:102A200007E1035305E1010E0B01F96F05D00C011D
:102A30000001AAEC0BF00B01F953D8B483EF1DF0A1
:102A40008951010A00010BE0020A0BE0050AD8B423
:102A5000FBD1160AD8B4A8EF1BF082EF1DF082EF6D
:102A60001DF00B01FB6B8ACBFAFBFACBFBFB0B01D6
:102A7000FA6B0B018B51FA13FA51006EFB51036E86
:102A8000020E035C05E1960E005C000148E00B01BC
:102A9000020E035C06E1980E005C0001D8B46AD017
:102AA0000B01050E035C06E1600E005C0001D8B46A
:102AB0008CD00B01050E035C06E1620E005C000188
:102AC000D8B4C4D00B01050E035C06E1660E005CB1
:102AD0000001D8B4E6D00B01050E035C06E1680ED8
:102AE000005C0001D8B408D10B01050E035C06E1BF
:102AF000640E005C0001D8B42AD10B01035006E13A
:102B0000880E005C0001D8B44BD10B01035006E1E4
:102B1000650E005C0001D8B46BD10B0192D10B01A2
:102B2000FD6B8CCBFCFBFCCBFDFB0B01FC6B0B01B1
:102B30008D51FC13D890FC350C01026F0B01FD3553
:102B40000C01036F090E046F030E056FFBCB07FC2E
:102B5000FACB06FC02CC08FCC3C40CFCC2C40BFCC0
:102B6000C1C40AFCC0C409FC0001D6EC0BF0AAECFD
:102B70000BF068D10B01FD6B8CCBFCFBFCCBFDFBA0
:102B80000B01FC6B0B018D51FC13D890FC350C0133
:102B9000026F0B01FD350C01036F090E046F030E6C
:102BA000056FFBCB07FCFACB06FC02CC08FCC7C4C4
:102BB0000CFCC6C40BFCC5C40AFCC4C409FC00015F
:102BC000D6EC0BF0AAEC0BF03DD10B01FD6B8CCBDE
:102BD000FCFBFCCBFDFB0B01FC6B0B018D51FC13D3
:102BE000FD5303E1FC51010813E2D890FC350C01C0
:102BF000026F0B01FD350C01036FFBCB05FCFACB1B
:102C000004FC02CC06FC00013CEF0DF01CD00B01D3
:102C1000D890FC350C01026F0B01FD350C01036FE0
:102C2000090E046F030E056FFBCB07FCFACB06FC05
:102C300002CC08FC0C6B0B6BC9C40AFCC8C409FCB1
:102C40000001D6EC0BF0AAEC0BF0FCD00B01FD6BF5
:102C50008CCBFCFBFCCBFDFB0B01FC6B0B018D510A
:102C6000FC13D890FC350C01026F0B01FD350C01F3
:102C7000036F090E046F030E056FFBCB07FCFACB45
:102C800006FC02CC08FCCFC40CFCCEC40BFCCDC4AB
:102C90000AFCCCC409FC0001D6EC0BF0AAEC0BF04A
:102CA000D1D00B01FD6B8CCBFCFBFCCBFDFB0B01F6
:102CB000FC6B0B018D51FC13D890FC350C01026F9D
:102CC0000B01FD350C01036F090E046F030E056F38
:102CD000FBCB07FCFACB06FC02CC08FCD5C40CFCF1
:102CE000D4C40BFCD3C40AFCD2C409FC0001D6EC4A
:102CF0000BF0AAEC0BF0A6D00B01FD6B8CCBFCFB10
:102D0000FCCBFDFB0B01FC6B0B018D51FC13D89030
:102D1000FC350C01026F0B01FD350C01036F090E30
:102D2000046F030E056FFBCB07FCFACB06FC02CC4D
:102D300008FCD9C40CFCD8C40BFCD7C40AFCD6C40C
:102D400009FC0001D6EC0BF0AAEC0BF07BD00B01D8
:102D5000FD6B8CCBFCFBFCCBFDFB0B01FC6B0B017F
:102D60008D51FC13D890FC350C01026F0B01FD3521
:102D70000C01036F090E046F030E056FFBCB07FCFC
:102D8000FACB06FC02CC08FC0C6B0B6BD1C40AFC22
:102D9000D0C409FC0001D6EC0BF0AAEC0BF052D029
:102DA0000B01FD6B8CCBFCFBFCCBFDFB0B01FC6B2F
:102DB0000B018D51FC13D890FC350C01026F0B01F7
:102DC000FD350C01036F090E046F030E056FFBCB7D
:102DD00007FCFACB06FC02CC08FC0C6B0B6B0A6BF5
:102DE000E7C409FC0001D6EC0BF0AAEC0BF02AD0EA
:102DF0000B01FD6B8CCBFCFBFCCBFDFB0B01FC6BDF
:102E00000B018D51FC13D890FC350C01026F0B01A6
:102E1000FD350C01036F090E046F030E056FFBCB2C
:102E200007FCFACB06FC02CC08FC0C6B0B6B0A6BA4
:102E3000F8C409FC0001D6EC0BF0AAEC0BF002D0B0
:102E40000B01000182EF1DF00B01FB6B8ACBFAFB3B
:102E5000FACBFBFB0B01FA6B0B018B51FA13FA5106
:102E6000006EFB51036E020E035C06E1820E005CF5
:102E70000001D8B47ED00B01035006E1050E005CC2
:102E80000001D8B4D0D00B01020E035C06E1990E0C
:102E9000005C0001D8B458D10B01050E035C06E1BB
:102EA000520E005C0001D8B495D10B01050E035CF5
:102EB00006E1540E005C0001D8B4B3D10B010350FD
:102EC00006E1990E005C0001D8B405D20B01035055
:102ED00006E1890E005C0001D8B430D20B0103502A
:102EE00006E1900E005C0001D8B43ED20B01035005
:102EF00006E1540E005C0001D8B452D20B0103501D
:102F000006E1580E005C0001D8B464D20B010350F6
:102F100006E1590E005C0001D8B4B6D20B01035093
:102F200006E1600E005C0001D8B409D30B01035028
:102F300006E1620E005C0001D8B45CD30B010350C3
:102F400006E1630E005C0001D8B46AD30B010350A4
:102F500006E1640E005C0001D8B483D30B0103507A
:102F600006E1660E005C0001D8B495D30B01A6EF14
:102F70001BF00401E46B8CCBE3F4E3C4E4F4040140
:102F8000E36B04010B018D510401E3130A0E0C01E4
:102F9000046F060E056FFBCB07FCFACB06FC086B33
:102FA0000C6B0B6B0A6B096B0001D6EC0BF0AAECF7
:102FB0000BF06C0E0201066FE4C404F1E3C403F1EC
:102FC0000101066B056B010E0B01FE6FFE51080837
:102FD0001DE3036AFE51060F016E020E032203C0B9
:102FE00003FC010E0B01FE5D036A030FE96E010E87
:102FF0000320EA6EEFCF04FC0C0103CCEAFF01C012
:10300000E9FF04CCEFFF0B01FE2BE0D7020E0C0111
:10301000036F9A0E026F020E056F040E046F00011B
:10302000F1EC05F094D30401E16B8CCBE0F4E0C447
:10303000E1F40401E06B04010B018D510401E01384
:103040000A0E0C01046F060E056FFBCB07FCFACBD2
:1030500006FC086B0C6B0B6B0A6B096B0001D6EC62
:103060000BF0AAEC0BF00401E051006EE151036E8D
:10307000035004E1005200012CE00401035005E17B
:10308000010E005C000129E00401035005E1020E7D
:10309000005C000126E00401035005E1030E005C22
:1030A000000123E00401035005E1060E005C00016D
:1030B00020E00401035005E1050E005C00011DE065
:1030C0000401035005E1040E005C00011AE0040154
:1030D0001DD0640E0201066F1AD0640E0201066F45
:1030E00016D06F0E0201066F12D0820E0201066F1B
:1030F0000ED0960E0201066F0AD0650E0201066F11
:1031000006D08D0E0201066F02D004010201010EED
:103110000B01FE6FFE5108080AE3036AFE51060F19
:10312000E96E020E0320EA6EEF6AFE2BF3D7020E61
:103130000C01036F9A0E026F020E056F040E046FEE
:103140000001F1EC05F003D38CCBE2F4000E040196
:10315000E26B0B018D510401E2130A0E0C01046FA6
:10316000060E056FFBCB07FCFACB06FC086B0C6B5D
:103170000B6B0A6B096B0001D6EC0BF0AAEC0BF0A1
:10318000660E0201066F010E0B01FE6FFE5108086C
:103190000AE3036AFE51060FE96E020E0320EA6E8F
:1031A000EF6AFE2BF3D7020E0C01036F9A0E026F2B
:1031B000020E056F040E046F0001F1EC05F004012E
:1031C000C36BC26BC16BC06BC76BC66BC56BC46B8B
:1031D0000001BDD20401DD6B8CCBDCF4DCC4DDF47A
:1031E0000401DC6B04010B018D510401DC130A0E98
:1031F0000C01046F060E056FFBCB07FCFACB06FC37
:10320000086B0C6B0B6B0A6B096B0001D6EC0BF0B7
:10321000AAEC0BF0EA6BE96BDDC4E8F0DCC4E7F084
:1032200096D20401DF6B8CCBDEF4DEC4DFF4040144
:10323000DE6B04010B018D510401DE130A0E0C013B
:10324000046F060E056FFBCB07FCFACB06FC086B80
:103250000C6B0B6B0A6B096B0001D6EC0BF0AAEC44
:103260000BF0710E0201066F0001EE6BED6BDFC417
:10327000ECF0DEC4EBF0010E0B01FE6FFE5108080E
:103280001DE3036AFE51060F016E020E032203C006
:1032900003FC010E0B01FE5D036AE70FE96E000EF1
:1032A0000320EA6EEFCF04FC0C0103CCEAFF01C05F
:1032B000E9FF04CCEFFF0B01FE2BE0D7020E0C015F
:1032C000036F9A0E026F020E056F040E046F000169
:1032D000F1EC05F03CD20A0E0C01046F060E056FEE
:1032E000FBCB07FCFACB06FC086B0C6B0B6B0A6B79
:1032F000096B0001D6EC0BF0AAEC0BF0760E020184
:10330000066F010E0B01FE6FFE5108080AE3036A07
:10331000FE51060FE96E020E0320EA6EEF6AFE2BE5
:10332000F3D7020E0C01036F9A0E026F020E056FA7
:10333000040E046F0001F1EC05F009D20401E76B03
:103340000A0E0C01046F060E056FFBCB07FCFACBCF
:1033500006FC086B0C6B0B6B0A6B096B0001D6EC5F
:103360000BF0AAEC0BF0F3D18DCBE8F40A0E0C01B4
:10337000046F060E056FFBCB07FCFACB06FC086B4F
:103380000C6B0B6B0A6B096B0001D6EC0BF0AAEC13
:103390000BF0E8C499F0E8C402FCF2EF0EF0D7D1CC
:1033A0008DCBEAF40A0E0C01046F060E056FFBCB01
:1033B00007FCFACB06FC086B0C6B0B6B0A6B096BFA
:1033C0000001D6EC0BF0AAEC0BF0EAC402FCFCEF17
:1033D0000EF0BDD10401EF6B8CCBEEF4EEC4EFF434
:1033E0000401EE6B04010B018D510401EE130A0E72
:1033F0000C01046F060E056FFBCB07FCFACB06FC35
:10340000086B0C6B0B6B0A6B096B0001D6EC0BF0B5
:10341000AAEC0BF0980E0201066FEFC40DF1EEC49A
:103420000CF1010E01010B6F0E6B0B01FE6FFE51D3
:1034300008081DE3036AFE51060F016E020E032207
:1034400003C003FC010E0B01FE5D036A0B0FE96E66
:10345000010E0320EA6EEFCF04FC0C0103CCEAFF5F
:1034600001C0E9FF04CCEFFF0B01FE2BE0D7020EF9
:103470000C01036F9A0E026F020E056F040E046FAB
:103480000001F1EC05F063D10401F16B8CCBF0F499
:10349000F0C4F1F40401F06B04010B018D5104013F
:1034A000F0130A0E0C01046F060E056FFBCB07FC30
:1034B000FACB06FC086B0C6B0B6B0A6B096B0001FB
:1034C000D6EC0BF0AAEC0BF0980E0201066FF1C4DB
:1034D0000DF1F0C40CF1020E01010B6F0E6B010E29
:1034E0000B01FE6FFE5108081DE3036AFE51060F33
:1034F000016E020E032203C003FC010E0B01FE5DF0
:10350000036A0B0FE96E010E0320EA6EEFCF04FC95
:103510000C0103CCEAFF01C0E9FF04CCEFFF0B0173
:10352000FE2BE0D7020E0C01036F9A0E026F020E03
:10353000056F040E046F0001F1EC05F008D10401E1
:10354000F36B8CCBF2F4F2C4F3F40401F26B0401DC
:103550000B018D510401F2130A0E0C01046F060ECB
:10356000056FFBCB07FCFACB06FC086B0C6B0B6BF7
:103570000A6B096B0001D6EC0BF0AAEC0BF0980E6D
:103580000201066FF3C40DF1F2C40CF1030E010148
:103590000B6F0E6B010E0B01FE6FFE5108081DE351
:1035A000036AFE51060F016E020E032203C003FCE4
:1035B000010E0B01FE5D036A0B0FE96E010E032085
:1035C000EA6EEFCF04FC0C0103CCEAFF01C0E9FF77
:1035D00004CCEFFF0B01FE2BE0D7020E0C01036FB2
:1035E0009A0E026F020E056F040E046F0001F1ECDB
:1035F00005F0ADD08DCBF5F40A0E0C01046F060E6C
:10360000056FFBCB07FCFACB06FC086B0C6B0B6B56
:103610000A6B096B0001D6EC0BF0AAEC0BF097D00B
:103620000401F76B8CCBF6F4F6C4F7F40401F66BE7
:1036300004010B018D510401F6130A0E0C01046FF5
:10364000060E056FFBCB07FCFACB06FC086B0C6B78
:103650000B6B0A6B096B0001D6EC0BF0AAEC0BF0BC
:1036600076D08DCBF9F40A0E0C01046F060E056FAF
:10367000FBCB07FCFACB06FC086B0C6B0B6B0A6BE5
:10368000096B0001D6EC0BF0AAEC0BF0F9C402FCBC
:1036900006EF0FF05CD00401FB6B8CCBFAF4FAC49C
:1036A000FBF40401FA6B04010B018D510401FA13C0
:1036B0000A0E0C01046F060E056FFBCB07FCFACB5C
:1036C00006FC086B0C6B0B6B0A6B096B0001D6ECEC
:1036D0000BF0AAEC0BF09B0E0201066FFBC410F17D
:1036E000FAC40FF10101126B116B010E0B01FE6F99
:1036F000FE5108081DE3036AFE51060F016E020E1B
:10370000032203C003FC010E0B01FE5D036A0F0FD1
:10371000E96E010E0320EA6EEFCF04FC0C0103CC2E
:10372000EAFF01C0E9FF04CCEFFF0B01FE2BE0D75D
:10373000020E0C01036F9A0E026F020E056F040E4B
:10374000046F0001F1EC05F002D00B010001DAD1A9
:103750000B01FB6B8ACBFAFBFACBFBFB0B01FA6B81
:103760000B018B51FA13FA51006EFB51036E03509B
:1037700005E1470E005C000123E00B01035005E169
:10378000500E005C000168E00B01035006E1520E90
:10379000005C0001D8B405D10B01010E035C06E109
:1037A000900E005C0001D8B46FD10B01010E035CD8
:1037B00006E1930E005C0001D8B483D10B01A0D1C7
:1037C0008ECBFFFBB76B8FCBB6F0B6C0B7F0000166
:1037D000B66B00010B0190510001B613010E0B01F5
:1037E000925D0001B56F94CBB4F096CBB8F098CB56
:1037F000B3F09ACBB2F09CCBB1F00A0E0C01046F7F
:10380000100E056FFBCB07FCFACB06FCFFCB08FCC8
:103810000C6B0B6B0A6B096B0001D6EC0BF00C0107
:10382000036BB10E026F00013AEF10F003C0CAF053
:1038300002C0C9F001C0C8F000C0C7F00C01036BA2
:10384000C70E026F0001B8EF12F002C0C6F001C04F
:10385000C5F0AAEC0BF055D18ECBFFFBEA6BE96B00
:10386000E86B91CBE7F0E9C0EAF0E8C0E9F0E7C027
:10387000E8F0E76B0B0192510001E713E9C0EAF0B1
:10388000E8C0E9F0E7C0E8F0E76B0B018F510001F9
:10389000E713E9C0EAF0E8C0E9F0E7C0E8F0E76B59
:1038A0000B0190510001E713EE6BED6BEC6B95CBC8
:1038B000EBF0EDC0EEF0ECC0EDF0EBC0ECF0EB6B3C
:1038C0000B0196510001EB13EDC0EEF0ECC0EDF0F2
:1038D000EBC0ECF0EB6B0B0193510001EB13EDC06F
:1038E000EEF0ECC0EDF0EBC0ECF0EB6B0B019451A3
:1038F0000001EB130A0E0C01046F100E056FFBCBD9
:1039000007FCFACB06FCFFCB08FC0C6B0B6B0A6BBD
:10391000096B0001D6EC0BF0AAEC0BF0710E020162
:10392000066F010E0B01FE6FFE5108081DE3036ACE
:10393000FE51060F016E020E032203C003FC010EAE
:103940000B01FE5D036AE70FE96E000E0320EA6ECD
:10395000EFCF04FC0C0103CCEAFF01C0E9FF04CC6B
:10396000EFFF0B01FE2BE0D7020E0C01036F9A0E46
:10397000026F020E056F040E046F0001F1EC05F0FA
:10398000EAC0A5F0E9C0A4F0E8C0A3F0E7C0A2F047
:10399000EEC0A9F0EDC0A8F0ECC0A7F0EBC0A6F017
:1039A000B0D08ECBFFFBEA6BE96BE86B91CBE7F015
:1039B000E9C0EAF0E8C0E9F0E7C0E8F0E76B0B0126
:1039C00092510001E713E9C0EAF0E8C0E9F0E7C06E
:1039D000E8F0E76B0B018F510001E713E9C0EAF053
:1039E000E8C0E9F0E7C0E8F0E76B0B019051000197
:1039F000E713EE6BED6BEC6B95CBEBF0EDC0EEF0FF
:103A0000ECC0EDF0EBC0ECF0EB6B0B01965100015C
:103A1000EB13EDC0EEF0ECC0EDF0EBC0ECF0EB6BB7
:103A20000B0193510001EB13EDC0EEF0ECC0EDF093
:103A3000EBC0ECF0EB6B0B0194510001EB130A0EA1
:103A40000C01046F100E056FFBCB07FCFACB06FCD4
:103A5000FFCB08FC0C6B0B6B0A6B096B0001D6ECFF
:103A60000BF0AAEC0BF0EAC0A5F0E9C0A4F0E8C0A6
:103A7000A3F0E7C0A2F0EEC0A9F0EDC0A8F0ECC042
:103A8000A7F0EBC0A6F03DD08ECBFFFB90CBFCF4B3
:103A900092CBFDF494CBFEF40A0E0C01046F100ED1
:103AA000056FFBCB07FCFACB06FCFFCB08FC0C6BCD
:103AB0000B6B0A6B096B0001D6EC0BF0AAEC0BF058
:103AC00020D08ECBFFFB90CBFFF492CB00F50A0EFB
:103AD0000C01046F100E056FFBCB07FCFACB06FC44
:103AE000FFCB08FC0C6B0B6B0A6B096B0001D6EC6F
:103AF0000BF0AAEC0BF0B7EF14F0000102D00B01B1
:103B0000000100D00B010001FBEF22F00C01026B61
:103B100001CC02FCF250006EF29EFFCB75FFFECB93
:103B200074FF02CC76FF779C779E77840F01550E49
:103B3000786EAA0E786E778277B2FED77794779CEC
:103B4000778E0050F2120B01FE2BD8B4FF2B0C0124
:103B5000026B00CC02FCF250006EF29EFFCB75FFB0
:103B6000FECB74FF02CC76FF779C779E77840F01A3
:103B7000550E786EAA0E786E778277B2FED777945C
:103B8000779C778E0050F212000112000B01FC6B43
:103B9000FB6BFD6B110EFD6FFACBFCFBF9CBFBFB56
:103BA0000C01036A0B01FF6BFDCBFEFBFCCB01FCA0
:103BB000FBCB00FC0001AADF020E0B01FD27FACBB4
:103BC00002FCF9CB01FCF8CBFCFBF7CBFBFB0C01B7
:103BD000036A0B01FF6BFDCBFEFBFCCB01FCFBCBB7
:103BE00000FC000193DF0CEF23F00B01F76B805119
:103BF000FF0803E1010EF76F01D0F76BF7CB01F07F
:103C000000011BEF23F00900F6CF0EFCF7CF0FFCED
:103C1000F5500E0137A9FED7DD6F0ECCF6FF0FCCA5
:103C2000F7FF0C010D2F01D002D00001ECD70001ED
:103C300012000150196AF2BE198EF29E0DCC2FFCB3
:103C4000640E0C01306F0001C1EC00F019BEF28E61
:103C500000C00DFC0150300E08E10C010EA310D085
:103C60000EB70ED00EB9200E04D00C010E970E998F
:103C70000E81012601500E0137A9FED7DD6F0C0120
:103C8000196AF2BE198EF29E0DCC2FFC0A0E306F0F
:103C90000001C1EC00F019BEF28E00C00DFC015015
:103CA000300E08E10C010EB70CD00EA10AD00EB9EF
:103CB000200E0001012601500E0137A9FED7DD6F4D
:103CC0000C01300E0D270D510E0137A9FED7DD6F07
:103CD00000011200EACF15FCE9CF14FC0C010E39EB
:103CE000F009106F1027E20F116F320F136F0E5192
:103CF0000F0B112711271327E90F126F1227122715
:103D00000D390F0B1227132712371337131F1337D1
:103D10000D510F0B13271037070E0F6F0A0E1207E6
:103D20001327FDE311071227FDE310071127FDE319
:103D30000F071027FDE30C0EEA6E0F0EE96E070E5B
:103D40001415149DE926000EEA22E950130804E137
:103D5000EA500C0801E1148DEF50006E08E114BD2B
:103D600006D014B90ED014B702D0200E03D0148799
:103D70001499300E002600500E0137A9FED7DD6FD2
:103D80000C01EE5014ADE1D700011200D8B204D0FE
:103D90000C0EEA6E210EE96E006A016A026A036A7D
:103DA0000C01216B226B236B246B20511F111E1100
:103DB0001D112CE0200E256FD89019371A371B37AC
:103DC0001C3721372237233724372051245D08E15F
:103DD0001F51235D05E11E51225D02E11D51215D50
:103DE0000FE31D51215F1E51D8A01E3D225F1F51C0
:103DF000D8A01F3D235F2051D8A0203D245FD8804C
:103E00000036013602360336252FD6D721CCEFFFF8
:103E100022CCECFF23CCECFF24CCECFF0001120001
:103E2000E9500C01116F3B0E186F9A0E176FCA0EF6
:103E3000166F156B0A0E136FD8820C0EEA6E0D0EFC
:103E4000E96E10CC1CFC0FCC1BFC0ECC1AFC0DCC6C
:103E500019FC18CC20FC17CC1FFC16CC1EFC15CC72
:103E60001DFC000193DF0150005213E10C011351BE
:103E7000010AD8A402D000010CD011510CE00F0BA4
:103E8000135D01E010E211BF0ED011BD04D0200E71
:103E900003D00C01116B300E002600500E0137A923
:103EA000FED7DD6F0C01D89218CC1CFC17CC1BFC84
:103EB00016CC1AFC15CC19FC206B1F6B1E6B0A0E5E
:103EC0001D6F000163DF03C018FC02C017FC01C0B6
:103ED00016FC00C015FC0C01132FAED70001120018
:103EE000196AF2BE198EF29E0C01296B80CB28FC58
:103EF0002B6B0B0E2A6F000119EC02F019BEF28E2B
:103F000002C001FC01C000FC340E0C010124E96E6A
:103F1000070E0220EA6EEFCF02FCECCF03FCECCFE1
:103F200004FCECCF05FC196AF2BE198EF29E296BD7
:103F300080CB28FC2B6B0B0E2A6F000119EC02F0D2
:103F400019BEF28E01C006FC040E0C010124016EA4
:103F5000000E0220036E0150340FE96E070E03209D
:103F6000EA6EECCF07FCED52EFCF06FC196AF2BE09
:103F7000198EF29E296B80CB28FC2B6B0B0E2A6FBF
:103F8000000119EC02F019BEF28E01C008FC060E09
:103F90000C010124016E000E0220036E0150340F4B
:103FA000E96E070E0320EA6EEFCF08FCECCF09FCA8
:103FB000ECCF0AFCECCF0BFC196AF2BE198EF29E14
:103FC000296B80CB28FC2B6B0B0E2A6F000119ECA0
:103FD00002F019BEF28E01C00CFC0A0E0C01012485
:103FE000016E000E0220036E0150340FE96E070EC1
:103FF0000320EA6EEFCF0CFCB40EF66E030EF76EE4
:104000000F0E0D6F0001FFDD99C00DFC1B0E0C01A2
:104010000E6F00010EDEC50EF66E030EF76E030E78
:104020000C010D6F0001EFDD100EE96E9BC00EFC60
:104030009AC00DFC4FDECB0EF66E030EF76E030E2C
:104040000C010D6F0001DFDD100EE96E9DC00EFC4E
:104050009CC00DFC3FDED10EF66E030EF76E030E14
:104060000C010D6F0001CFDD9EC00DFC1B0E0C017D
:104070000E6F0001DEDDD60EF66E030EF76E030E38
:104080000C010D6F0001BFDD100EE96EA0C00EFC2B
:104090009FC00DFC1FDEDC0EF66E030EF76E030EE6
:1040A0000C010D6F0001AFDDA1C00DFC1B0E0C015A
:1040B0000E6F0001BEDDE10EF66E030EF76E030E0D
:1040C0000C010D6F00019FDD410EE96EA5C010FCD3
:1040D000A4C00FFCA3C00EFCA2C00DFCA1DEE70E25
:1040E000F66E030EF76E030E0C010D6F00018BDDF3
:1040F000410EE96EA9C010FCA8C00FFCA7C00EFCC1
:10410000A6C00DFC8DDEED0EF66E030EF76E030EEF
:104110000C010D6F000177DD100EE96EABC00EFCD7
:10412000AAC00DFCD7DDF30EF66E030EF76E030E7C
:104130000C010D6F000167DD100EE96EADC00EFCC5
:10414000ACC00DFCC7DDF90EF66E030EF76E030E64
:104150000C010D6F000157DD100EE96EAFC00EFCB3
:10416000AEC00DFCB7DDFF0EF66E030EF76E030E4C
:104170000C010D6F000147DD410EE96E05CC10FC0E
:1041800004CC0FFC03CC0EFC02CC0DFC49DE050E6A
:10419000F66E040EF76E030E0C010D6F000133DD99
:1041A000100EE96E07CC0EFC06CC0DFC93DD0B0E59
:1041B000F66E040EF76E030E0C010D6F000123DD89
:1041C000410EE96E0BCC10FC0ACC0FFC09CC0EFCA6
:1041D00008CC0DFC25DE110EF66E040EF76E030EF4
:1041E0000C010D6F00010FDD0CCC0DFC1B0E0C0142
:1041F0000E6F00011EDD2BEF23F0196AF2BE198E3F
:10420000F29E0C01296BF7CB28FC030E2B6FE80EF6
:104210002A6F000119EC02F019BEF28E02C091F073
:1042200001C090F0010E926F1200070EEA6E1F0E91
:10423000E96E006A026A140E016EE6EC04F00701F2
:10424000336B00015AEF21F0010E0B01F76FF86B91
:10425000F86BF851130832E3030EF85D036A1F0F81
:10426000E96E070E0320EA6EEF504F0825E1020EBB
:10427000F85D036A1F0FE96E070E0320EA6EEF5028
:104280006B081AE1010EF85D036A1F0FE96E070E55
:104290000320EA6EEF5061080FE1036AF8511F0F27
:1042A000E96E070E0320EA6EEF50790805E1F76B1F
:1042B0000001BBD70B0102D0F82BCBD7F7CB01F015
:1042C00000013FEF23F0778E779CF86A0E011F9B69
:1042D000228B2393239BF28A078E550E0D01EF6FDD
:1042E000AA0EEF6FEF91170E0E010F6F210E136FD5
:1042F000230E176F0C0E686F100E726F140E746F12
:10430000550E0D01EF6FAA0EEF6FEF812F6A0E01B0
:10431000F087810EEC6F000EED6FA60EEF6F900E22
:10432000EE6F9E96400E9A6EA60E9D6E900E9C6E3F
:10433000E2872A0EDE6F000EDF6FA60EE16F900E91
:10434000E06F336A326A290E3E6E3F6A160E406E87
:104350000001876B886B030E896F0C0E8A6F8C6B64
:10436000FA0E8B6F160E8D6F8E6B8F6B916B906B41
:10437000926B936B946B986B976B966B956BB06B22
:10438000C66BBB0EC56FCA6BC96BC86BC76BD46BF2
:10439000D56BD66B0101DD6BF26BF36BF46BA50E85
:1043A000F56FF66B0201986B996B010E0401246F97
:1043B000256B266B276B296B286B376B466B456B20
:1043C000476BAE6BAF6BB06BB16BBF6FC36BC26B48
:1043D000C16BC06BC76BC66BC56BC46BC96BC86B5D
:1043E000CF6BCE6BCD6BCC6BD16BD06BD56BD46BF5
:1043F000D36BD26BD96BD86BD76BD66BDB6BDA6BAD
:10440000DD6BDC6BDF6BDE6BE16BE06BE26BE46B57
:10441000E36BE66BE56BE76BE86BE96BEA6BEB6B09
:10442000EC6BED6BEF6BEE6BF16BF06BF36BF26BB8
:10443000F46BF56BF76BF66BF86BF96BFB6BFA6B68
:10444000FC6BFD6BFE6BFF6B0501006B026B016B80
:104450000C0E036F056B046B066B086B076B1A0E73
:10446000096F0B6B0A6B0C6B150E0D6FB40E0E6F94
:104470002C0E0F6F2E0E106F0701066B056B076B6E
:10448000086B0A6B010E096F0C6B020E0B6F070EA7
:104490000E6FCF0E0D6F0F6B106B116B1E6B336BAE
:1044A0000B01836B826B856B846B866B876BEC6B0C
:1044B0000B0EED6F010EEE6FEF6BF16BF06BF56BAA
:1044C000F46BF36BF26B0E01926B9A6BA76BAF6B95
:1044D000B46BBC6BD26BD36BD16BD06B0C0E316EEB
:1044E000320E306E010E0C01336FB40E326F356B2D
:1044F000346B000114D0464041001441DE00874275
:1045000011000D443800664448000D44B200FF45D8
:104510001100F5C00014471F00644B880000000E16
:10452000F86E440EF76EF60EF66E0900F550006E4A
:10453000000A13E00900F550016EE8BE05D03F0BFC
:10454000EA6E0900F550E96E01BC090001AC0900F2
:10455000F550EE6E004EE9D7F9D7F86A0B01F66B0D
:10456000010E07011E6F070E0E013E6F190E3D6F03
:104570000001DFEF02F0EFEF02F0F5EF02F0FBEFEA
:1045800002F0A5EF04F0F3EF04F00E013D5104003A
:10459000000102EF05F001C0DDF10101DD5111085C
:1045A00004E20001DFEF06F00101030E0B01F86FDA
:1045B0005F0EF76F000179EC08F0015202E0A0EF06
:1045C00009F0020E0B01F86F9A0EF76F000179ECFB
:1045D00008F001520BE002019953D8B402D0000157
:1045E00005D0010E996F000114EF0BF08D511508E5
:1045F00004E1CCEF14F0160E8D6F05010D51140877
:104600000EE198C0FAFB97C0F9FB96C0F8FB95C085
:10461000F7FB0001C6EF1DF0150E05010D6F0951E6
:10462000190813E107011E2D01D002D005010DD09C
:104630000001F5EF1DF001C0F6FB0B01F65304E19C
:10464000020E07011E6F0B016BD007011E510208FD
:104650000CE1000145D48F6B030E0B01F76F0001D5
:10466000CCDD030E07011E6F5AD01E51030812E164
:1046700000018F53D8B402D007010CD0E5D501C09A
:10468000F6FB0B01F65304E1040E07011E6F0B014C
:1046900047D007011E51030810E100018F2D01D002
:1046A00002D007010AD08F6B0A0E0B01F76F0001D1
:1046B000A4DD050E07011E6F32D01E51040823E150
:1046C0001A0E0501096F0B018151805D04E18169BA
:1046D00081CB80FB14D0010E8025F86F196AF2BEE1
:1046E000198EF29EE8CF2FFC640E0C01306F000192
:1046F000C1EC00F019BEF28E00C080FB0B01010E70
:1047000007011E6F0CD01E51050809E100018F2D15
:1047100001D002D0070103D0010E07011E6F0B016B
:0A4720000E013D51040034D7FFD70D
:0200000400F00A
:0400000001020304F2
:020000040030CA
:0C000000FFDF3FCF9FFFFFDFFFFFFFFF90
:00000001FF
;PIC18F66K40
;CRC=318D  CREATED="26-Feb-21 17:07"
