:0400000071EF21F08B
:080008006DEF00F000000000A4
:100010000000000000000000046ED8CF05F0E0CF23
:1000200006F00001E9CF0CF0EACF07F0E1CF08F0CD
:10003000E2CF09F0D9CF0AF0DACF0BF0F3CF12F00C
:10004000F4CF13F0FACF14F0F5CF15F0F6CF16F089
:10005000F7CF17F000C00EF001C00FF002C010F093
:1000600003C011F00E012DAB39EF00F037BBBFEF2D
:1000700001F02DA33FEF00F037B347EF02F029ABBB
:1000800045EF00F033BB10EF01F00EC000F00FC0E1
:1000900001F010C002F011C003F00CC0E9FF07C06E
:1000A000EAFF078E08C0E1FF09C0E2FF0AC0D9FFDE
:1000B0000BC0DAFF12C0F3FF13C0F4FF14C0FAFF45
:1000C00015C0F5FF16C0F6FF17C0F7FF045006C0B5
:1000D000E0FF05C0D8FF100000011A6ED8CF1BF05A
:1000E000E0CF1CF00001E9CF22F0EACF1DF0E1CF14
:1000F0001EF0E2CF1FF0D9CF20F0DACF21F0F3CFFE
:1001000028F0F4CF29F0FACF2AF0F5CF2BF0F6CF74
:100110002CF0F7CF2DF000C024F001C025F002C074
:1001200026F003C027F00E012CAB9AEF00F036BB8F
:10013000E5EF00F024C000F025C001F026C002F079
:1001400027C003F022C0E9FF1DC0EAFF1D8E1EC0BC
:10015000E1FF1FC0E2FF20C0D9FF21C0DAFF28C0A5
:10016000F3FF29C0F4FF2AC0FAFF2BC0F5FF2CC013
:10017000F6FF2DC0F7FF1A501CC0E0FF1BC0D8FFD0
:1001800010000C013451016A335D03E233CC00F0FE
:100190000CD0006A080E356F333700363451005CDE
:1001A000D8B0006E0136352FF7D7000112000E01CE
:1001B00036ABFED79CCF2FF098CF01F02FA202D004
:1001C0009C989C88000104EF01F000010101D151CD
:1001D000FF0801E1D16B010ED2250C01326F336FA4
:1001E000C80E346F0001CDDF00C0D2F1036A0101F7
:1001F000D251090FE96E010E0320EA6EEACF34FCFA
:10020000E9CF33FC0001D3D734CCEAFF33CCE9FF8C
:1002100001C0EFFF98500E01369B00019AEF00F0ED
:1002200000010401FA2BD8B4FB2BFB5102082FE28A
:10023000FF0A03E1FA51E7082AE2010E0001BD2797
:10024000D8B0BE2BD8B4BF2BD8B4C02B0401FB6BE5
:10025000FA6BFC2BFF511A0805E10501002BD8B4FD
:10026000012B04010501022B02513B080BE2026B3A
:10027000C0C098F0BFC097F0BEC096F0BDC095F06A
:10028000140E036F042F02D0210E056F04013E509F
:10029000280802E13F2A06D000018A510D0801E139
:1002A0008E2B040100018E51020805E28E6B0C0EAC
:1002B0008A6F290E3E6E8C5308E13F508B5D05E23C
:1002C000150E8D6F290E3E6E3F6A04011D2D0ED056
:1002D0001E2BD8B41F2B1F5303E11E511D0806E22D
:1002E0001F6B1E6B02018F6B04011D6BFC513B08E1
:1002F00001E2FC6B0001925319E00401FD2BD8B41C
:10030000FE2B000191510401FE5D11E305E10001A6
:1003100090510401FD5D0BE3010E00018F6F926BA4
:100320000401FE6BFD6B0001916B906B04010501F4
:10033000015305E10401E0510501005D06E3190EDA
:100340000401FF6F0501016B006BD5A802D0FD0E03
:10035000D46E8F0ED36E0E01339B339B000145EF9D
:1003600000F00E0137ABFED7E0CE2FF0DCCE01F06F
:100370002FA202D0E099E0890001CEEF01F0000148
:10038000036A07012951150FE96E070E0320EA6E73
:10039000EACF2EFCE9CF2DFC0001E3D72ECCEAFFFB
:1003A0002DCCE9FF01C0EFFF0701292B29511308CC
:1003B00001E2296B0E01DC51379B000145EF00F093
:1003C0002F6170692F546573742F4765745374726D
:1003D000696E674765744D6574686F643F613D255C
:1003E0007526623D254C7526633D254C7526643D7A
:1003F000254C7526653D254C75266D3D254C75248F
:10040000254C7524254C7524257500000E0137A355
:10041000FED7EECE2FF0EACE01F02FA202D0EE9959
:10042000EE89000112000C012C512E03F3CF01F0D4
:10043000F4CF00F02F03F35000262D512E03F3507C
:100440000020026E00011200016A026A006A036A5B
:100450000C012E5102E12D5118E0100E2F6FD89093
:100460002B372C37003603362E51035C02E12D5119
:10047000005C07E32D51005ED8A003062E51035EF9
:10048000D880013602362F2FEAD700011200000172
:100490003E50290820E18A510C081DE10B01E52B93
:1004A0000001B4DF01C07DFB0B017D2D0ED0280EB5
:1004B0003E6E036AE2517E0FE96E0B0E0320EA6E78
:1004C0007DCBEFFFE22BE46B04D00D0E00018A6FB1
:1004D0000B0162D000018A510C085FE197DF01C077
:1004E0007DFB0B01E45313E1010EE46F7D51030822
:1004F00003E07D51060806E100018C6B030E8B6F53
:1005000007D00B017D51100802E10A0EE36F0001D4
:100510000B01E3510A0832E1E25107082FE1010E15
:10052000E25D036A7E0FE96E0B0E0320EA6EEF5068
:10053000090F0C012B6F040E2D6F100E2C6F2F6BFB
:100540002BCC2EFC00016FDF02C08CF001C08BF0C1
:100550008CC02CFC8BC02BFC030E0C012E6FE80E04
:100560002D6F000171DF02C08CF001C08BF0020E14
:100570008B27000E8C230B0E0B01E36F036AE251F5
:100580007E0FE96E0B0E0320EA6E7DCBEFFFE22BB0
:10059000E251310801E2E26B00010B01E25108086F
:1005A00002E1080EE26F0E01EA513793000145EFB8
:1005B00000F0900ED56E430ED66ED5A802D0FD0E7B
:1005C000D46E8F0ED36E0E01339B298B0001CCEFBE
:1005D00022F00E01EA512D830001CEEF22F0985057
:1005E0000E012C8B0001D0EF22F00E01DC512D8B7F
:1005F0000001D2EF22F00B0176697769ED6BED51C6
:100600006308D8A07ED0196AF2BE198EF29E0C0142
:100610002D6BEDCB2CFC2F6B0B0E2E6F000103DF2F
:1006200019BEF28E01C0EEFB060E0B010124016E15
:10063000000E0220036E01502A0FE96E070E032000
:10064000EA6EEF6AEC6AEC6AEC6A196AF2BE198E1D
:10065000F29E0C012D6BEDCB2CFC2F6B0B0E2E6F35
:100660000001E1DE19BEF28E01C0EEFB040E0B01AB
:100670000124016E000E0220036E01502A0FE96E64
:10068000070E0320EA6EEC6AED52EF6A196AF2BEB9
:10069000198EF29E0C012D6BEDCB2CFC2F6B0B0EEB
:1006A0002E6F0001C0DE19BEF28E2A0E0B0101244E
:1006B000E96E070E0220EA6EEF6AEC6AEC6AEC6AF9
:1006C000196AF2BE198EF29E0C012D6BEDCB2CFC3B
:1006D0002F6B0B0E2E6F0001A6DE19BEF28E01C02D
:1006E000EEFB0A0E0B010124016E000E0220036EC8
:1006F00001502A0FE96E070E0320EA6EEF6AED2B18
:100700007ED70001A3EF04F00B01F16BF2CFF2FBF7
:10071000F29EF0CB75FFEFCB74FF779C779E7780CE
:100720007650779C778EF2BFF28EF16FF1CB01F0AD
:10073000000112000B01EE6BF06B0A0EEF6F00016F
:10074000E3DF01C0EEFB0B01EECB01F00001ADEFEA
:1007500003F00B01ED6B0001EDD701C0EDFBEDCB1C
:1007600099F0A4EF04F00B01ED6BF06B0C0EEF6F42
:100770000001CADF01C0EDFB0B01EDCB01F0000170
:10078000A5EF04F00B01F76BF66BF96BF86BF2CF8A
:10079000FAFBF29EF5CB75FFF4CB74FF779C779E46
:1007A00077807650779C778EFABFF28EF96BF86F70
:1007B000F8CBF7FBF66BF42BD8B4F52BF2CFFAFBA2
:1007C000F29EF5CB75FFF4CB74FF779C779E778014
:1007D0007650779C778EFABFF28EF96BF86FF851EE
:1007E000F613F951F713F6CB01F0F7CB02F0000145
:1007F00012000B01F06BEF6BEE6BED6BF26BF16BBC
:10080000F36B110EF36FF56BF3CBF4FB0001BADF62
:1008100002C0F2FB01C0F1FB0B01F06BEF6BF2CBFE
:10082000EEFBF1CBEDFBEECBF0FBEDCBEFFBED6B9D
:10083000EE6B020EF327F56BF3CBF4FB0001A2DFA6
:1008400002C0F2FB01C0F1FB0B01F46BF56BEFCBC7
:10085000F6FBF0CBF7FBF451F111ED6FF551F2110E
:10086000EE6FEFCBEFFBF0CBF0FB1E0EED27000E93
:10087000EE23EF23F023EDCB00F0EECB01F0EFCB36
:1008800002F0F0CB03F00001A8EF04F00B01ED6BD8
:10089000F06B160EEF6F000137DF01C0EDFB0B01AF
:1008A000EDCB01F00001B1EF04F00B01EF6BF06B49
:1008B000C30EED25016E000EEE21036EC40EED2574
:1008C000E96E000EEE21EA6EEF68FF0E03C0EAFF4C
:1008D00001C0E9FFEF6EEF6BEF510E082DE3F06BF7
:1008E000F051080827E3196AF2BE198EF29E0C0136
:1008F0002D6BEFCB2CFC2F6B0D0E2E6F000193DDBB
:1009000019BEF28E02C0F2FB01C0F1FB020E0B0118
:10091000F127000EF223F051F125016E000EF221B5
:10092000036E0150ED25E96EEE510320EA6EEF6A89
:10093000F02BD6D7EF2BD0D7000112007F908790F5
:10094000C00EF21258D605D70ED701C0E0F451D729
:1009500003C0C0F002C0BFF001C0BEF000C0BDF0D7
:1009600095D701C0EFF4030E0B01EE6F550EED6F3E
:1009700000019BDF020E0B01EE6F900EED6F000188
:1009800094DF0401BF6BBE6BC16BC06BC56BC46BE6
:10099000C36BC26BC76BC66BCB6BCA6BC96BC86BC7
:1009A000CF6BCE6BCD6BCC6BD76BD66B0101EF6B86
:1009B000F06BF16BF26BF36B0001D4EF22F0016688
:1009C00003D0026602D007D0022A00C0EEFF012E3B
:1009D000FCD7022EFAD71200010EEA6E090EE96E5C
:1009E000C80E006E026A016AEADF0101D169D269AC
:1009F0000001D6EF22F00C0EEA6E0B0EE96EEF50FE
:100A000011E0060E016EBF0E006E0400002EFDD731
:100A1000012EF9D77A0E006E002EFED700D004000A
:100A2000EF2EEFD712000A0E0B01ED6F0101D1512D
:100A3000FF0806E10B01ED6BEDCB01F014D00101D5
:100A4000D151D25D09E2C80ED880D155D225010F0F
:100A50000B01ED6F06D00101D151D25D010F0B01E9
:100A6000ED6FEDCB01F00001E8EF22F0C30E0B01BA
:100A7000F225E96E000EF321EA6EEF50FF0801E166
:100A800038D0C30EF225E96E000EF321EA6EEFCFE7
:100A9000F4FBC40EF225E96E000EF321EA6EEF506E
:100AA000F45D0FE1C30EF225E96E000EF321EA6E4C
:100AB000EF68C40EF225E96E000EF321EA6EEF68CE
:100AC00018D0C30EF225E96E000EF321EA6EEF5046
:100AD0000E0808E1C30EF225E96E000EF321EA6E5E
:100AE000EF6A07D0C30EF225E96E000EF321EA6E1D
:100AF000EF2A000112000B01F15104012D5D10E1FC
:100B0000020E0B01F36F900EF26F0001AFDF0401D4
:100B10003D6B1D6B1F6B1E6B02018F6B06D00401BA
:100B20001D6B1F6B1E6B02018F6B00011DEF08F028
:100B30000C010F6B0E6B11691069A00E136F010E83
:100B4000126F146B156B166B0D51145D01E134D0EF
:100B5000142B156B155319E1142D0DD0010E145DD6
:100B60000B25E96E000E0C21EA6EEF5010190E6F86
:100B700011CC0FFC09D0010E145D0B25E96E000E9F
:100B80000C21EA6EEF500E1B04D012510E1B1351B4
:100B90000F1B0C01152B1551080801E20CD00E514A
:100BA000010B166FD8900F330E33162D02D0D2D70B
:100BB00001D0EFD7CFD7C8D70ECC01F00FCC02F0C1
:100BC000000112000C01056B056B0551080818E3C4
:100BD000020E05250325016E000E0421036E020E90
:100BE00005250125E96E000E0221EA6EEFCF08FC13
:100BF00003C0EAFF01C0E9FF08CCEFFF052BE5D7F2
:100C0000000112000B01FA51FB1101E1E4D0C30E07
:100C1000F825E96E000EF921EA6EEF5209E1C40EE3
:100C2000F825E96E000EF921EA6EEF500E0812E089
:100C3000C40EF825E96E000EF921EA6EEFCFFCFB39
:100C4000C30EF825E96E000EF921EA6E010EEF5C85
:100C5000FC5D02E1C0D0BFD0C30EF825E96E000EE6
:100C6000F921EA6EEF50FF083CE1C30EF825E96E6A
:100C7000000EF921EA6EEF6AC40EF825E96E000E47
:100C8000F921EA6EEF6AC40EF825E96E000EF9212B
:100C9000EA6E196AF2BE198EF29E0C012D6BEFCF2F
:100CA0002CFC2F6B0D0E2E6F000113EC02F019BE01
:100CB000F28E02C003F001500B01F825016EF951CC
:100CC000032201C0FCFB03C0FDFBFBCB02FCFACB03
:100CD00001FC03C004FC01C003FC000173DF7AD0F7
:100CE0000B01C40EF825E96E000EF921EA6EEF50F3
:100CF0000E083DE1C30EF825E96E000EF921EA6EFB
:100D0000EF5235E0C40EF825E96E000EF921EA6EC7
:100D1000EF6AC40EF825E96E000EF921EA6E196A31
:100D2000F2BE198EF29E0C012D6BEFCF2CFC2F6BB7
:100D30000D0E2E6F000113EC02F019BEF28E02C0F0
:100D400003F001500B01F825016EF951032201C097
:100D5000FCFB03C0FDFBFBCB02FCFACB01FC03C098
:100D600004FC01C003FC00012DDF34D00B01C40ED4
:100D7000F825E96E000EF921EA6EEF2AC40EF82577
:100D8000E96E000EF921EA6E196AF2BE198EF29E22
:100D90000C012D6BEFCF2CFC2F6B0D0E2E6F000175
:100DA00013EC02F019BEF28E02C003F001500B01E9
:100DB000F825016EF951032201C0FCFB03C0FDFBC5
:100DC000FBCB02FCFACB01FC03C004FC01C003FC1A
:100DD0000001F8DE0B01000112000E0136A9FED75A
:100DE000996E00011200D1C1EDFB0B01EE6BD1C178
:100DF000EFFBF06BD1C1A4F4D2C1A5F40401A76B41
:100E0000A66B0101D35334E0010ED1250B01F26F23
:100E1000196AF2BE198EF29EE8CF33FCC80E0C019F
:100E2000346F0001C1EC00F019BEF28E00C0EFFB80
:100E3000036A0101D151090FE96E010E0320EA6E28
:100E4000EF50A50811E1036A0B01EF51090FE96E9C
:100E5000010E0320EA6EEF50A508D8B402D00101BC
:100E600003D0010105D003D0EFCBD1F1D307CAD70E
:100E7000D35301E14ED1D3510D0848E20E0ED125D6
:100E80000B01F26F196AF2BE198EF29EE8CF33FCA5
:100E9000C80E0C01346F0001C1EC00F019BEF28ED7
:100EA00000C0F0FB036A0101D151090FE96E010E88
:100EB0000320EA6EEF50A50827E1036A0B01F05109
:100EC000090FE96E010E0320EA6EEF50B50804E148
:100ED00001011CD018D00B01010E0101D1250B011D
:100EE000F26F196AF2BE198EF29EE8CF33FCC80E7B
:100EF0000C01346F0001C1EC00F019BEF28E00C08D
:100F0000D1F10101D30701D004D1B5D7010ED1250C
:100F10000B01F26F196AF2BE198EF29EE8CF33FC14
:100F2000C80E0C01346F0001C1EC00F019BEF28E46
:100F300000C0D1F10101D3070B01EE6BEE510C089B
:100F400033E3036AEE51200F016E040E032203C047
:100F5000F2FB036A0101D151090FE96E010E032072
:100F6000EA6EEFCFF3FB0B01F2CBEAFF01C0E9FF22
:100F7000F3CBEFFF010E0101D1250B01F26F196ACE
:100F8000F2BE198EF29EE8CF33FCC80E0C01346F0E
:100F90000001C1EC00F019BEF28E00C0D1F10101D8
:100FA000D3070B01EE2BCAD70101D35322E0036A0A
:100FB000D151090FE96E010E0320EA6EEF50A5082A
:100FC00001E117D0010ED1250B01F26F196AF2BEB3
:100FD000198EF29EE8CF33FCC80E0C01346F00016D
:100FE000C1EC00F019BEF28E00C0D1F10101D307AF
:100FF000DCD7010ED2250B01F26F196AF2BE198EF1
:10100000F29EE8CF33FCC80E0C01346F0001C1EC36
:1010100000F019BEF28E00C0EFFB0B01EF51010191
:10102000D15D03E1D269D2C1D1F1040121512C0873
:1010300007E120C4F1FB00015ED501016AD0040183
:101040002151210865E1040E0C010C6F200E0B6F7D
:101050000B0E0D6F00016CDD02C03CF401C03BF4CF
:101060003CC4F1FB0B01F26B04012C510B01F15D4F
:101070004EE1F2534CE13CC4F2FB3BC4F1FBF26B9A
:1010800004012B510B01F15D42E1F25340E122C416
:10109000EFF123C4F0F124C4F1F125C4F2F126C428
:1010A000F3F127C4F4F128C4F5F129C4F6F12AC4F8
:1010B000F7F1030EF96F550EF86F010EFB6FED0E91
:1010C000FA6F00019FDD2C0E0401216FA50E0001B7
:1010D00084DEA50E82DEA50E80DE0B01EE6BEE51E6
:1010E0000C080FE3036AEE51200FE96E040E032093
:1010F000EA6EEFCFF1FBF15100016FDE0B01EE2B39
:10110000EED7B50E000169DEB50E67DE0B010401F6
:1011100001010001F1EF22F00B01EF6BC30EED2591
:10112000E96E000EEE21EA6EEF50FF0802E1EF6B70
:1011300002D0010EEF6FEFCB01F000011200C30EE1
:101140000B01FB25E96E000EFC21EA6EEF50FF0853
:1011500001E165D0C30EFB25E96E000EFC21EA6EAD
:10116000196AF2BE198EF29E0C012D6BEFCF2CFC8A
:101170002F6B0D0E2E6F000113EC02F019BEF28ED4
:1011800002C003F001500B01FB25016EFC5103224C
:1011900001C0FFFB03C000FC03C002FC01C001FC56
:1011A000FECB04FCFDCB03FC00010CDDC30E0B01E8
:1011B000FB25E96E000EFC21EA6EEFCFFFFBC40EAB
:1011C000FB25E96E000EFC21EA6EEF50FF5D0FE19A
:1011D000C30EFB25E96E000EFC21EA6EEF68C40E1B
:1011E000FB25E96E000EFC21EA6EEF6818D0C30EF5
:1011F000FB25E96E000EFC21EA6EEF500E0808E1B7
:10120000C30EFB25E96E000EFC21EA6EEF6A07D0E3
:10121000C30EFB25E96E000EFC21EA6EEF2A0001E9
:10122000C4EF09F00B017651FF0801E1766B010E66
:101230007725FC6F196AF2BE198EF29EE8CF33FC57
:10124000640E0C01346F0001C1EC00F019BEF28E87
:1012500000C077FB196AF2BE198EF29E0C012D6B4D
:1012600077CB2CFC2F6B0B0E2E6F000113EC02F0D2
:1012700019BEF28E01C0FBFB040E0B010124016EAE
:10128000000E0220036E01502A0FE96E070E0320A4
:10129000EA6E0DC7ECFFED520CC7EFFF196AF2BE04
:1012A000198EF29E0C012D6B77CB2CFC2F6B0B0E45
:1012B0002E6F000113EC02F019BEF28E01C0FBFB91
:1012C000060E0B010124016E000E0220036E015078
:1012D0002A0FE96E070E0320EA6E08C7EFFF09C761
:1012E000ECFF0AC7ECFF0BC7ECFF196AF2BE198EC0
:1012F000F29E0C012D6B77CB2CFC2F6B0B0E2E6FFF
:10130000000113EC02F019BEF28E01C0FBFB0A0EC5
:101310000B010124016E000E0220036E01502A0F02
:10132000E96E070E0320EA6E0EC7EFFF196AF2BEE0
:10133000198EF29E0C012D6B77CB2CFC2F6B0B0EB4
:101340002E6F000113EC02F019BEF28E2A0E0B0173
:101350000124E96E070E0220EA6E10C7EFFF11C7E5
:10136000ECFF12C7ECFF13C7ECFF0001D5EF0AF04A
:101370000B01FA6B030EFC6F550EFB6F0B0EFE6F2D
:10138000ED0EFD6F0001DBD60B01EF51680A000185
:101390001FE00E0A4EE00F0A4EE0EF0A4EE0F60A9A
:1013A000D8B474D0010AD8B473D0F20AD8B472D0C9
:1013B000040AD8B471D0030AD8B497D0130AD8B4A9
:1013C000FAD00E0AD8B4FCD0030AD8B4FED002D1A9
:1013D000010E0B01FA6FFA5108081AE3010EFA5DCB
:1013E000036AE90F016E000E032203C0FCFB036ACF
:1013F000FA51EF0FE96E0B0E0320EA6EEFCFFDFB03
:10140000FCCBEAFF01C0E9FFFDCBEFFFFA2BE3D7EE
:10141000ECC0B9F4EBC0B8F4EAC0B7F4E9C0B6F474
:10142000F0C0BDF4EFC0BCF4EEC0BBF4EDC0BAF444
:10143000D2D00B01D0D00B01CED0010E0B01FA6F30
:10144000FA5108081AE3010EFA5D036AD50F016E1E
:10145000000E032203C0FCFB036AFA51EF0FE96E92
:101460000B0E0320EA6EEFCFFDFBFCCBEAFF01C0C1
:10147000E9FFFDCBEFFFFA2BE3D70401CF6BCE6B77
:10148000DAC0CDF4D9C0CCF40B01A5D00B01A3D0A8
:101490000B01A1D00B019FD0010E0B01FA6FFA5185
:1014A00008081AE3010EFA5D036AF10F016E000EDF
:1014B000032203C0FCFB036AFA51EF0FE96E0B0E27
:1014C0000320EA6EEFCFFDFBFCCBEAFF01C0E9FF92
:1014D000FDCBEFFFFA2BE3D7F4C0CBF4F3C0CAF493
:1014E000F2C0C9F4F1C0C8F476D0010E0B01FA6F56
:1014F000FA5108081AE3010EFA5D036ACD0F016E76
:10150000000E032203C0FCFB036AFA51EF0FE96EE1
:101510000B0E0320EA6EEFCFFDFBFCCBEAFF01C010
:10152000E9FFFDCBEFFFFA2BE3D7D0C00BF7CFC01D
:101530000AF7CEC009F7CDC008F70BC7C5F40AC734
:10154000C4F409C7C3F408C7C2F4D2C0BFF4D1C001
:10155000BEF4BFC47BFBBEC47AFBD4C0C7F4D3C007
:10156000C6F47A5302E17B5325E07A51785D03E1BA
:101570007B51795D1FE0BFC40DF7BEC40CF7C5C435
:101580000BF7C4C40AF7C3C409F7C2C408F7C7C439
:101590000FF7C6C40EF7C0C013F7BFC012F7BEC026
:1015A00011F7BDC010F700013DD67BCB79FB7ACB9C
:1015B00078FB0B0110D0010E0401DD6F0B010BD085
:1015C000010E0401EE6F0B0106D00401EE6B0B015E
:1015D00002D000010B010001FEEF22F0C30E0B014F
:1015E000EE25E96E000EEF21EA6EEF50FF0801E1F3
:1015F0002ED0C30EEE25E96E000EEF21EA6E196AB9
:10160000F2BE198EF29E0C012D6BEFCF2CFC2F6BCE
:101610000D0E2E6F000113EC02F019BEF28E02C007
:1016200003F001500B01EE25016EEF51032201C0C2
:10163000F2FB03C0F3FB03C002FC01C001FCF1CBD1
:1016400004FCF0CB03FC0001E2EC05F00B0100010F
:1016500057EF0BF00B01ED6B04013D5109080DE252
:101660003D6B020E0B01F36F900EF26F000136EC32
:1016700005F002018F6B81D004013D2B0B01ED6B56
:10168000ED5108080AE3036AED51FC0FE96E010E03
:101690000320EA6EEF6AED2BF3D7020EEF6F900E88
:1016A000EE6F010EF16FFA0EF06F000197D7040193
:1016B0003D2D05D02D3D02D02D6B01D02D2B2DC4FD
:1016C000FAF12DC42EF4210E2F6FFCC130F4FDC1B0
:1016D00031F4FEC132F4FFC133F400C234F401C26C
:1016E00035F402C236F403C237F404C238F4040EEF
:1016F0000C010C6F2E0E0B6F0B0E0D6F000198EC92
:1017000005F002C03CF401C03BF43CC4EFFB3BC419
:1017100039F404013CC43AF40401A50E0001EDECD7
:1017200006F0A50EEDEC06F0A50EEDEC06F00B01B3
:10173000ED6BED510C0810E3036AED512E0FE96ECD
:10174000040E0320EA6EEFCFEEFBEE510001EDEC4C
:1017500006F00B01ED2BEDD7B50E0001EDEC06F018
:10176000B50EEDEC06F00400070E006E002EFED75D
:1017700000D0010E04011D6F0201000113EF23F0E0
:101780000B0EEA6E7E0EE96E006A026A320E016E80
:10179000DFEC04F00B01E26B000112000E0137A137
:1017A000FED7EB6F000112000C01046B036B066B9C
:1017B000056B076B086B0A6B096B036A0851B00F66
:1017C000E96E0B0E0320EA6E010EEF6E082B0B0183
:1017D000FA510908D8A4B1D0FB51030A000101E075
:1017E000A9D0036A0C010851B00FE96E0B0E03205B
:1017F000EA6E030EEF6E082B0B01FE51020829E181
:10180000036A0C010851B00FE96E0B0E0320EA6E5B
:10181000FECBEFFF082B00CC0AFCFFCB09FC036AD0
:101820000851B00FE96E0B0E0320EA6E0ACC00F0EF
:1018300000C0EFFF082B036A0851B00FE96E0B0ED2
:101840000320EA6E09CC00F000C0EFFF082B48D05F
:101850000B01FE51040845E1036A0C010851B00F69
:10186000E96E0B0E0320EA6EFECBEFFF082B00CCD7
:101870000AFCFFCB09FC036A0851B00FE96E0B0E9E
:101880000320EA6E0ACC00F000C0EFFF082B036AC9
:101890000851B00FE96E0B0E0320EA6E09CC00F080
:1018A00000C0EFFF082B01CC09FC02CC0AFC036A44
:1018B000036A0851B00FE96E0B0E0320EA6E0ACCE2
:1018C00000F000C0EFFF082B036A0851B00FE96E6B
:1018D0000B0E0320EA6E09CC00F000C0EFFF082BCE
:1018E0000B010B0E0C010C6FB00E0B6F08CC0DFC36
:1018F000000198EC05F002C006FC01C005FC036A7B
:101900000C010851B00FE96E0B0E0320EA6E05CCF6
:1019100000F000C0EFFF082B036A0851B00FE96E1A
:101920000B0E0320EA6E06CC00F000C0EFFF082B80
:1019300002D000010C0189D00B01FB51060A000105
:1019400003E0160A14E07FD00B0EEA6EB00EE96ECB
:101950000B0EE26E7E0EE16E0B01E251016E04E0B1
:10196000E6CFEEFF012EFCD7E2CB08FC6DD0036A78
:101970000C010851B00FE96E0B0E0320EA6EFBCB91
:10198000EFFF082B036A0851B00FE96E0B0E03201E
:10199000EA6EFDCB00F000C0EFFF082B036A085190
:1019A000B00FE96E0B0E0320EA6EFDCB0EFCFCCBF4
:1019B00000F000C0EFFF082BD8900B01FE310C01A6
:1019C000046B036F036A0851B00FE96E0B0E03201E
:1019D000EA6E04CC00F000C0EFFF082B036A085148
:1019E000B00FE96E0B0E0320EA6E03CC00F000C0CE
:1019F000EFFF082B0B0E0C6FB00E0B6F060E0D6F6A
:101A0000000198EC05F002C006FC01C005FC036A69
:101A10000C010851B00FE96E0B0E0320EA6E05CCE5
:101A200000F000C0EFFF082B036A0851B00FE96E09
:101A30000B0E0320EA6E06CC00F000C0EFFF082B6F
:101A40000B0102D000010B010C017F808790020E78
:101A50000B6F0001FBEC04F00C01076B0851075DF4
:101A60000FE2036A0751B00FE96E0B0E0320EA6E16
:101A7000EFCF0BFC0B51000191DE0C01072BEED7D1
:101A8000030E0B6F0001FBEC04F07F9087901200B7
:101A90000B01FD6BFE6B0C01006B0B01FF6B036A0E
:101AA000FE51B00FE96E0B0E0320EA6E010EEF6ED1
:101AB000FE2B036AFE51B00FE96E0B0E0320EA6E97
:101AC000030EEF6EFE2B036AFE51B00FE96E0B0E94
:101AD0000320EA6EFCCBEFFFFE2B036AFE51B00F32
:101AE000E96E0B0E0320EA6EBFC400F00C0100C0CB
:101AF000EFFF0B01FE2B036AFE51B00FE96E0B0ED8
:101B00000320EA6EBFC404FCBEC400F00C0100C098
:101B1000EFFF0B01FE2B036AFE51B00FE96E0B0EB7
:101B20000320EA6EEF6AFE2B036AFE51B00FE96EE6
:101B30000B0E0320EA6EEF6AFE2BC3C4EBFBC2C49C
:101B4000EAFB0C01006A016A01C0E9FB00C0E8FB86
:101B5000EACBE6FBEBCBE7FB036A036A0B01FE5122
:101B6000B00FE96E0B0E0320EA6EE7CB00F00C011C
:101B700000C0EFFF0B01FE2B036AFE51B00FE96EB0
:101B80000B0E0320EA6EE7CB04FCE6CB00F00C0161
:101B900000C0EFFF0B01FE2BC4C4E6FBC5C4E7FB8E
:101BA0000C01036A036A0B01FE51B00FE96E0B0EC4
:101BB0000320EA6EE7CB00F00C0100C0EFFF0B0141
:101BC000FE2B036AFE51B00FE96E0B0E0320EA6E86
:101BD000E7CB04FCE6CB00F00C0100C0EFFF0B01EB
:101BE000FE2B036AFE51B00FE96E0B0E0320EA6E66
:101BF000C7C400F00C0100C0EFFF0B01FE2B036A0D
:101C0000FE51B00FE96E0B0E0320EA6EC7C404FC50
:101C1000C6C400F00C0100C0EFFF0B01FE2B036AED
:101C2000FE51B00FE96E0B0E0320EA6EEF6AFE2B39
:101C3000036AFE51B00FE96E0B0E0320EA6EEF6AE5
:101C4000FE2BC9C4EBFBC8C4EAFB0C01006A016AA5
:101C500001C0E9FB00C0E8FBEACBE6FBEBCBE7FB0E
:101C6000036A036A0B01FE51B00FE96E0B0E0320ED
:101C7000EA6EE7CB00F00C0100C0EFFF0B01FE2B7A
:101C8000036AFE51B00FE96E0B0E0320EA6EE7CB3C
:101C900004FCE6CB00F00C0100C0EFFF0B01FE2BB3
:101CA000CAC4E6FBCBC4E7FB0C01036A036A0B0161
:101CB000FE51B00FE96E0B0E0320EA6EE7CB00F089
:101CC0000C0100C0EFFF0B01FE2B036AFE51B00FA9
:101CD000E96E0B0E0320EA6EE7CB04FCE6CB00F0C6
:101CE0000C0100C0EFFF0B01FE2BCDC4EBFBCCC4FD
:101CF000EAFB0C01006A016A01C0E9FB00C0E8FBD5
:101D0000EACBE6FBEBCBE7FB036A036A0B01FE5170
:101D1000B00FE96E0B0E0320EA6EE7CB00F00C016A
:101D200000C0EFFF0B01FE2B036AFE51B00FE96EFE
:101D30000B0E0320EA6EE7CB04FCE6CB00F00C01AF
:101D400000C0EFFF0B01FE2BCEC4E6FBCFC4E7FBC8
:101D50000C01036A036A0B01FE51B00FE96E0B0E12
:101D60000320EA6EE7CB00F00C0100C0EFFF0B018F
:101D7000FE2B036AFE51B00FE96E0B0E0320EA6ED4
:101D8000E7CB04FCE6CB00F00C0100C0EFFF0B0139
:101D9000FE2B0B0E0C010C6FB00E0B6FFECB0DFC6F
:101DA000000198EC05F002C000FC01C0FFFB036AD3
:101DB0000B01FE51B00FE96E0B0E0320EA6EFFCB54
:101DC00000F00C0100C0EFFF0B01FE2B036AFE5177
:101DD000B00FE96E0B0E0320EA6E0C0100CC00F090
:101DE00000C0EFFF0B01FE2B7F808790020E0C01DD
:101DF0000B6F0001FBEC04F00B01FD6BFE51FD5D70
:101E000010E2036AFD51B00FE96E0B0E0320EA6E7B
:101E1000EFCF01FC0C0101510001C0DC0B01FD2BD7
:101E2000EDD7030E0C010B6F0001FBEC04F07F906B
:101E30008790E5EF16F0F250006EF29EFACB75FF38
:101E4000F9CB74FFFBCB76FF779C779E77840F01ED
:101E5000550E786EAA0E786E778277B2FED7779499
:101E6000779C778E0050F212000112000B01FA6B82
:101E70000A0EF96FF8CBFBFB0001DDDF68EF1CF009
:101E80000B01FA6B0C0EF96FF8CBFBFB0001D3DFF3
:101E900068EF1CF00B01FA6B160EF96FF8CBFBFB29
:101EA0000001C9DF68EF1CF00C01176B186B010E05
:101EB000196FDA6AD96A0C0E1C6F0F0E1B6F0C0EAD
:101EC000EA6E130EE96E1CCCE2FF1BCCE1FF19CCCD
:101ED0001AFCD890E550EE02F3501723F450182363
:101EE0001A2FF7D717CCDEFF18CC17FC186BD8B019
:101EF000182B1B2BD8B41C2B192B19510508DFE10B
:101F0000000112006C0E0C010B250D6F070E0C2149
:101F10000E6F196AF2BE198EF29E2C6F0DCC2BFC3F
:101F2000010E2E6F900E2D6F000124EC02F019BEF1
:101F3000F28E00C00DFC0C0103C00EFC0D5302E13B
:101F40000E532BE06C0E0B250D6F070E0C210E6F40
:101F5000030E0D170E6B0D5324E10E5322E16C0E90
:101F60000B250D6F070E0C210E6F196AF2BE198E2C
:101F7000F29E2C6F0DCC2BFC2E6B640E2D6F00018E
:101F800024EC02F019BEF28E00C00DFC0C0103C05F
:101F90000EFC0D5302E10E5304E0010E016E03D05E
:101FA00002D0000E016E000112000C01106B0E51E8
:101FB000000A000117E0020A15E0060A13E0020A0F
:101FC00011E0010A0FE00E0A0DE0020A0BE00A0A16
:101FD0000DE0020A14E0060A12E00D0A10E0020AFF
:101FE0000EE012D01F0E0C01106F0FD00C010F531A
:101FF00003E01D0E106F02D01C0E106F06D01E0ED7
:102000000C01106F02D000010C0110CC01F0000196
:102010001200D8B204D00C0EEA6E1F0EE96E0C014D
:102020001A511E19800B246F1AAF0BD0171F181FDF
:10203000191F1A1F172BD8B4182BD8B4192BD8B4C2
:102040001A2B1EAF0BD01B1F1C1F1D1F1E1F1B2B6F
:10205000D8B41C2BD8B41D2BD8B41E2B006A016A2F
:10206000026A036A1F6B206B216B226B1E511D11CC
:102070001C111B112CE0200E236FD8901737183736
:1020800019371A371F372037213722371E51225D63
:1020900008E11D51215D05E11C51205D02E11B514C
:1020A0001F5D0FE31B511F5F1C51D8A01C3D205F1B
:1020B0001D51D8A01D3D215F1E51D8A01E3D225F9D
:1020C000D8800036013602360336232FD6D724AF08
:1020D0000BD0001E011E021E031E002AD8B4012AC6
:1020E000D8B4022AD8B4032A1FCCEFFF20CCECFFCF
:1020F00021CCECFF22CCECFF000112000B01FD6BA8
:10210000FC6BFB6BFA6BFE910C01006B0B01FF6B20
:10211000F85303E1F953D8B48CD2F8CBE9FFF9CBEB
:10212000EAFFEF50FA27000EFB23FC23FD23010EEC
:10213000F825E96E000EF921EA6EEF500C01046BF0
:10214000036B026B016FEACF06FCE9CF05FC04CC00
:1021500012FC03CC11FC02CC10FC0F6F166B156B3C
:10216000146B3C0E136F00019FDE06CCEAFF05CC1A
:10217000E9FF00500B01FA270150FB230250FC231A
:102180000350FD23020EF825E96E000EF921EA6ED8
:10219000EF500C01046B036B026B016FEACF06FC7E
:1021A000E9CF05FC04CC12FC03CC11FC02CC10FCE2
:1021B0000F6F166B156B0E0E146F100E136F000160
:1021C00073DE06CCEAFF05CCE9FF00500B01FA27CD
:1021D0000150FB230250FC230350FD23050EF8257C
:1021E000E96E000EF921EA6EECCF0CFCED52EFCF58
:1021F0000BFC000187DE0B01FE9101B0FE81040E95
:10220000F825E96E000EF921EA6E196AF2BE198E00
:10221000F29EEFCF33FC0C0E0C01346F0001C1ECC9
:1022200000F019BEF28E00C0EFFF0C01006B010E32
:102230000B01FF6F040EF825E96E000EF921EA6E1E
:10224000EF500C01005341E10B01FF5D04E0D8A009
:1022500002D00C013AD0010EFF5D0C01016F000E9F
:102260000059026F000E0B01FEB1010E0C01036F4D
:1022700001CC0EFC0F6F000198DEEACF03FCE9CF22
:1022800002FC0C01126B116B106B01C00FFC166B82
:10229000010E156F510E146F800E136F000104DED6
:1022A00003CCEAFF02CCE9FF00500B01FA270150F2
:1022B000FB230250FC230350FD23FF2BD8A403D0A3
:1022C0000C01002B0B01B6D70C01030E0B01F825F6
:1022D000016E000EF921036E01C001FC0C01026FBA
:1022E000EA6E01C0E9FFEFCF03FC040E0B01F825F5
:1022F000E96E000EF921EA6EEFCF0EFC000EFEB182
:10230000010E0C01056F0F6F00014FDE196AF2BE5E
:10231000198EF29E03CC33FC01C034FCC1EC00F0FA
:1023200019BEF28E0C0102CCEAFF01CCE9FF00C01D
:10233000EFFF030E0B01F825E96E000EF921EA6E9E
:10234000EACF03FCE9CF02FC0C01126B116B106B9E
:10235000EFCF0FFC166B010E156F510E146F800E30
:10236000136F0001A1DD03CCEAFF02CCE9FF0050AE
:102370000B01FA270150FB230250FC230350FD23DD
:10238000FEA155D0080EF825016E000EF921036E4E
:1023900001C001FC0C01026FEACF04FCE9CF03FC91
:1023A000D892FDCB1AFCFCCB19FCFBCB18FCFACB6A
:1023B00017FC1E6B010E1D6F510E1C6F800E1B6FE4
:1023C000000127DE04CCEAFF03CCE9FF03C008FCD0
:1023D00002C007FC01C006FC00C005FCD8820C0E40
:1023E000EA6E0B0EE96E03C01AFC02C019FC01C0B4
:1023F00018FC00C017FC0C011E6B1D6B010E1C6F3E
:102400006E0E1B6F000105DE0BCC00F00CCC01F052
:102410000DCC02F00ECC03F002CCEAFF01CCE9FFB8
:1024200001C0ECFFED5200C0EFFF54D00B01080ECD
:10243000F825016E000EF921036E01C001FC0C01AC
:10244000026FEACF04FCE9CF03FCD892FDCB1AFC63
:10245000FCCB19FCFBCB18FCFACB17FC1E6B010E56
:102460001D6F510E1C6F800E1B6F0001D2DD04CC5E
:10247000EAFF03CCE9FF03C008FC02C007FC01C06F
:1024800006FC00C005FCD8820C0EEA6E0B0EE96E4D
:1024900003C01AFC02C019FC01C018FC00C017FCE4
:1024A0000C011E6B1D6B010E1C6F6D0E1B6F00016E
:1024B000B0DD0BCC00F00CCC01F00DCC02F00ECC5A
:1024C00003F002CCEAFF01CCE9FF01C0ECFFED52C2
:1024D00000C0EFFF070E0C01006FB20E0B01FF6F83
:1024E000050EF825E96E000EF921EA6EECCF02FC2C
:1024F000ED52EFCF01FCB20E0C01015F070E025B43
:10250000050E0B01F825E96E000EF921EA6EECCFFD
:1025100003F0ED52EFCF01F00C010051035C2BE30F
:1025200008E101500B01FF5DD8A002D00C0123D0BF
:102530000C0100CC0CFCFFCB0BFC0001E3DC0B011D
:10254000FE9101B0FE81FEA107D0850EFB27E20EB1
:10255000FC23010EFD2308D0800EFA27330EFB2347
:10256000E10EFC23010EFD23FF2BD8A402D00C01A9
:10257000002B0C01C5D7580E0B01FA5F4D0EFB5B0B
:10258000000EFC5BFD5B070EF825016E000EF921C5
:10259000036E01C001FC0C01026FEACF04FCE9CF1D
:1025A00003FCD892FDCB1AFCFCCB19FCFBCB18FC2E
:1025B000FACB17FC1E6B010E1D6F510E1C6F800EA7
:1025C0001B6F000126DD04CCEAFF03CCE9FF03C04A
:1025D00008FC02C007FC01C006FC00C005FC040E9C
:1025E0000C010527000E062307230823D8820C0EB2
:1025F000EA6E0B0EE96E08CC1AFC07CC19FC06CC6F
:1026000018FC05CC17FC1E6B1D6B1C6B070E1B6F9B
:102610000001FFDC0BCC00F00CCC01F00DCC02F083
:102620000ECC03F002CCEAFF01CCE9FF00C0EFFFC3
:102630000B01FACB00F0FBCB01F0FCCB02F0FDCBA1
:1026400003F00001D7EF1CF00B01FE91FE93F8534D
:1026500003E1F953D8B4FBD1F9CB03F0F8CBE9FF90
:1026600003C0EAFFEFCFFAFBECCFFBFBECCFFCFBA8
:10267000ECCFFDFBD892FDCB1AFCFCCB19FCFBCBBD
:1026800018FCFACB17FC0C011E6B010E1D6F510ECE
:102690001C6F800E1B6F0001BCDC03C002FC02C07B
:1026A00001FC01C000FC00C0FFFB040E0B01FF2772
:1026B000000E0C01002301230223D8820C0EEA6EC7
:1026C000030EE96E02CC1AFC01CC19FC00CC18FCFC
:1026D000FFCB17FC1E6B1D6B1C6B070E1B6F0001E5
:1026E00098DC03CC3BF004CC01F005CC02F006CC26
:1026F00003F03A6A460E396E0B01FEB175D0FDBF8C
:102700000BD0FD51010824E307E1FC51E20820E36E
:1027100003E1FB5184081CE3FEA31AD0D892FDCB41
:102720001AFCFCCB19FCFBCB18FCFACB17FC0C01F8
:102730001E6B010E1D6F510E1C6F800E1B6F000172
:1027400068DC01C03DF000C03CF00B014DD02AD048
:10275000FDBF0FD0FD51010825E30BE1FC51E1085D
:1027600021E307E1FB5133081DE303E1FA517F0840
:1027700019E3D892FDCB1AFCFCCB19FCFBCB18FC5F
:10278000FACB17FC0C011E6B010E1D6F510E1C6F56
:10279000800E1B6F00013DDC01C03DF000C03CF02D
:1027A0000B0122D0FEA309D0000EFA5F850EFB5B61
:1027B000E20EFC5B010EFD5B08D0800EFA5F330E6B
:1027C000FB5BE10EFC5B010EFD5B392AD8B43A2AB3
:1027D0003AC00CFC39C00BFC000182EC0FF00B017D
:1027E000FE9301B0FE8389D7386AFEB19AD0000EFD
:1027F000FEB3010EFF6F38C00EFCE8CF0FFC0001E6
:10280000D5EC0FF0EACF01FCE9CF00FC0C01126B14
:10281000116B106B01C00FFC166B010E156F510E82
:10282000146F800E136F000154EC0FF001CCEAFF1F
:1028300000CCE9FF0B01FDBF0FD0FD51035C0EE39F
:102840000BE1FC51025C0AE307E1FB51015C06E38A
:1028500003E10050FA5D02E264D062D0000EFEB3E4
:10286000010EFF6F38C00EFCE8CF0FFC0001D5EC65
:102870000FF0EACF01FCE9CF00FC0C01126B116BE9
:10288000106B01C00FFC166B010E156F510E146F0B
:10289000800E136F000154EC0FF001CCEAFF00CC66
:1028A000E9FF0B01FDBF3CD00350FD5D39E30BE1B7
:1028B0000250FC5D35E307E10150FB5D31E303E1CC
:1028C0000050FA5D2DE3000EFEB3010EFF6F38C01D
:1028D0000EFCE8CF0FFC0001D5EC0FF0EACF01FCB5
:1028E000E9CF00FC0C01126B116B106B01C00FFCE7
:1028F000166B010E156F510E146F800E136F0001D1
:1029000054EC0FF001CCEAFF00CCE9FF00500B01C2
:10291000FA5F0150FB5B0250FC5B0350FD5B382A01
:1029200064D7D892FDCB1AFCFCCB19FCFBCB18FC6E
:10293000FACB17FC0C011E6B010E1D6F510E1C6FA4
:10294000800E1B6F000109EC10F000C037F00C0185
:10295000126B116B106B37C00FFC166B010E156FED
:10296000510E146F800E136F000154EC0FF00050E5
:102970000B01FA5F0150FB5B0250FC5B0350FD5BF7
:10298000D892FDCB1AFCFCCB19FCFBCB18FCFACB84
:1029900017FC0C011E6B1D6B0E0E1C6F100E1B6FB7
:1029A000000109EC10F000C036F00C01026B016B65
:1029B000006B36C0FFFB02CC12FC01CC11FC00CC3A
:1029C00010FC36C00FFC166B156B0E0E146F100E3C
:1029D000136F000154EC0FF000500B01FA5F01502F
:1029E000FB5B0250FC5B0350FD5BD892FDCB1AFCF5
:1029F000FCCB19FCFBCB18FCFACB17FC0C011E6BB3
:102A00001D6B1C6B3C0E1B6F000109EC10F000C02D
:102A100035F00C01006B35C0FFFB196AF2BE198E50
:102A2000F29E00CC2DFC35C02CFC2F6B3C0E2E6F83
:102A3000000113EC02F019BEF28E01500B01FA5F97
:102A40000250FB5B000EFC5BFD5BFACB34F0340EF6
:102A5000016E000E026E0001E6EF1CF00B01F96B37
:102A6000F86BFB6BFA6B0A0EFC6FF96BF2C4F8FBA8
:102A70000401F351090805E30A0E0B01FC6F07D0AE
:102A80000401F351630804E3640E0B01FC6F0401BD
:102A9000196AF2BE198EF29EF9CB2DFCF8CB2CFCF4
:102AA0000C012F6BFCCB2EFC000113EC02F019BEC5
:102AB000F28E02C0F9FB01C0F8FB0401F3510B01D7
:102AC000F827000EF9230401F451090805E30A0E62
:102AD0000B01FC6F07D00401F451630804E3640E9A
:102AE0000B01FC6F0401196AF2BE198EF29EF9CB3C
:102AF0002DFCF8CB2CFC0C012F6BFCCB2EFC000129
:102B000013EC02F019BEF28E02C0F9FB01C0F8FB13
:102B10000401F4510B01F827000EF923F9CB9BF0C7
:102B2000F8CB9AF0FB6BF5C4FAFB0401F6510908E7
:102B300005E30A0E0B01FC6F07D00401F651630890
:102B400004E3640E0B01FC6F0401196AF2BE198ED6
:102B5000F29EFBCB2DFCFACB2CFC0C012F6BFCCB9B
:102B60002EFC000113EC02F019BEF28E02C0FBFB3A
:102B700001C0FAFB0401F6510B01FA27000EFB23FA
:102B8000FBCB9DF0FACB9CF0000146EF1EF00B0151
:102B9000EE6BED6BEF6BF16BF06BF36BF26BF46B59
:102BA000F56BF66B060EF76F020EE25DF86F0B0E1B
:102BB0000C010C6F7E0E0B6FF8CB0DFC000198EC36
:102BC00005F002C0EEFB01C0EDFBEECBF8FB0B0104
:102BD000F96B010EE25D036A7E0FE96E0B0E0320B6
:102BE000EA6EEF50EE5D15E1F95313E1EDCBF8FB22
:102BF000F96B020EE25D036A7E0FE96E0B0E032095
:102C0000EA6EEF50ED5D05E1F95303E1010EEF6F60
:102C100004D00001C0EC0BF00B01EF53D8B448EF27
:102C20001EF07F51010A00010BE0020A0BE0050AC9
:102C3000D8B4CCD1160AD8B469EF1CF047EF1EF017
:102C400047EF1EF00B01F16B80CBF0FBF0CBF1FBFB
:102C5000F06B8151F013F051006EF151036E020ED2
:102C6000035C05E1960E005C000147E00B01020EDB
:102C7000035C05E1980E005C000165E00B01050EA8
:102C8000035C06E1600E005C0001D8B482D00B0149
:102C9000050E035C06E1620E005C0001D8B4B3D0FF
:102CA0000B01050E035C06E1660E005C0001D8B462
:102CB000D0D00B01050E035C06E1680E005C00013C
:102CC000D8B4EDD00B01050E035C06E1640E005C88
:102CD0000001D8B40AD10B01035006E1880E005C54
:102CE0000001D8B427D10B01035006E1650E005C4A
:102CF0000001D8B443D10B0166D10B01F36B82CB39
:102D0000F2FBF2CBF3FBF26B8351F213D890F23566
:102D1000F86FF335F96F090EFA6F030EFB6FF1CB05
:102D2000FDFBF0CBFCFBF8CBFEFBB9C402FCB8C446
:102D300001FCB7C400FCB6C4FFFB0001D4EC0BF0EF
:102D4000C0EC0BF041D10B01F36B82CBF2FBF2CB69
:102D5000F3FBF26B8351F213D890F235F86FF33531
:102D6000F96F090EFA6F030EFB6FF1CBFDFBF0CB91
:102D7000FCFBF8CBFEFBBDC402FCBCC401FCBBC425
:102D800000FCBAC4FFFB0001D4EC0BF0C0EC0BF06C
:102D90001BD10B01F36B82CBF2FBF2CBF3FBF26B9B
:102DA0008351F213F35303E1F251010810E2D8907A
:102DB000F235F86FF335F96FF1CBFBFBF0CBFAFB93
:102DC000F8CBFCFB000148EF0DF01AD00B01D890B6
:102DD000F235F86FF335F96F090EFA6F030EFB6FDA
:102DE000F1CBFDFBF0CBFCFBF8CBFEFB0C01026B47
:102DF000016BBFC400FCBEC4FFFB0001D4EC0BF0B0
:102E0000C0EC0BF0E1D00B01F36B82CBF2FBF2CB09
:102E1000F3FBF26B8351F213D890F235F86FF33570
:102E2000F96F090EFA6F030EFB6FF1CBFDFBF0CBD0
:102E3000FCFBF8CBFEFBC5C402FCC4C401FCC3C44C
:102E400000FCC2C4FFFB0001D4EC0BF0C0EC0BF0A3
:102E5000BBD00B01F36B82CBF2FBF2CBF3FBF26B3B
:102E60008351F213D890F235F86FF335F96F090EEC
:102E7000FA6F030EFB6FF1CBFDFBF0CBFCFBF8CB45
:102E8000FEFBCBC402FCCAC401FCC9C400FCC8C41C
:102E9000FFFB0001D4EC0BF0C0EC0BF095D00B0164
:102EA000F36B82CBF2FBF2CBF3FBF26B8351F213A9
:102EB000D890F235F86FF335F96F090EFA6F030EFB
:102EC000FB6FF1CBFDFBF0CBFCFBF8CBFEFBCFC4E3
:102ED00002FCCEC401FCCDC400FCCCC4FFFB00014D
:102EE000D4EC0BF0C0EC0BF06FD00B01F36B82CB8A
:102EF000F2FBF2CBF3FBF26B8351F213D890F23575
:102F0000F86FF335F96F090EFA6F030EFB6FF1CB13
:102F1000FDFBF0CBFCFBF8CBFEFB0C01026B016B65
:102F2000C7C400FCC6C4FFFB0001D4EC0BF0C0EC2E
:102F30000BF04AD00B01F36B82CBF2FBF2CBF3FB2D
:102F4000F26B8351F213D890F235F86FF335F96FC5
:102F5000090EFA6F030EFB6FF1CBFDFBF0CBFCFB10
:102F6000F8CBFEFB0C01026B016B006BDDC4FFFBB9
:102F70000001D4EC0BF0C0EC0BF026D00B01F36B8E
:102F800082CBF2FBF2CBF3FBF26B8351F213D890BE
:102F9000F235F86FF335F96F090EFA6F030EFB6F18
:102FA000F1CBFDFBF0CBFCFBF8CBFEFB0C01026B85
:102FB000016B006BEEC4FFFB0001D4EC0BF0C0EC26
:102FC0000BF002D00B01000147EF1EF00B01F16B7B
:102FD00080CBF0FBF0CBF1FBF06B8151F013F051A3
:102FE000006EF151036E020E035C06E1820E005C7E
:102FF0000001D8B47ED00B01035006E1050E005C41
:103000000001D8B4CED00B01020E035C06E1990E8C
:10301000005C0001D8B457D10B01050E035C06E13A
:10302000520E005C0001D8B495D10B01050E035C73
:1030300006E1540E005C0001D8B4B5D10B01035079
:1030400006E1990E005C0001D8B405D20B010350D3
:1030500006E1890E005C0001D8B431D20B010350A7
:1030600006E1900E005C0001D8B441D20B01035080
:1030700006E1540E005C0001D8B457D20B01035096
:1030800006E1580E005C0001D8B46BD20B0103506E
:1030900006E1590E005C0001D8B4BAD20B0103500E
:1030A00006E1600E005C0001D8B40AD30B010350A6
:1030B00006E1620E005C0001D8B45AD30B01035044
:1030C00006E1630E005C0001D8B46AD30B01035023
:1030D00006E1640E005C0001D8B485D30B010350F7
:1030E00006E1660E005C0001D8B499D30B0167EFCE
:1030F0001CF00401DA6B82CBD9F4D9C4DAF40401F0
:10310000D96B04010B0183510401D9130A0E0B0181
:10311000FA6F060EFB6FF1CBFDFBF0CBFCFBFE6BF9
:103120000C01026B016B006B0B01FF6B0001D4EC17
:103130000BF0C0EC0BF06C0E0101FC6FDAC4FAF07E
:10314000D9C4F9F00001FC6BFB6B010E0B01F46FAD
:10315000F45108081AE3036AF451FC0F016E010EE2
:10316000032203C0F9FB010EF45D036AF90FE96E57
:10317000000E0320EA6EEFCFFAFBF9CBEAFF01C0A5
:10318000E9FFFACBEFFFF42BE3D7020EF96F900EB5
:10319000F86F010EFB6FFA0EFA6F000102EC06F0F9
:1031A00097D30401D76B82CBD6F4D6C4D7F40401ED
:1031B000D66B04010B0183510401D6130A0E0B01D7
:1031C000FA6F060EFB6FF1CBFDFBF0CBFCFBFE6B49
:1031D0000C01026B016B006B0B01FF6B0001D4EC67
:1031E0000BF0C0EC0BF00401D651006ED751036E0A
:1031F000035004E1005200012CE00401035005E1FA
:10320000010E005C000129E00401035005E1020EFB
:10321000005C000126E00401035005E1030E005CA0
:10322000000123E00401035005E1060E005C0001EB
:1032300020E00401035005E1050E005C00011DE0E3
:103240000401035005E1040E005C00011AE00401D2
:103250001DD0640E0101FC6F1AD0640E0101FC6FD9
:1032600016D06F0E0101FC6F12D0820E0101FC6FAF
:103270000ED0960E0101FC6F0AD0650E0101FC6FA5
:1032800006D08D0E0101FC6F02D004010101010E78
:103290000B01F46FF45108080AE3036AF451FC0FC0
:1032A000E96E010E0320EA6EEF6AF42BF3D7020EEB
:1032B000F96F900EF86F010EFB6FFA0EFA6F0001B6
:1032C00002EC06F005D382CBD8F4000E0401D86BD3
:1032D0000B0183510401D8130A0E0B01FA6F060E7D
:1032E000FB6FF1CBFDFBF0CBFCFBFE6B0C01026B2B
:1032F000016B006B0B01FF6B0001D4EC0BF0C0EC19
:103300000BF0660E0101FC6F010E0B01F46FF4511E
:1033100008080AE3036AF451FC0FE96E010E03206A
:10332000EA6EEF6AF42BF3D7020EF96F900EF86F86
:10333000010EFB6FFA0EFA6F000102EC06F00401B9
:10334000B96BB86BB76BB66BBD6BBC6BBB6BBA6B59
:103350000001BED20401D36B82CBD2F4D2C4D3F429
:103360000401D26B04010B0183510401D2130A0E34
:103370000B01FA6F060EFB6FF1CBFDFBF0CBFCFBF4
:10338000FE6B0C01026B016B006B0B01FF6B00010C
:10339000D4EC0BF0C0EC0BF0E06BDF6BD3C4DEF0D1
:1033A000D2C4DDF095D20401D56B82CBD4F4D4C461
:1033B000D5F40401D46B04010B0183510401D4132F
:1033C0000A0E0B01FA6F060EFB6FF1CBFDFBF0CB83
:1033D000FCFBFE6B0C01026B016B006B0B01FF6BC6
:1033E0000001D4EC0BF0C0EC0BF0710E0101FC6F8E
:1033F0000001E46BE36BD5C4E2F0D4C4E1F0010E4C
:103400000B01F46FF45108081AE3036AF451FC0F3E
:10341000016E010E032203C0F9FB010EF45D036A85
:10342000DD0FE96E000E0320EA6EEFCFFAFBF9CB59
:10343000EAFF01C0E9FFFACBEFFFF42BE3D7020E5E
:10344000F96F900EF86F010EFB6FFA0EFA6F000124
:1034500002EC06F03DD20A0E0B01FA6F060EFB6F6E
:10346000F1CBFDFBF0CBFCFBFE6B0C01026B016BA7
:10347000006B0B01FF6B0001D4EC0BF0C0EC0BF008
:10348000760E0101FC6F010E0B01F46FF451080878
:103490000AE3036AF451FC0FE96E010E0320EA6EA1
:1034A000EF6AF42BF3D7020EF96F900EF86F010E4E
:1034B000FB6FFA0EFA6F000102EC06F009D204016C
:1034C000DD6B0A0E0B01FA6F060EFB6FF1CBFDFBF5
:1034D000F0CBFCFBFE6B0C01026B016B006B0B0174
:1034E000FF6B0001D4EC0BF0C0EC0BF0F1D183CBFF
:1034F000DEF40A0E0B01FA6F060EFB6FF1CBFDFB3B
:10350000F0CBFCFBFE6B0C01026B016B006B0B0143
:10351000FF6B0001D4EC0BF0C0EC0BF0DEC499F0B3
:10352000DEC4F8FB36EF0FF0D3D183CBE0F40A0E04
:103530000B01FA6F060EFB6FF1CBFDFBF0CBFCFB32
:10354000FE6B0C01026B016B006B0B01FF6B00014A
:10355000D4EC0BF0C0EC0BF0E0C4F8FB40EF0FF044
:10356000B7D10401E56B82CBE4F4E4C4E5F40401D3
:10357000E46B04010B0183510401E4130A0E0B01F7
:10358000FA6F060EFB6FF1CBFDFBF0CBFCFBFE6B85
:103590000C01026B016B006B0B01FF6B0001D4ECA3
:1035A0000BF0C0EC0BF0980E0101FC6FE5C403F1C9
:1035B000E4C402F1010E016F046B0B01F46FF451CE
:1035C00008081AE3036AF451FC0F016E010E03228E
:1035D00003C0F9FB010EF45D036A010FE96E010EF1
:1035E0000320EA6EEFCFFAFBF9CBEAFF01C0E9FF57
:1035F000FACBEFFFF42BE3D7020EF96F900EF86FC2
:10360000010EFB6FFA0EFA6F000102EC06F060D1BA
:103610000401E76B82CBE6F4E6C4E7F40401E66B51
:1036200004010B0183510401E6130A0E0B01FA6F2A
:10363000060EFB6FF1CBFDFBF0CBFCFBFE6B0C0130
:10364000026B016B006B0B01FF6B0001D4EC0BF004
:10365000C0EC0BF0980E0101FC6FE7C403F1E6C467
:1036600002F1020E016F046B010E0B01F46FF451B5
:1036700008081AE3036AF451FC0F016E010E0322DD
:1036800003C0F9FB010EF45D036A010FE96E010E40
:103690000320EA6EEFCFFAFBF9CBEAFF01C0E9FFA6
:1036A000FACBEFFFF42BE3D7020EF96F900EF86F11
:1036B000010EFB6FFA0EFA6F000102EC06F008D162
:1036C0000401E96B82CBE8F4E8C4E9F40401E86B97
:1036D00004010B0183510401E8130A0E0B01FA6F78
:1036E000060EFB6FF1CBFDFBF0CBFCFBFE6B0C0180
:1036F000026B016B006B0B01FF6B0001D4EC0BF054
:10370000C0EC0BF0980E0101FC6FE9C403F1E8C4B2
:1037100002F1030E016F046B010E0B01F46FF45103
:1037200008081AE3036AF451FC0F016E010E03222C
:1037300003C0F9FB010EF45D036A010FE96E010E8F
:103740000320EA6EEFCFFAFBF9CBEAFF01C0E9FFF5
:10375000FACBEFFFF42BE3D7020EF96F900EF86F60
:10376000010EFB6FFA0EFA6F000102EC06F0B0D00A
:1037700083CBEBF40A0E0B01FA6F060EFB6FF1CB55
:10378000FDFBF0CBFCFBFE6B0C01026B016B006BD5
:103790000B01FF6B0001D4EC0BF0C0EC0BF098D0E8
:1037A0000401ED6B82CBECF4ECC4EDF40401EC6BA2
:1037B00004010B0183510401EC130A0E0B01FA6F93
:1037C000060EFB6FF1CBFDFBF0CBFCFBFE6B0C019F
:1037D000026B016B006B0B01FF6B0001D4EC0BF073
:1037E000C0EC0BF075D083CBEFF40A0E0B01FA6F2F
:1037F000060EFB6FF1CBFDFBF0CBFCFBFE6B0C016F
:10380000026B016B006B0B01FF6B0001D4EC0BF042
:10381000C0EC0BF0EFC4F8FB4AEF0FF059D00401F5
:10382000F16B82CBF0F4F0C4F1F40401F06B04010D
:103830000B0183510401F0130A0E0B01FA6F060EFF
:10384000FB6FF1CBFDFBF0CBFCFBFE6B0C01026BC5
:10385000016B006B0B01FF6B0001D4EC0BF0C0ECB3
:103860000BF09B0E0101FC6FF1C406F1F0C405F1F1
:10387000086B076B010E0B01F46FF45108081AE393
:10388000036AF451FC0F016E010E032203C0F9FB21
:10389000010EF45D036A050FE96E010E0320EA6E66
:1038A000EFCFFAFBF9CBEAFF01C0E9FFFACBEFFF5C
:1038B000F42BE3D7020EF96F900EF86F010EFB6F39
:1038C000FA0EFA6F000102EC06F002D00B010001C3
:1038D000DED10B01F16B80CBF0FBF0CBF1FBF06B99
:1038E0008151F013F051006EF151036E035005E168
:1038F000470E005C000123E00B01035005E1500E70
:10390000005C00016AE00B01035006E1520E005C0E
:103910000001D8B405D10B01010E035C06E1900E45
:10392000005C0001D8B471D10B01010E035C06E10B
:10393000930E005C0001D8B487D10B01A6D184CBD3
:10394000F5FBAD6B85CBACF0ACC0ADF00001AC6B62
:1039500000010B0186510001AC13010E0B01885DC3
:103960000001AB6F8ACBAAF08CCBAEF08ECBA9F066
:1039700090CBA8F092CBA7F00A0E0B01FA6F100EB5
:10398000FB6FF1CBFDFBF0CBFCFBF5CBFEFB0C01A1
:10399000026B016B006B0B01FF6B0001D4EC0BF0B1
:1039A0000B01F96BA70EF86F00017EEF10F003C05A
:1039B000C0F002C0BFF001C0BEF000C0BDF00B01FE
:1039C000F96BBD0EF86F000124EF13F002C0BCF0DC
:1039D00001C0BBF0C0EC0BF059D184CBF5FBE06B20
:1039E000DF6BDE6B87CBDDF0DFC0E0F0DEC0DFF049
:1039F000DDC0DEF0DD6B0B0188510001DD13DFC09F
:103A0000E0F0DEC0DFF0DDC0DEF0DD6B0B018551E4
:103A10000001DD13DFC0E0F0DEC0DFF0DDC0DEF06E
:103A2000DD6B0B0186510001DD13E46BE36BE26B90
:103A30008BCBE1F0E3C0E4F0E2C0E3F0E1C0E2F000
:103A4000E16B0B018C510001E113E3C0E4F0E2C033
:103A5000E3F0E1C0E2F0E16B0B0189510001E113F9
:103A6000E3C0E4F0E2C0E3F0E1C0E2F0E16B0B019F
:103A70008A510001E1130A0E0B01FA6F100EFB6F61
:103A8000F1CBFDFBF0CBFCFBF5CBFEFB0C01026B9D
:103A9000016B006B0B01FF6B0001D4EC0BF0C0EC71
:103AA0000BF0710E0101FC6F010E0B01F46FF4516C
:103AB00008081AE3036AF451FC0F016E010E032299
:103AC00003C0F9FB010EF45D036ADD0FE96E000E21
:103AD0000320EA6EEFCFFAFBF9CBEAFF01C0E9FF62
:103AE000FACBEFFFF42BE3D7020EF96F900EF86FCD
:103AF000010EFB6FFA0EFA6F000102EC06F0E0C057
:103B0000A1F0DFC0A0F0DEC09FF0DDC09EF0E4C0F9
:103B1000A5F0E3C0A4F0E2C0A3F0E1C0A2F0B6D0EB
:103B200084CBF5FBE06BDF6BDE6B87CBDDF0DFC0BA
:103B3000E0F0DEC0DFF0DDC0DEF0DD6B0B018851B0
:103B40000001DD13DFC0E0F0DEC0DFF0DDC0DEF03D
:103B5000DD6B0B0185510001DD13DFC0E0F0DEC03D
:103B6000DFF0DDC0DEF0DD6B0B0186510001DD13FF
:103B7000E46BE36BE26B8BCBE1F0E3C0E4F0E2C01B
:103B8000E3F0E1C0E2F0E16B0B018C510001E113C5
:103B9000E3C0E4F0E2C0E3F0E1C0E2F0E16B0B016E
:103BA00089510001E113E3C0E4F0E2C0E3F0E1C0B9
:103BB000E2F0E16B0B018A510001E1130A0E0B01E7
:103BC000FA6F100EFB6FF1CBFDFBF0CBFCFBF5CBDE
:103BD000FEFB0C01026B016B006B0B01FF6B000124
:103BE000D4EC0BF0C0EC0BF0E0C0A1F0DFC0A0F013
:103BF000DEC09FF0DDC09EF0E4C0A5F0E3C0A4F0FD
:103C0000E2C0A3F0E1C0A2F041D084CBF5FB86CBAB
:103C1000F2F488CBF3F48ACBF4F40A0E0B01FA6FBA
:103C2000100EFB6FF1CBFDFBF0CBFCFBF5CBFEFBED
:103C30000C01026B016B006B0B01FF6B0001D4ECFC
:103C40000BF0C0EC0BF022D084CBF5FB86CBF5F467
:103C500088CBF6F40A0E0B01FA6F100EFB6FF1CB56
:103C6000FDFBF0CBFCFBF5CBFEFB0C01026B016B0B
:103C7000006B0B01FF6B0001D4EC0BF0C0EC0BF000
:103C80002EEF15F0000102D00B01000100D00B0156
:103C9000000118EF23F00B01F86BF7CBF8FBF250A3
:103CA000006EF29EF5CB75FFF4CB74FFF8CB76FF78
:103CB000779C779E77840F01550E786EAA0E786EEA
:103CC000778277B2FED77794779C778E0050F21286
:103CD0000B01F42BD8B4F52BF86BF6CBF8FBF250B4
:103CE000006EF29EF5CB75FFF4CB74FFF8CB76FF38
:103CF000779C779E77840F01550E786EAA0E786EAA
:103D0000778277B2FED77794779C778E0050F21245
:103D1000000112000B01F26BF16BF36B110EF36FEC
:103D2000EFCBF1FBF0CBF2FB036AF56BF3CBF4FBCB
:103D3000F2CBF7FBF1CBF6FB0001ADDF020E0B017E
:103D4000F327EDCBF1FBEECBF2FB036AF56BF3CB84
:103D5000F4FBF2CBF7FBF1CBF6FB00019CDF29EF84
:103D600023F00B01ED6B7651FF0803E1010EED6FBF
:103D700001D0ED6BEDCB01F0000139EF23F009002C
:103D8000F6CFFBFBF7CFFCFBF5500E0137A9FED7B2
:103D9000DD6FFBCBF6FFFCCBF7FF0B01FA2F01D059
:103DA00002D00001ECD7000112000150196AF2BEE6
:103DB000198EF29EFACB33FC640E0C01346F0001B5
:103DC000C1EC00F019BEF28E00C0FAFB0150300EBB
:103DD00008E10B01FBA310D0FBB70ED0FBB9200EFE
:103DE00004D00B01FB97FB99FB81012601500E01CA
:103DF00037A9FED7DD6F0B01196AF2BE198EF29E4C
:103E0000FACB33FC0A0E0C01346F0001C1EC00F058
:103E100019BEF28E00C0FAFB0150300E08E10B0112
:103E2000FBB70CD0FBA10AD0FBB9200E0001012684
:103E300001500E0137A9FED7DD6F0B01300EFA27B6
:103E4000FA510E0137A9FED7DD6F00011200EACF4B
:103E500006FCE9CF05FC0B01FB39F0090C01016FF1
:103E60000127E20F026F320F046F0B01FB510F0BA2
:103E70000C01022702270427E90F036F03270327FA
:103E80000B01FA390F0B0C01032704270337043702
:103E9000041F04370B01FA510F0B0C0104270137E3
:103EA000070E006F0A0E03070427FDE3020703272E
:103EB000FDE301070227FDE300070127FDE30C0EE8
:103EC000EA6EE96A070E0515059DE926000EEA224D
:103ED000E950040804E1EA500C0801E1058DEF50B7
:103EE000006E08E105BD06D005B90ED005B702D0B9
:103EF000200E03D005870599300E002600500E01D4
:103F000037A9FED7DD6F0C01EE5005ADE1D70001FA
:103F10001200D8B204D00C0EEA6E140EE96E006ADC
:103F2000016A026A036A0C01146B156B166B176B3E
:103F300013511211111110112CE0200E186FD8908E
:103F40000C370D370E370F3714371537163717372D
:103F50001351175D08E11251165D05E11151155D10
:103F600002E11051145D0FE31051145F1151D8A0FC
:103F7000113D155F1251D8A0123D165F1351D8A004
:103F8000133D175FD8800036013602360336182FEE
:103F9000D6D714CCEFFF15CCECFF16CCECFF17CC2A
:103FA000ECFF00011200E9500C01006F3B0E076F9F
:103FB0009A0E066FCA0E056F046B0A0E026FD88246
:103FC0000B0EEA6EFA0EE96EFDCB0FFCFCCB0EFC7D
:103FD000FBCB0DFCFACB0CFC07CC13FC06CC12FC83
:103FE00005CC11FC04CC10FC000193DF0150005201
:103FF00013E10C010251010AD8A402D000010CD037
:1040000000510CE00F0B025D01E010E200BF0ED08A
:1040100000BD04D0200E03D00C01006B300E002632
:1040200000500E0137A9FED7DD6F0C01D89207CCE6
:104030000FFC06CC0EFC05CC0DFC04CC0CFC136B69
:10404000126B116B0A0E106F000163DF03C007FCD7
:1040500002C006FC01C005FC00C004FC0C01022FDC
:10406000AED700011200196AF2BE198EF29E0C0141
:104070002D6B76CB2CFC2F6B0B0E2E6F000113ECEF
:1040800002F019BEF28E02C0EEFB01C0EDFB2A0E5B
:104090000B010124E96E070E0220EA6EEFCFEFFB61
:1040A000ECCFF0FBECCFF1FBECCFF2FB196AF2BEE8
:1040B000198EF29E0C012D6B76CB2CFC2F6B0B0E08
:1040C0002E6F000113EC02F019BEF28E01C0F3FB5B
:1040D000040E0B010124016E000E0220036E01503C
:1040E0002A0FE96E070E0320EA6EECCFF4FBED52C7
:1040F000EFCFF3FB196AF2BE198EF29E0C012D6B05
:1041000076CB2CFC2F6B0B0E2E6F000113EC02F004
:1041100019BEF28E01C0F5FB060E0B010124016EE3
:10412000000E0220036E01502A0FE96E070E0320D5
:10413000EA6EEFCFF5FBECCFF6FBECCFF7FBECCF65
:10414000F8FB196AF2BE198EF29E0C012D6B76CB2C
:104150002CFC2F6B0B0E2E6F000113EC02F019BE1E
:10416000F28E01C0F9FB0A0E0B010124016E000E54
:104170000220036E01502A0FE96E070E0320EA6E3B
:10418000EFCFF9FBC00EF66E030EF76E1F0EFA6F3F
:104190000001F5DD99C0FAFB1B0E0B01FB6F00015E
:1041A00004DEE10EF66E030EF76E030E0B01FA6FDE
:1041B0000001E5DD100EE96E9BC0FBFB9AC0FAFB27
:1041C00046DEE70EF66E030EF76E030E0B01FA6F76
:1041D0000001D5DD100EE96E9DC0FBFB9CC0FAFB13
:1041E00036DEED0EF66E030EF76E030E0B01FA6F60
:1041F0000001C5DD410EE96EA1C0FDFBA0C0FCFBC6
:104200009FC0FBFB9EC0FAFBCEDEF30EF66E030EE4
:10421000F76E030E0B01FA6F0001B1DD410EE96E7E
:10422000A5C0FDFBA4C0FCFBA3C0FBFBA2C0FAFB26
:10423000BADEF90EF66E030EF76E030E0B01FA6F7F
:1042400000019DDD410EE96EF2CBFDFBF1CBFCFBE5
:10425000F0CBFBFBEFCBFAFBA6DE240E0E0137A959
:10426000FED7DD6F100EE96EF4CBFBFBF3CBFAFB50
:104270000001EDDD240E0E0137A9FED7DD6F410EE2
:10428000E96EF8CBFDFBF7CBFCFBF6CBFBFBF5CBEC
:10429000FAFB000188DE240E0E0137A9FED7DD6F80
:1042A000F9CBFAFB1B0E0B01FB6F00017EDD49EF22
:1042B00023F0196AF2BE198EF29E0C012D6BEDCB24
:1042C0002CFC030E2F6FE80E2E6F000113EC02F092
:1042D00019BEF28E02C091F001C090F0010E926FF3
:1042E0001200778E779CF86A0E011F9B228B239316
:1042F000239BF28A078E550E0D01EF6FAA0EEF6F0A
:10430000EF91170E0E010F6F210E136F230E176F13
:104310000C0E686F100E726F140E746F550E0D0137
:10432000EF6FAA0EEF6FEF812F6A0E01F087810EFB
:10433000EC6F000EED6FA60EEF6F900EEE6F9E9677
:10434000400E9A6EA60E9D6E900E9C6EE2872A0E0F
:10435000DE6F000EDF6FA60EE16F900EE06F336A26
:10436000326A290E3E6E3F6A160E406E0001876B60
:10437000886B030E896F0C0E8A6F8C6BFA0E8B6F35
:10438000160E8D6F8E6B8F6B916B906B926B936B28
:10439000946B986B976B966B956BA66BBC6BB10E21
:1043A000BB6FC06BBF6BBE6BBD6BCA6BCB6BCC6B9B
:1043B0000101D36BE86BE96BEA6BA50EEB6FEC6B5D
:1043C00002018E6B8F6B010E04011A6F1B6B1C6B4D
:1043D0001D6B1F6B1E6B2D6B3C6B3B6B3D6BA46BA6
:1043E000A56BA66BA76BB56FB96BB86BB76BB66BEC
:1043F000BD6BBC6BBB6BBA6BBF6BBE6BC56BC46B71
:10440000C36BC26BC76BC66BCB6BCA6BC96BC86B1C
:10441000CF6BCE6BCD6BCC6BD16BD06BD36BD26BC8
:10442000D56BD46BD76BD66BD86BDA6BD96BDC6B77
:10443000DB6BDD6BDE6BDF6BE06BE16BE26BE36B29
:10444000E56BE46BE76BE66BE96BE86BEA6BEB6BD8
:10445000ED6BEC6BEE6BEF6BF16BF06BF26BF36B88
:10446000F46BF56BF66BF86BF76B0C0EF96FFB6B7F
:10447000FA6BFC6BFE6BFD6B1A0EFF6F0501016B97
:10448000006B026B150E036FB40E046F2C0E056FDC
:104490002E0E066F0601FC6BFB6BFD6BFE6B0701BE
:1044A000006B010E0601FF6F0701026B020E016F28
:1044B000070E046FCF0E036F056B066B076B146B53
:1044C000296B0B01796B786B7B6B7A6B7C6B7D6BEB
:1044D000E26B0B0EE36F010EE46FE56BE76BE66BCF
:1044E000EB6BEA6BE96BE86B0E01926B9A6BA76B57
:1044F000AF6BB46BBC6BD26BD36BD16BD06B0C0E50
:10450000316E360E306E010E0C01376FB00E366F05
:10451000396B386B000114D0464041001441D4007F
:10452000874207000D442E0066443E000D44A8005B
:10453000FF450700F5C00014471500644B7E0000DE
:10454000000EF86E450EF76E180EF66E0900F55067
:10455000006E000A13E00900F550016EE8BE05D0B8
:104560003F0BEA6E0900F550E96E01BC090001AC91
:104570000900F550EE6E004EE9D7F9D7F86A0B0145
:10458000EC6B010E0701146F070E0E013E6F190E42
:104590003D6F0001D9EF02F0E9EF02F0EFEF02F01A
:1045A000F5EF02F09EEF04F0ECEF04F00C0E0B01BF
:1045B000ED6FFA0E0C010B6F0001FBEC04F00B0128
:1045C000ED2FF7D70E013D510400000113EF05F068
:1045D00001C0D3F10101D351110804E20001F3EF4E
:1045E00006F00101030E0B01EE6F550EED6F000199
:1045F0008CEC08F0015202E0B8EF09F0020E0B015A
:10460000EE6F900EED6F00018CEC08F001520BE0A4
:1046100002018F53D8B402D0000105D0010E8F6F74
:1046200000012AEF0BF08D51150804E1C7EF15F0DA
:10463000160E8D6F0501035114080EE198C0F0FBB2
:1046400097C0EFFB96C0EEFB95C0EDFB00018AEF33
:104650001EF0150E0501036F0401FF51190813E147
:104660000701142D01D002D004010DD00001B1EFDB
:104670001EF001C0ECFB0B01EC5304E1020E07013C
:10468000146F0B0169D00701145102080CE10001FD
:10469000EAD48F6B030E0B01ED6F00010ADE030EEF
:1046A0000701146F58D01451030810E100018F5313
:1046B000D8B402D007010AD00B01EC6BEC5304E133
:1046C000040E0701146F0B0147D0070114510308B2
:1046D00010E100018F2D01D002D007010AD08F6BAD
:1046E0000A0E0B01ED6F0001E4DD050E0701146FEA
:1046F00032D01451040823E11A0E0401FF6F0B019C
:104700007751765D04E1776977CB76FB14D0010EA3
:104710007625EE6F196AF2BE198EF29EE8CF33FC51
:10472000640E0C01346F0001C1EC00F019BEF28E72
:1047300000C076FB0B01010E0701146F0CD0145161
:10474000050809E100018F2D01D002D0070103D037
:10475000010E0701146F0B010E013D51040035D706
:02476000FFD781
:0200000400F00A
:0400000001020304F2
:020000040030CA
:0C000000FFDF3FCF9FFFFFDFFFFFFFFF90
:00000001FF
;PIC18F66K40
;CRC=8223  CREATED="16-Dec-20 11:54"
